{
    "contractName": "BABYCAKEDividendTracker",
    "abi": [
        {
            "inputs": [],
            "stateMutability": "nonpayable",
            "type": "constructor"
        },
        {
            "anonymous": false,
            "inputs": [
                {
                    "indexed": true,
                    "internalType": "address",
                    "name": "owner",
                    "type": "address"
                },
                {
                    "indexed": true,
                    "internalType": "address",
                    "name": "spender",
                    "type": "address"
                },
                {
                    "indexed": false,
                    "internalType": "uint256",
                    "name": "value",
                    "type": "uint256"
                }
            ],
            "name": "Approval",
            "type": "event"
        },
        {
            "anonymous": false,
            "inputs": [
                {
                    "indexed": true,
                    "internalType": "address",
                    "name": "account",
                    "type": "address"
                },
                {
                    "indexed": false,
                    "internalType": "uint256",
                    "name": "amount",
                    "type": "uint256"
                },
                {
                    "indexed": true,
                    "internalType": "bool",
                    "name": "automatic",
                    "type": "bool"
                }
            ],
            "name": "Claim",
            "type": "event"
        },
        {
            "anonymous": false,
            "inputs": [
                {
                    "indexed": true,
                    "internalType": "uint256",
                    "name": "newValue",
                    "type": "uint256"
                },
                {
                    "indexed": true,
                    "internalType": "uint256",
                    "name": "oldValue",
                    "type": "uint256"
                }
            ],
            "name": "ClaimWaitUpdated",
            "type": "event"
        },
        {
            "anonymous": false,
            "inputs": [
                {
                    "indexed": true,
                    "internalType": "address",
                    "name": "to",
                    "type": "address"
                },
                {
                    "indexed": false,
                    "internalType": "uint256",
                    "name": "weiAmount",
                    "type": "uint256"
                }
            ],
            "name": "DividendWithdrawn",
            "type": "event"
        },
        {
            "anonymous": false,
            "inputs": [
                {
                    "indexed": true,
                    "internalType": "address",
                    "name": "from",
                    "type": "address"
                },
                {
                    "indexed": false,
                    "internalType": "uint256",
                    "name": "weiAmount",
                    "type": "uint256"
                }
            ],
            "name": "DividendsDistributed",
            "type": "event"
        },
        {
            "anonymous": false,
            "inputs": [
                {
                    "indexed": true,
                    "internalType": "address",
                    "name": "account",
                    "type": "address"
                }
            ],
            "name": "ExcludeFromDividends",
            "type": "event"
        },
        {
            "anonymous": false,
            "inputs": [
                {
                    "indexed": true,
                    "internalType": "address",
                    "name": "previousOwner",
                    "type": "address"
                },
                {
                    "indexed": true,
                    "internalType": "address",
                    "name": "newOwner",
                    "type": "address"
                }
            ],
            "name": "OwnershipTransferred",
            "type": "event"
        },
        {
            "anonymous": false,
            "inputs": [
                {
                    "indexed": true,
                    "internalType": "address",
                    "name": "from",
                    "type": "address"
                },
                {
                    "indexed": true,
                    "internalType": "address",
                    "name": "to",
                    "type": "address"
                },
                {
                    "indexed": false,
                    "internalType": "uint256",
                    "name": "value",
                    "type": "uint256"
                }
            ],
            "name": "Transfer",
            "type": "event"
        },
        {
            "inputs": [],
            "name": "CAKE",
            "outputs": [
                {
                    "internalType": "address",
                    "name": "",
                    "type": "address"
                }
            ],
            "stateMutability": "view",
            "type": "function"
        },
        {
            "inputs": [],
            "name": "Monsta",
            "outputs": [
                {
                    "internalType": "address",
                    "name": "",
                    "type": "address"
                }
            ],
            "stateMutability": "view",
            "type": "function"
        },
        {
            "inputs": [
                {
                    "internalType": "address",
                    "name": "_owner",
                    "type": "address"
                }
            ],
            "name": "accumulativeDividendOf",
            "outputs": [
                {
                    "internalType": "uint256",
                    "name": "",
                    "type": "uint256"
                }
            ],
            "stateMutability": "view",
            "type": "function"
        },
        {
            "inputs": [
                {
                    "internalType": "address",
                    "name": "owner",
                    "type": "address"
                },
                {
                    "internalType": "address",
                    "name": "spender",
                    "type": "address"
                }
            ],
            "name": "allowance",
            "outputs": [
                {
                    "internalType": "uint256",
                    "name": "",
                    "type": "uint256"
                }
            ],
            "stateMutability": "view",
            "type": "function"
        },
        {
            "inputs": [
                {
                    "internalType": "address",
                    "name": "spender",
                    "type": "address"
                },
                {
                    "internalType": "uint256",
                    "name": "amount",
                    "type": "uint256"
                }
            ],
            "name": "approve",
            "outputs": [
                {
                    "internalType": "bool",
                    "name": "",
                    "type": "bool"
                }
            ],
            "stateMutability": "nonpayable",
            "type": "function"
        },
        {
            "inputs": [
                {
                    "internalType": "address",
                    "name": "account",
                    "type": "address"
                }
            ],
            "name": "balanceOf",
            "outputs": [
                {
                    "internalType": "uint256",
                    "name": "",
                    "type": "uint256"
                }
            ],
            "stateMutability": "view",
            "type": "function"
        },
        {
            "inputs": [],
            "name": "c",
            "outputs": [
                {
                    "internalType": "bool",
                    "name": "",
                    "type": "bool"
                }
            ],
            "stateMutability": "view",
            "type": "function"
        },
        {
            "inputs": [],
            "name": "claimWait",
            "outputs": [
                {
                    "internalType": "uint256",
                    "name": "",
                    "type": "uint256"
                }
            ],
            "stateMutability": "view",
            "type": "function"
        },
        {
            "inputs": [],
            "name": "decimals",
            "outputs": [
                {
                    "internalType": "uint8",
                    "name": "",
                    "type": "uint8"
                }
            ],
            "stateMutability": "view",
            "type": "function"
        },
        {
            "inputs": [
                {
                    "internalType": "address",
                    "name": "spender",
                    "type": "address"
                },
                {
                    "internalType": "uint256",
                    "name": "subtractedValue",
                    "type": "uint256"
                }
            ],
            "name": "decreaseAllowance",
            "outputs": [
                {
                    "internalType": "bool",
                    "name": "",
                    "type": "bool"
                }
            ],
            "stateMutability": "nonpayable",
            "type": "function"
        },
        {
            "inputs": [
                {
                    "internalType": "uint256",
                    "name": "amount",
                    "type": "uint256"
                }
            ],
            "name": "distributeCAKEDividends",
            "outputs": [],
            "stateMutability": "nonpayable",
            "type": "function"
        },
        {
            "inputs": [
                {
                    "internalType": "address",
                    "name": "_owner",
                    "type": "address"
                }
            ],
            "name": "dividendOf",
            "outputs": [
                {
                    "internalType": "uint256",
                    "name": "",
                    "type": "uint256"
                }
            ],
            "stateMutability": "view",
            "type": "function"
        },
        {
            "inputs": [
                {
                    "internalType": "address",
                    "name": "account",
                    "type": "address"
                }
            ],
            "name": "excludeFromDividends",
            "outputs": [],
            "stateMutability": "nonpayable",
            "type": "function"
        },
        {
            "inputs": [
                {
                    "internalType": "address",
                    "name": "",
                    "type": "address"
                }
            ],
            "name": "excludedFromDividends",
            "outputs": [
                {
                    "internalType": "bool",
                    "name": "",
                    "type": "bool"
                }
            ],
            "stateMutability": "view",
            "type": "function"
        },
        {
            "inputs": [
                {
                    "internalType": "address",
                    "name": "_account",
                    "type": "address"
                }
            ],
            "name": "getAccount",
            "outputs": [
                {
                    "internalType": "address",
                    "name": "account",
                    "type": "address"
                },
                {
                    "internalType": "int256",
                    "name": "index",
                    "type": "int256"
                },
                {
                    "internalType": "int256",
                    "name": "iterationsUntilProcessed",
                    "type": "int256"
                },
                {
                    "internalType": "uint256",
                    "name": "withdrawableDividends",
                    "type": "uint256"
                },
                {
                    "internalType": "uint256",
                    "name": "totalDividends",
                    "type": "uint256"
                },
                {
                    "internalType": "uint256",
                    "name": "lastClaimTime",
                    "type": "uint256"
                },
                {
                    "internalType": "uint256",
                    "name": "nextClaimTime",
                    "type": "uint256"
                },
                {
                    "internalType": "uint256",
                    "name": "secondsUntilAutoClaimAvailable",
                    "type": "uint256"
                }
            ],
            "stateMutability": "view",
            "type": "function"
        },
        {
            "inputs": [
                {
                    "internalType": "uint256",
                    "name": "index",
                    "type": "uint256"
                }
            ],
            "name": "getAccountAtIndex",
            "outputs": [
                {
                    "internalType": "address",
                    "name": "",
                    "type": "address"
                },
                {
                    "internalType": "int256",
                    "name": "",
                    "type": "int256"
                },
                {
                    "internalType": "int256",
                    "name": "",
                    "type": "int256"
                },
                {
                    "internalType": "uint256",
                    "name": "",
                    "type": "uint256"
                },
                {
                    "internalType": "uint256",
                    "name": "",
                    "type": "uint256"
                },
                {
                    "internalType": "uint256",
                    "name": "",
                    "type": "uint256"
                },
                {
                    "internalType": "uint256",
                    "name": "",
                    "type": "uint256"
                },
                {
                    "internalType": "uint256",
                    "name": "",
                    "type": "uint256"
                }
            ],
            "stateMutability": "view",
            "type": "function"
        },
        {
            "inputs": [],
            "name": "getLastProcessedIndex",
            "outputs": [
                {
                    "internalType": "uint256",
                    "name": "",
                    "type": "uint256"
                }
            ],
            "stateMutability": "view",
            "type": "function"
        },
        {
            "inputs": [],
            "name": "getNumberOfTokenHolders",
            "outputs": [
                {
                    "internalType": "uint256",
                    "name": "",
                    "type": "uint256"
                }
            ],
            "stateMutability": "view",
            "type": "function"
        },
        {
            "inputs": [
                {
                    "internalType": "address",
                    "name": "spender",
                    "type": "address"
                },
                {
                    "internalType": "uint256",
                    "name": "addedValue",
                    "type": "uint256"
                }
            ],
            "name": "increaseAllowance",
            "outputs": [
                {
                    "internalType": "bool",
                    "name": "",
                    "type": "bool"
                }
            ],
            "stateMutability": "nonpayable",
            "type": "function"
        },
        {
            "inputs": [
                {
                    "internalType": "address",
                    "name": "",
                    "type": "address"
                }
            ],
            "name": "lastClaimTimes",
            "outputs": [
                {
                    "internalType": "uint256",
                    "name": "",
                    "type": "uint256"
                }
            ],
            "stateMutability": "view",
            "type": "function"
        },
        {
            "inputs": [],
            "name": "lastProcessedIndex",
            "outputs": [
                {
                    "internalType": "uint256",
                    "name": "",
                    "type": "uint256"
                }
            ],
            "stateMutability": "view",
            "type": "function"
        },
        {
            "inputs": [],
            "name": "minimumTokenBalanceForDividends",
            "outputs": [
                {
                    "internalType": "uint256",
                    "name": "",
                    "type": "uint256"
                }
            ],
            "stateMutability": "view",
            "type": "function"
        },
        {
            "inputs": [],
            "name": "name",
            "outputs": [
                {
                    "internalType": "string",
                    "name": "",
                    "type": "string"
                }
            ],
            "stateMutability": "view",
            "type": "function"
        },
        {
            "inputs": [],
            "name": "owner",
            "outputs": [
                {
                    "internalType": "address",
                    "name": "",
                    "type": "address"
                }
            ],
            "stateMutability": "view",
            "type": "function"
        },
        {
            "inputs": [
                {
                    "internalType": "uint256",
                    "name": "gas",
                    "type": "uint256"
                }
            ],
            "name": "process",
            "outputs": [
                {
                    "internalType": "uint256",
                    "name": "",
                    "type": "uint256"
                },
                {
                    "internalType": "uint256",
                    "name": "",
                    "type": "uint256"
                },
                {
                    "internalType": "uint256",
                    "name": "",
                    "type": "uint256"
                }
            ],
            "stateMutability": "nonpayable",
            "type": "function"
        },
        {
            "inputs": [
                {
                    "internalType": "address payable",
                    "name": "account",
                    "type": "address"
                },
                {
                    "internalType": "bool",
                    "name": "automatic",
                    "type": "bool"
                }
            ],
            "name": "processAccount",
            "outputs": [
                {
                    "internalType": "bool",
                    "name": "",
                    "type": "bool"
                }
            ],
            "stateMutability": "nonpayable",
            "type": "function"
        },
        {
            "inputs": [],
            "name": "renounceOwnership",
            "outputs": [],
            "stateMutability": "nonpayable",
            "type": "function"
        },
        {
            "inputs": [
                {
                    "internalType": "address payable",
                    "name": "account",
                    "type": "address"
                },
                {
                    "internalType": "uint256",
                    "name": "newBalance",
                    "type": "uint256"
                }
            ],
            "name": "setBalance",
            "outputs": [],
            "stateMutability": "nonpayable",
            "type": "function"
        },
        {
            "inputs": [],
            "name": "symbol",
            "outputs": [
                {
                    "internalType": "string",
                    "name": "",
                    "type": "string"
                }
            ],
            "stateMutability": "view",
            "type": "function"
        },
        {
            "inputs": [],
            "name": "totalDividendsDistributed",
            "outputs": [
                {
                    "internalType": "uint256",
                    "name": "",
                    "type": "uint256"
                }
            ],
            "stateMutability": "view",
            "type": "function"
        },
        {
            "inputs": [],
            "name": "totalSupply",
            "outputs": [
                {
                    "internalType": "uint256",
                    "name": "",
                    "type": "uint256"
                }
            ],
            "stateMutability": "view",
            "type": "function"
        },
        {
            "inputs": [
                {
                    "internalType": "address",
                    "name": "recipient",
                    "type": "address"
                },
                {
                    "internalType": "uint256",
                    "name": "amount",
                    "type": "uint256"
                }
            ],
            "name": "transfer",
            "outputs": [
                {
                    "internalType": "bool",
                    "name": "",
                    "type": "bool"
                }
            ],
            "stateMutability": "nonpayable",
            "type": "function"
        },
        {
            "inputs": [
                {
                    "internalType": "address",
                    "name": "sender",
                    "type": "address"
                },
                {
                    "internalType": "address",
                    "name": "recipient",
                    "type": "address"
                },
                {
                    "internalType": "uint256",
                    "name": "amount",
                    "type": "uint256"
                }
            ],
            "name": "transferFrom",
            "outputs": [
                {
                    "internalType": "bool",
                    "name": "",
                    "type": "bool"
                }
            ],
            "stateMutability": "nonpayable",
            "type": "function"
        },
        {
            "inputs": [
                {
                    "internalType": "address",
                    "name": "newOwner",
                    "type": "address"
                }
            ],
            "name": "transferOwnership",
            "outputs": [],
            "stateMutability": "nonpayable",
            "type": "function"
        },
        {
            "inputs": [
                {
                    "internalType": "uint256",
                    "name": "newClaimWait",
                    "type": "uint256"
                }
            ],
            "name": "updateClaimWait",
            "outputs": [],
            "stateMutability": "nonpayable",
            "type": "function"
        },
        {
            "inputs": [],
            "name": "withdrawDividend",
            "outputs": [],
            "stateMutability": "nonpayable",
            "type": "function"
        },
        {
            "inputs": [
                {
                    "internalType": "address",
                    "name": "_owner",
                    "type": "address"
                }
            ],
            "name": "withdrawableDividendOf",
            "outputs": [
                {
                    "internalType": "uint256",
                    "name": "",
                    "type": "uint256"
                }
            ],
            "stateMutability": "view",
            "type": "function"
        },
        {
            "inputs": [
                {
                    "internalType": "address",
                    "name": "_owner",
                    "type": "address"
                }
            ],
            "name": "withdrawnDividendOf",
            "outputs": [
                {
                    "internalType": "uint256",
                    "name": "",
                    "type": "uint256"
                }
            ],
            "stateMutability": "view",
            "type": "function"
        }
    ],
    "bytecode": "60c06040527f0e09fabb73bd3ade0a17ecc321fd13a19e81ce820000000000000000000000006080523480156200003557600080fd5b5060408051808201825260178082527f4d6f6e7374615f4469766964656e645f547261636b65720000000000000000006020808401828152855180870190965292855284015260065482519293926001600160a01b039091169184918491620000a291600391906200015b565b508051620000b89060049060208401906200015b565b5050506000620000cd6200015760201b60201c565b600580546001600160a01b0319166001600160a01b038316908117909155604051919250906000907f8be0079c531659141344cd1fd0a4f28419497f9722a3daafe3b4186f6b6457e0908290a350600680546001600160a01b0319166001600160a01b039290921691909117905550506104b0601255692a5a058fc295ed00000060a052620001f7565b3390565b828054600181600116156101000203166002900490600052602060002090601f016020900481019282601f106200019e57805160ff1916838001178555620001ce565b82800160010185558215620001ce579182015b82811115620001ce578251825591602001919060010190620001b1565b50620001dc929150620001e0565b5090565b5b80821115620001dc5760008155600101620001e1565b60805160601c60a0516122b06200022860003980611060528061113d525080610acb5280611b1b52506122b06000f3fe608060405234801561001057600080fd5b50600436106102325760003560e01c806385a6b3ae11610130578063bc4c4b37116100b8578063e7841ec01161007c578063e7841ec0146106a1578063e98030c7146106a9578063f2fde38b146106c6578063fbcbc0f1146106ec578063ffb2c4791461071257610232565b8063bc4c4b3714610609578063be10b61414610637578063c3da42b81461063f578063dd62ed3e14610647578063e30443bc1461067557610232565b8063a457c2d7116100ff578063a457c2d714610548578063a8b9d24014610574578063a9059cbb1461059a578063aafd847a146105c6578063ba72a955146105ec57610232565b806385a6b3ae1461050a5780638da5cb5b1461051257806391b89fba1461051a57806395d89b411461054057610232565b806331e79db0116101be5780635183d6fd116101825780635183d6fd146104645780636a474002146104cc5780636f2789ec146104d457806370a08231146104dc578063715018a61461050257610232565b806331e79db0146103be57806339509351146103e65780634aaa7f0b146104125780634ca6ef28146104365780634e7b827f1461043e57610232565b8063226cfa3d11610205578063226cfa3d1461031657806323b872dd1461033c57806327ce0147146103725780633009a60914610398578063313ce567146103a057610232565b806306fdde0314610237578063095ea7b3146102b457806309bbedde146102f457806318160ddd1461030e575b600080fd5b61023f61074d565b6040805160208082528351818301528351919283929083019185019080838360005b83811015610279578181015183820152602001610261565b50505050905090810190601f1680156102a65780820380516001836020036101000a031916815260200191505b509250505060405180910390f35b6102e0600480360360408110156102ca57600080fd5b506001600160a01b0381351690602001356107e3565b604080519115158252519081900360200190f35b6102fc610801565b60408051918252519081900360200190f35b6102fc610807565b6102fc6004803603602081101561032c57600080fd5b50356001600160a01b031661080d565b6102e06004803603606081101561035257600080fd5b506001600160a01b0381358116916020810135909116906040013561081f565b6102fc6004803603602081101561038857600080fd5b50356001600160a01b03166108a6565b6102fc610905565b6103a861090b565b6040805160ff9092168252519081900360200190f35b6103e4600480360360208110156103d457600080fd5b50356001600160a01b0316610910565b005b6102e0600480360360408110156103fc57600080fd5b506001600160a01b038135169060200135610a6c565b61041a610aba565b604080516001600160a01b039092168252519081900360200190f35b61041a610ac9565b6102e06004803603602081101561045457600080fd5b50356001600160a01b0316610aed565b6104816004803603602081101561047a57600080fd5b5035610b02565b604080516001600160a01b0390991689526020890197909752878701959095526060870193909352608086019190915260a085015260c084015260e083015251908190036101000190f35b6103e4610c61565b6102fc610c98565b6102fc600480360360208110156104f257600080fd5b50356001600160a01b0316610c9e565b6103e4610cb9565b6102fc610d5b565b61041a610d61565b6102fc6004803603602081101561053057600080fd5b50356001600160a01b0316610d70565b61023f610d7b565b6102e06004803603604081101561055e57600080fd5b506001600160a01b038135169060200135610ddc565b6102fc6004803603602081101561058a57600080fd5b50356001600160a01b0316610e44565b6102e0600480360360408110156105b057600080fd5b506001600160a01b038135169060200135610e70565b6102fc600480360360208110156105dc57600080fd5b50356001600160a01b0316610e84565b6103e46004803603602081101561060257600080fd5b5035610e9f565b6102e06004803603604081101561061f57600080fd5b506001600160a01b0381351690602001351515610f89565b6102fc61105e565b6102e0611082565b6102fc6004803603604081101561065d57600080fd5b506001600160a01b0381358116916020013516611092565b6103e46004803603604081101561068b57600080fd5b506001600160a01b0381351690602001356110bd565b6102fc611287565b6103e4600480360360208110156106bf57600080fd5b503561128d565b6103e4600480360360208110156106dc57600080fd5b50356001600160a01b03166113a9565b6104816004803603602081101561070257600080fd5b50356001600160a01b03166114a2565b61072f6004803603602081101561072857600080fd5b5035611615565b60408051938452602084019290925282820152519081900360600190f35b60038054604080516020601f60026000196101006001881615020190951694909404938401819004810282018101909252828152606093909290918301828280156107d95780601f106107ae576101008083540402835291602001916107d9565b820191906000526020600020905b8154815290600101906020018083116107bc57829003601f168201915b5050505050905090565b60006107f76107f0611713565b8484611717565b5060015b92915050565b600b5490565b60025490565b60116020526000908152604090205481565b600061082c848484611803565b61089c84610838611713565b610897856040518060600160405280602881526020016121c9602891396001600160a01b038a16600090815260016020526040812090610876611713565b6001600160a01b03168152602081019190915260400160002054919061183a565b611717565b5060019392505050565b6001600160a01b038116600090815260086020526040812054600160801b906108f5906108f0906108ea6108e56108dc88610c9e565b600754906118d1565b611931565b90611941565b611974565b816108fc57fe5b0490505b919050565b600f5481565b601290565b610918611713565b6005546001600160a01b03908116911614610968576040805162461bcd60e51b815260206004820181905260248201526000805160206121f1833981519152604482015290519081900360640190fd5b6001600160a01b03811660009081526010602052604090205460ff161561098e57600080fd5b6001600160a01b0381166000908152601060205260408120805460ff191660011790556109bc908290611987565b6040805163131836e760e21b8152600b60048201526001600160a01b0383166024820152905173__$d5b3ccc65cce442d78f3b5c2e2932154fa$__91634c60db9c916044808301926000929190829003018186803b158015610a1d57600080fd5b505af4158015610a31573d6000803e3d6000fd5b50506040516001600160a01b03841692507fa878b31040b2e6d0a9a3d3361209db3908ba62014b0dca52adbaee451d128b259150600090a250565b60006107f7610a79611713565b846108978560016000610a8a611713565b6001600160a01b03908116825260208083019390935260409182016000908120918c1681529252902054906119e0565b6006546001600160a01b031681565b7f000000000000000000000000000000000000000000000000000000000000000081565b60106020526000908152604090205460ff1681565b600080600080600080600080600b73__$d5b3ccc65cce442d78f3b5c2e2932154fa$__63deb3d89690916040518263ffffffff1660e01b81526004018082815260200191505060206040518083038186803b158015610b6057600080fd5b505af4158015610b74573d6000803e3d6000fd5b505050506040513d6020811015610b8a57600080fd5b50518910610bb1575060009650600019955085945086935083925082915081905080610c56565b6000600b73__$d5b3ccc65cce442d78f3b5c2e2932154fa$__63d1aa9e7e90918c6040518363ffffffff1660e01b8152600401808381526020018281526020019250505060206040518083038186803b158015610c0d57600080fd5b505af4158015610c21573d6000803e3d6000fd5b505050506040513d6020811015610c3757600080fd5b50519050610c44816114a2565b98509850985098509850985098509850505b919395975091939597565b60405162461bcd60e51b815260040180806020018281038252606d8152602001806120cc606d913960800191505060405180910390fd5b60125481565b6001600160a01b031660009081526020819052604090205490565b610cc1611713565b6005546001600160a01b03908116911614610d11576040805162461bcd60e51b815260206004820181905260248201526000805160206121f1833981519152604482015290519081900360640190fd5b6005546040516000916001600160a01b0316907f8be0079c531659141344cd1fd0a4f28419497f9722a3daafe3b4186f6b6457e0908390a3600580546001600160a01b0319169055565b600a5481565b6005546001600160a01b031690565b60006107fb82610e44565b60048054604080516020601f60026000196101006001881615020190951694909404938401819004810282018101909252828152606093909290918301828280156107d95780601f106107ae576101008083540402835291602001916107d9565b60006107f7610de9611713565b84610897856040518060600160405280602581526020016122566025913960016000610e13611713565b6001600160a01b03908116825260208083019390935260409182016000908120918d1681529252902054919061183a565b6001600160a01b0381166000908152600960205260408120546107fb90610e6a846108a6565b90611a3a565b60006107f7610e7d611713565b8484611803565b6001600160a01b031660009081526009602052604090205490565b610ea7611713565b6005546001600160a01b03908116911614610ef7576040805162461bcd60e51b815260206004820181905260248201526000805160206121f1833981519152604482015290519081900360640190fd5b6000610f01610807565b11610f0b57600080fd5b8015610f8657610f3c610f1c610807565b610f2a83600160801b6118d1565b81610f3157fe5b6007549190046119e0565b60075560408051828152905133917fa493a9229478c3fcd73f66d2cdeb7f94fd0f341da924d1054236d78454116511919081900360200190a2600a54610f8290826119e0565b600a555b50565b6000610f93611713565b6005546001600160a01b03908116911614610fe3576040805162461bcd60e51b815260206004820181905260248201526000805160206121f1833981519152604482015290519081900360640190fd5b6000610fee84611a7c565b90508015611054576001600160a01b0384166000818152601160209081526040918290204290558151848152915186151593927fa2c38e2d2fb7e3e1912d937fd1ca11ed6d51864dee4cfa7a7bf02becd7acf09292908290030190a360019150506107fb565b5060009392505050565b7f000000000000000000000000000000000000000000000000000000000000000081565b600654600160a01b900460ff1681565b6001600160a01b03918216600090815260016020908152604080832093909416825291909152205490565b6110c5611713565b6005546001600160a01b03908116911614611115576040805162461bcd60e51b815260206004820181905260248201526000805160206121f1833981519152604482015290519081900360640190fd5b6001600160a01b03821660009081526010602052604090205460ff161561113b57611283565b7f000000000000000000000000000000000000000000000000000000000000000081106111f15761116c8282611987565b60408051632f0ad01760e21b8152600b60048201526001600160a01b038416602482015260448101839052905173__$d5b3ccc65cce442d78f3b5c2e2932154fa$__9163bc2b405c916064808301926000929190829003018186803b1580156111d457600080fd5b505af41580156111e8573d6000803e3d6000fd5b50505050611276565b6111fc826000611987565b6040805163131836e760e21b8152600b60048201526001600160a01b0384166024820152905173__$d5b3ccc65cce442d78f3b5c2e2932154fa$__91634c60db9c916044808301926000929190829003018186803b15801561125d57600080fd5b505af4158015611271573d6000803e3d6000fd5b505050505b611281826001610f89565b505b5050565b600f5490565b611295611713565b6005546001600160a01b039081169116146112e5576040805162461bcd60e51b815260206004820181905260248201526000805160206121f1833981519152604482015290519081900360640190fd5b610e1081101580156112fa5750620151808111155b6113355760405162461bcd60e51b815260040180806020018281038252604e81526020018061207e604e913960600191505060405180910390fd5b6012548114156113765760405162461bcd60e51b81526004018080602001828103825260408152602001806121396040913960400191505060405180910390fd5b60125460405182907f474ea64804364a1e29a4487ddb63c3342a2dd826ccd8acf48825e680a0e6f20f90600090a3601255565b6113b1611713565b6005546001600160a01b03908116911614611401576040805162461bcd60e51b815260206004820181905260248201526000805160206121f1833981519152604482015290519081900360640190fd5b6001600160a01b0381166114465760405162461bcd60e51b81526004018080602001828103825260268152602001806120366026913960400191505060405180910390fd5b6005546040516001600160a01b038084169216907f8be0079c531659141344cd1fd0a4f28419497f9722a3daafe3b4186f6b6457e090600090a3600580546001600160a01b0319166001600160a01b0392909216919091179055565b600080600080600080600080889750600b73__$d5b3ccc65cce442d78f3b5c2e2932154fa$__6317e142d190918a6040518363ffffffff1660e01b815260040180838152602001826001600160a01b031681526020019250505060206040518083038186803b15801561151457600080fd5b505af4158015611528573d6000803e3d6000fd5b505050506040513d602081101561153e57600080fd5b505196506000199550600087126115a257600f5487111561156e57600f54611567908890611d26565b95506115a2565b600f54600b5460009110611583576000611592565b600f54600b5461159291611a3a565b905061159e8882611941565b9650505b6115ab88610e44565b94506115b6886108a6565b6001600160a01b0389166000908152601160205260409020549094509250826115e05760006115ee565b6012546115ee9084906119e0565b91504282116115fe576000611608565b6116088242611a3a565b9050919395975091939597565b600b546000908190819080611635575050600f546000925082915061170c565b600f546000805a90506000805b898410801561165057508582105b156116fb57600b54600190950194851061166957600094505b6000600b600001868154811061167b57fe5b60009182526020808320909101546001600160a01b031680835260119091526040909120549091506116ac90611d58565b156116c8576116bc816001610f89565b156116c8576001909101905b60019092019160005a9050808511156116f2576116ef6116e88683611a3a565b87906119e0565b95505b93506116429050565b600f85905590975095509193505050505b9193909250565b3390565b6001600160a01b03831661175c5760405162461bcd60e51b81526004018080602001828103825260248152602001806122326024913960400191505060405180910390fd5b6001600160a01b0382166117a15760405162461bcd60e51b815260040180806020018281038252602281526020018061205c6022913960400191505060405180910390fd5b6001600160a01b03808416600081815260016020908152604080832094871680845294825291829020859055815185815291517f8c5be1e5ebec7d5bd14f71427d1e84f3dd0314c0f7b2291e5b200ac8c7c3b9259281900390910190a3505050565b60405162461bcd60e51b815260040180806020018281038252602f815260200180612179602f913960400191505060405180910390fd5b600081848411156118c95760405162461bcd60e51b81526004018080602001828103825283818151815260200191508051906020019080838360005b8381101561188e578181015183820152602001611876565b50505050905090810190601f1680156118bb5780820380516001836020036101000a031916815260200191505b509250505060405180910390fd5b505050900390565b6000826118e0575060006107fb565b828202828482816118ed57fe5b041461192a5760405162461bcd60e51b81526004018080602001828103825260218152602001806121a86021913960400191505060405180910390fd5b9392505050565b600081818112156107fb57600080fd5b60008282018183128015906119565750838112155b8061196b575060008312801561196b57508381125b61192a57600080fd5b60008082121561198357600080fd5b5090565b600061199283610c9e565b9050808211156119ba5760006119a88383611a3a565b90506119b48482611d7f565b50611281565b808210156112815760006119ce8284611a3a565b90506119da8482611de3565b50505050565b60008282018381101561192a576040805162461bcd60e51b815260206004820152601b60248201527f536166654d6174683a206164646974696f6e206f766572666c6f770000000000604482015290519081900360640190fd5b600061192a83836040518060400160405280601e81526020017f536166654d6174683a207375627472616374696f6e206f766572666c6f77000081525061183a565b600080611a8883610e44565b90508015611d1d576001600160a01b038316600090815260096020526040902054611ab390826119e0565b6001600160a01b038416600081815260096020908152604091829020939093558051848152905191927fee503bee2bb6a87e57bc57db795f98137327401a0e7b7ce42e37926cc1a9ca4d92918290030190a2600654600160a01b900460ff1615611c2e5760007f00000000000000000000000000000000000000000000000000000000000000006001600160a01b031663a9059cbb85846040518363ffffffff1660e01b815260040180836001600160a01b0316815260200182815260200192505050602060405180830381600087803b158015611b9057600080fd5b505af1158015611ba4573d6000803e3d6000fd5b505050506040513d6020811015611bba57600080fd5b50516006805460ff60a01b19169055905080611c2c576001600160a01b038416600090815260096020526040902054611bf39083611a3a565b6001600160a01b0385166000908152600960205260408120919091556006805460ff60a01b1916600160a01b1790559250610900915050565b505b600654600160a01b900460ff16611d16576006546040805163a9059cbb60e01b81526001600160a01b038681166004830152602482018590529151600093929092169163a9059cbb9160448082019260209290919082900301818787803b158015611c9857600080fd5b505af1158015611cac573d6000803e3d6000fd5b505050506040513d6020811015611cc257600080fd5b5051905080611d14576001600160a01b038416600090815260096020526040902054611cee9083611a3a565b6001600160a01b0385166000908152600960205260408120919091559250610900915050565b505b9050610900565b50600092915050565b6000818303818312801590611d3b5750838113155b8061196b575060008312801561196b575083811361192a57600080fd5b600042821115611d6a57506000610900565b601254611d774284611a3a565b101592915050565b611d898282611e27565b611dc3611da46108e5836007546118d190919063ffffffff16565b6001600160a01b03841660009081526008602052604090205490611d26565b6001600160a01b0390921660009081526008602052604090209190915550565b611ded8282611f17565b611dc3611e086108e5836007546118d190919063ffffffff16565b6001600160a01b03841660009081526008602052604090205490611941565b6001600160a01b038216611e82576040805162461bcd60e51b815260206004820152601f60248201527f45524332303a206d696e7420746f20746865207a65726f206164647265737300604482015290519081900360640190fd5b611e8e60008383611281565b600254611e9b90826119e0565b6002556001600160a01b038216600090815260208190526040902054611ec190826119e0565b6001600160a01b0383166000818152602081815260408083209490945583518581529351929391927fddf252ad1be2c89b69c2b068fc378daa952ba7f163c4a11628f55a4df523b3ef9281900390910190a35050565b6001600160a01b038216611f5c5760405162461bcd60e51b81526004018080602001828103825260218152602001806122116021913960400191505060405180910390fd5b611f6882600083611281565b611fa581604051806060016040528060228152602001612014602291396001600160a01b038516600090815260208190526040902054919061183a565b6001600160a01b038316600090815260208190526040902055600254611fcb9082611a3a565b6002556040805182815290516000916001600160a01b038516917fddf252ad1be2c89b69c2b068fc378daa952ba7f163c4a11628f55a4df523b3ef9181900360200190a3505056fe45524332303a206275726e20616d6f756e7420657863656564732062616c616e63654f776e61626c653a206e6577206f776e657220697320746865207a65726f206164647265737345524332303a20617070726f766520746f20746865207a65726f20616464726573734241425943414b455f4469766964656e645f547261636b65723a20636c61696d57616974206d757374206265207570646174656420746f206265747765656e203120616e6420323420686f7572734241425943414b455f4469766964656e645f547261636b65723a2077697468647261774469766964656e642064697361626c65642e20557365207468652027636c61696d272066756e6374696f6e206f6e20746865206d61696e204241425943414b4520636f6e74726163742e4241425943414b455f4469766964656e645f547261636b65723a2043616e6e6f742075706461746520636c61696d5761697420746f2073616d652076616c75654241425943414b455f4469766964656e645f547261636b65723a204e6f207472616e736665727320616c6c6f776564536166654d6174683a206d756c7469706c69636174696f6e206f766572666c6f7745524332303a207472616e7366657220616d6f756e74206578636565647320616c6c6f77616e63654f776e61626c653a2063616c6c6572206973206e6f7420746865206f776e657245524332303a206275726e2066726f6d20746865207a65726f206164647265737345524332303a20617070726f76652066726f6d20746865207a65726f206164647265737345524332303a2064656372656173656420616c6c6f77616e63652062656c6f77207a65726fa264697066735822122087be3600300ce4032a9b94b2e354d24dfccce490eef7003cafb6a738d099d86964736f6c634300060c0033",
    "sourcePath": "/home/null/Desktop/BABYCAKE/Monsta.sol",
    "compiler": {
        "name": "solc",
        "version": "0.6.12+commit.27d51765"
    },
    "functionHashes": {
        "CAKE()": "4ca6ef28",
        "Monsta()": "4aaa7f0b",
        "accumulativeDividendOf(address)": "27ce0147",
        "allowance(address,address)": "dd62ed3e",
        "approve(address,uint256)": "095ea7b3",
        "balanceOf(address)": "70a08231",
        "c()": "c3da42b8",
        "claimWait()": "6f2789ec",
        "decimals()": "313ce567",
        "decreaseAllowance(address,uint256)": "a457c2d7",
        "distributeCAKEDividends(uint256)": "ba72a955",
        "dividendOf(address)": "91b89fba",
        "excludeFromDividends(address)": "31e79db0",
        "excludedFromDividends(address)": "4e7b827f",
        "getAccount(address)": "fbcbc0f1",
        "getAccountAtIndex(uint256)": "5183d6fd",
        "getLastProcessedIndex()": "e7841ec0",
        "getNumberOfTokenHolders()": "09bbedde",
        "increaseAllowance(address,uint256)": "39509351",
        "lastClaimTimes(address)": "226cfa3d",
        "lastProcessedIndex()": "3009a609",
        "minimumTokenBalanceForDividends()": "be10b614",
        "name()": "06fdde03",
        "owner()": "8da5cb5b",
        "process(uint256)": "ffb2c479",
        "processAccount(address,bool)": "bc4c4b37",
        "renounceOwnership()": "715018a6",
        "setBalance(address,uint256)": "e30443bc",
        "symbol()": "95d89b41",
        "totalDividendsDistributed()": "85a6b3ae",
        "totalSupply()": "18160ddd",
        "transfer(address,uint256)": "a9059cbb",
        "transferFrom(address,address,uint256)": "23b872dd",
        "transferOwnership(address)": "f2fde38b",
        "updateClaimWait(uint256)": "e98030c7",
        "withdrawDividend()": "6a474002",
        "withdrawableDividendOf(address)": "a8b9d240",
        "withdrawnDividendOf(address)": "aafd847a"
    },
    "gasEstimates": {
        "creation": {
            "codeDepositCost": "1776000",
            "executionCost": "infinite",
            "totalCost": "infinite"
        },
        "external": {
            "CAKE()": "infinite",
            "Monsta()": "1127",
            "accumulativeDividendOf(address)": "infinite",
            "allowance(address,address)": "1361",
            "approve(address,uint256)": "infinite",
            "balanceOf(address)": "1256",
            "c()": "1116",
            "claimWait()": "1087",
            "decimals()": "341",
            "decreaseAllowance(address,uint256)": "infinite",
            "distributeCAKEDividends(uint256)": "infinite",
            "dividendOf(address)": "infinite",
            "excludeFromDividends(address)": "infinite",
            "excludedFromDividends(address)": "1270",
            "getAccount(address)": "infinite",
            "getAccountAtIndex(uint256)": "infinite",
            "getLastProcessedIndex()": "1042",
            "getNumberOfTokenHolders()": "1089",
            "increaseAllowance(address,uint256)": "infinite",
            "lastClaimTimes(address)": "1170",
            "lastProcessedIndex()": "1110",
            "minimumTokenBalanceForDividends()": "infinite",
            "name()": "infinite",
            "owner()": "1105",
            "process(uint256)": "infinite",
            "processAccount(address,bool)": "infinite",
            "renounceOwnership()": "infinite",
            "setBalance(address,uint256)": "infinite",
            "symbol()": "infinite",
            "totalDividendsDistributed()": "1044",
            "totalSupply()": "1111",
            "transfer(address,uint256)": "infinite",
            "transferFrom(address,address,uint256)": "infinite",
            "transferOwnership(address)": "infinite",
            "updateClaimWait(uint256)": "infinite",
            "withdrawDividend()": "infinite",
            "withdrawableDividendOf(address)": "infinite",
            "withdrawnDividendOf(address)": "1253"
        },
        "internal": {
            "_transfer(address,address,uint256)": "infinite",
            "canAutoClaim(uint256)": "infinite"
        }
    }
}