{
    "contractName": "DividendPayingToken",
    "abi": [
        {
            "inputs": [
                {
                    "internalType": "string",
                    "name": "_name",
                    "type": "string"
                },
                {
                    "internalType": "string",
                    "name": "_symbol",
                    "type": "string"
                }
            ],
            "stateMutability": "nonpayable",
            "type": "constructor"
        },
        {
            "anonymous": false,
            "inputs": [
                {
                    "indexed": true,
                    "internalType": "address",
                    "name": "owner",
                    "type": "address"
                },
                {
                    "indexed": true,
                    "internalType": "address",
                    "name": "spender",
                    "type": "address"
                },
                {
                    "indexed": false,
                    "internalType": "uint256",
                    "name": "value",
                    "type": "uint256"
                }
            ],
            "name": "Approval",
            "type": "event"
        },
        {
            "anonymous": false,
            "inputs": [
                {
                    "indexed": true,
                    "internalType": "address",
                    "name": "to",
                    "type": "address"
                },
                {
                    "indexed": false,
                    "internalType": "uint256",
                    "name": "weiAmount",
                    "type": "uint256"
                }
            ],
            "name": "DividendWithdrawn",
            "type": "event"
        },
        {
            "anonymous": false,
            "inputs": [
                {
                    "indexed": true,
                    "internalType": "address",
                    "name": "from",
                    "type": "address"
                },
                {
                    "indexed": false,
                    "internalType": "uint256",
                    "name": "weiAmount",
                    "type": "uint256"
                }
            ],
            "name": "DividendsDistributed",
            "type": "event"
        },
        {
            "anonymous": false,
            "inputs": [
                {
                    "indexed": true,
                    "internalType": "address",
                    "name": "previousOwner",
                    "type": "address"
                },
                {
                    "indexed": true,
                    "internalType": "address",
                    "name": "newOwner",
                    "type": "address"
                }
            ],
            "name": "OwnershipTransferred",
            "type": "event"
        },
        {
            "anonymous": false,
            "inputs": [
                {
                    "indexed": true,
                    "internalType": "address",
                    "name": "from",
                    "type": "address"
                },
                {
                    "indexed": true,
                    "internalType": "address",
                    "name": "to",
                    "type": "address"
                },
                {
                    "indexed": false,
                    "internalType": "uint256",
                    "name": "value",
                    "type": "uint256"
                }
            ],
            "name": "Transfer",
            "type": "event"
        },
        {
            "inputs": [],
            "name": "CAKE",
            "outputs": [
                {
                    "internalType": "address",
                    "name": "",
                    "type": "address"
                }
            ],
            "stateMutability": "view",
            "type": "function"
        },
        {
            "inputs": [],
            "name": "Monsta",
            "outputs": [
                {
                    "internalType": "address",
                    "name": "",
                    "type": "address"
                }
            ],
            "stateMutability": "view",
            "type": "function"
        },
        {
            "inputs": [
                {
                    "internalType": "address",
                    "name": "_owner",
                    "type": "address"
                }
            ],
            "name": "accumulativeDividendOf",
            "outputs": [
                {
                    "internalType": "uint256",
                    "name": "",
                    "type": "uint256"
                }
            ],
            "stateMutability": "view",
            "type": "function"
        },
        {
            "inputs": [
                {
                    "internalType": "address",
                    "name": "owner",
                    "type": "address"
                },
                {
                    "internalType": "address",
                    "name": "spender",
                    "type": "address"
                }
            ],
            "name": "allowance",
            "outputs": [
                {
                    "internalType": "uint256",
                    "name": "",
                    "type": "uint256"
                }
            ],
            "stateMutability": "view",
            "type": "function"
        },
        {
            "inputs": [
                {
                    "internalType": "address",
                    "name": "spender",
                    "type": "address"
                },
                {
                    "internalType": "uint256",
                    "name": "amount",
                    "type": "uint256"
                }
            ],
            "name": "approve",
            "outputs": [
                {
                    "internalType": "bool",
                    "name": "",
                    "type": "bool"
                }
            ],
            "stateMutability": "nonpayable",
            "type": "function"
        },
        {
            "inputs": [
                {
                    "internalType": "address",
                    "name": "account",
                    "type": "address"
                }
            ],
            "name": "balanceOf",
            "outputs": [
                {
                    "internalType": "uint256",
                    "name": "",
                    "type": "uint256"
                }
            ],
            "stateMutability": "view",
            "type": "function"
        },
        {
            "inputs": [],
            "name": "c",
            "outputs": [
                {
                    "internalType": "bool",
                    "name": "",
                    "type": "bool"
                }
            ],
            "stateMutability": "view",
            "type": "function"
        },
        {
            "inputs": [],
            "name": "decimals",
            "outputs": [
                {
                    "internalType": "uint8",
                    "name": "",
                    "type": "uint8"
                }
            ],
            "stateMutability": "view",
            "type": "function"
        },
        {
            "inputs": [
                {
                    "internalType": "address",
                    "name": "spender",
                    "type": "address"
                },
                {
                    "internalType": "uint256",
                    "name": "subtractedValue",
                    "type": "uint256"
                }
            ],
            "name": "decreaseAllowance",
            "outputs": [
                {
                    "internalType": "bool",
                    "name": "",
                    "type": "bool"
                }
            ],
            "stateMutability": "nonpayable",
            "type": "function"
        },
        {
            "inputs": [
                {
                    "internalType": "uint256",
                    "name": "amount",
                    "type": "uint256"
                }
            ],
            "name": "distributeCAKEDividends",
            "outputs": [],
            "stateMutability": "nonpayable",
            "type": "function"
        },
        {
            "inputs": [
                {
                    "internalType": "address",
                    "name": "_owner",
                    "type": "address"
                }
            ],
            "name": "dividendOf",
            "outputs": [
                {
                    "internalType": "uint256",
                    "name": "",
                    "type": "uint256"
                }
            ],
            "stateMutability": "view",
            "type": "function"
        },
        {
            "inputs": [
                {
                    "internalType": "address",
                    "name": "spender",
                    "type": "address"
                },
                {
                    "internalType": "uint256",
                    "name": "addedValue",
                    "type": "uint256"
                }
            ],
            "name": "increaseAllowance",
            "outputs": [
                {
                    "internalType": "bool",
                    "name": "",
                    "type": "bool"
                }
            ],
            "stateMutability": "nonpayable",
            "type": "function"
        },
        {
            "inputs": [],
            "name": "name",
            "outputs": [
                {
                    "internalType": "string",
                    "name": "",
                    "type": "string"
                }
            ],
            "stateMutability": "view",
            "type": "function"
        },
        {
            "inputs": [],
            "name": "owner",
            "outputs": [
                {
                    "internalType": "address",
                    "name": "",
                    "type": "address"
                }
            ],
            "stateMutability": "view",
            "type": "function"
        },
        {
            "inputs": [],
            "name": "renounceOwnership",
            "outputs": [],
            "stateMutability": "nonpayable",
            "type": "function"
        },
        {
            "inputs": [],
            "name": "symbol",
            "outputs": [
                {
                    "internalType": "string",
                    "name": "",
                    "type": "string"
                }
            ],
            "stateMutability": "view",
            "type": "function"
        },
        {
            "inputs": [],
            "name": "totalDividendsDistributed",
            "outputs": [
                {
                    "internalType": "uint256",
                    "name": "",
                    "type": "uint256"
                }
            ],
            "stateMutability": "view",
            "type": "function"
        },
        {
            "inputs": [],
            "name": "totalSupply",
            "outputs": [
                {
                    "internalType": "uint256",
                    "name": "",
                    "type": "uint256"
                }
            ],
            "stateMutability": "view",
            "type": "function"
        },
        {
            "inputs": [
                {
                    "internalType": "address",
                    "name": "recipient",
                    "type": "address"
                },
                {
                    "internalType": "uint256",
                    "name": "amount",
                    "type": "uint256"
                }
            ],
            "name": "transfer",
            "outputs": [
                {
                    "internalType": "bool",
                    "name": "",
                    "type": "bool"
                }
            ],
            "stateMutability": "nonpayable",
            "type": "function"
        },
        {
            "inputs": [
                {
                    "internalType": "address",
                    "name": "sender",
                    "type": "address"
                },
                {
                    "internalType": "address",
                    "name": "recipient",
                    "type": "address"
                },
                {
                    "internalType": "uint256",
                    "name": "amount",
                    "type": "uint256"
                }
            ],
            "name": "transferFrom",
            "outputs": [
                {
                    "internalType": "bool",
                    "name": "",
                    "type": "bool"
                }
            ],
            "stateMutability": "nonpayable",
            "type": "function"
        },
        {
            "inputs": [
                {
                    "internalType": "address",
                    "name": "newOwner",
                    "type": "address"
                }
            ],
            "name": "transferOwnership",
            "outputs": [],
            "stateMutability": "nonpayable",
            "type": "function"
        },
        {
            "inputs": [],
            "name": "withdrawDividend",
            "outputs": [],
            "stateMutability": "nonpayable",
            "type": "function"
        },
        {
            "inputs": [
                {
                    "internalType": "address",
                    "name": "_owner",
                    "type": "address"
                }
            ],
            "name": "withdrawableDividendOf",
            "outputs": [
                {
                    "internalType": "uint256",
                    "name": "",
                    "type": "uint256"
                }
            ],
            "stateMutability": "view",
            "type": "function"
        },
        {
            "inputs": [
                {
                    "internalType": "address",
                    "name": "_owner",
                    "type": "address"
                }
            ],
            "name": "withdrawnDividendOf",
            "outputs": [
                {
                    "internalType": "uint256",
                    "name": "",
                    "type": "uint256"
                }
            ],
            "stateMutability": "view",
            "type": "function"
        }
    ],
    "bytecode": "60a06040527f0e09fabb73bd3ade0a17ecc321fd13a19e81ce82000000000000000000000000608052600680546001600160a01b031916738a5d7fcd4c90421d21d30fcc4435948ac3618b2f1790553480156200005b57600080fd5b50604051620014f8380380620014f8833981810160405260408110156200008157600080fd5b8101908080516040519392919084640100000000821115620000a257600080fd5b908301906020820185811115620000b857600080fd5b8251640100000000811182820188101715620000d357600080fd5b82525081516020918201929091019080838360005b8381101562000102578181015183820152602001620000e8565b50505050905090810190601f168015620001305780820380516001836020036101000a031916815260200191505b50604052602001805160405193929190846401000000008211156200015457600080fd5b9083019060208201858111156200016a57600080fd5b82516401000000008111828201881017156200018557600080fd5b82525081516020918201929091019080838360005b83811015620001b45781810151838201526020016200019a565b50505050905090810190601f168015620001e25780820380516001836020036101000a031916815260200191505b506040525050825183915082906200020290600390602085019062000287565b5080516200021890600490602084019062000287565b50505060006200022d6200028360201b60201c565b600580546001600160a01b0319166001600160a01b038316908117909155604051919250906000907f8be0079c531659141344cd1fd0a4f28419497f9722a3daafe3b4186f6b6457e0908290a350505062000323565b3390565b828054600181600116156101000203166002900490600052602060002090601f016020900481019282601f10620002ca57805160ff1916838001178555620002fa565b82800160010185558215620002fa579182015b82811115620002fa578251825591602001919060010190620002dd565b50620003089291506200030c565b5090565b5b808211156200030857600081556001016200030d565b60805160601c6111b2620003466000398061069d5280610e5552506111b26000f3fe608060405234801561001057600080fd5b50600436106101585760003560e01c806385a6b3ae116100c3578063a9059cbb1161007c578063a9059cbb146103ce578063aafd847a146103fa578063ba72a95514610420578063c3da42b81461043d578063dd62ed3e14610445578063f2fde38b1461047357610158565b806385a6b3ae1461033e5780638da5cb5b1461034657806391b89fba1461034e57806395d89b4114610374578063a457c2d71461037c578063a8b9d240146103a857610158565b8063395093511161011557806339509351146102ae5780634aaa7f0b146102da5780634ca6ef28146102fe5780636a4740021461030657806370a0823114610310578063715018a61461033657610158565b806306fdde031461015d578063095ea7b3146101da57806318160ddd1461021a57806323b872dd1461023457806327ce01471461026a578063313ce56714610290575b600080fd5b610165610499565b6040805160208082528351818301528351919283929083019185019080838360005b8381101561019f578181015183820152602001610187565b50505050905090810190601f1680156101cc5780820380516001836020036101000a031916815260200191505b509250505060405180910390f35b610206600480360360408110156101f057600080fd5b506001600160a01b03813516906020013561052f565b604080519115158252519081900360200190f35b61022261054d565b60408051918252519081900360200190f35b6102066004803603606081101561024a57600080fd5b506001600160a01b03813581169160208101359091169060400135610553565b6102226004803603602081101561028057600080fd5b50356001600160a01b03166105da565b610298610639565b6040805160ff9092168252519081900360200190f35b610206600480360360408110156102c457600080fd5b506001600160a01b03813516906020013561063e565b6102e261068c565b604080516001600160a01b039092168252519081900360200190f35b6102e261069b565b61030e6106bf565b005b6102226004803603602081101561032657600080fd5b50356001600160a01b03166106cb565b61030e6106e6565b61022261079a565b6102e26107a0565b6102226004803603602081101561036457600080fd5b50356001600160a01b03166107af565b6101656107ba565b6102066004803603604081101561039257600080fd5b506001600160a01b03813516906020013561081b565b610222600480360360208110156103be57600080fd5b50356001600160a01b0316610883565b610206600480360360408110156103e457600080fd5b506001600160a01b0381351690602001356108af565b6102226004803603602081101561041057600080fd5b50356001600160a01b03166108c3565b61030e6004803603602081101561043657600080fd5b50356108de565b6102066109d9565b6102226004803603604081101561045b57600080fd5b506001600160a01b03813581169160200135166109e9565b61030e6004803603602081101561048957600080fd5b50356001600160a01b0316610a14565b60038054604080516020601f60026000196101006001881615020190951694909404938401819004810282018101909252828152606093909290918301828280156105255780601f106104fa57610100808354040283529160200191610525565b820191906000526020600020905b81548152906001019060200180831161050857829003601f168201915b5050505050905090565b600061054361053c610b1f565b8484610b23565b5060015b92915050565b60025490565b6000610560848484610158565b6105d08461056c610b1f565b6105cb8560405180606001604052806028815260200161110c602891396001600160a01b038a166000908152600160205260408120906105aa610b1f565b6001600160a01b031681526020810191909152604001600020549190610c0f565b610b23565b5060019392505050565b6001600160a01b038116600090815260086020526040812054600160801b90610629906106249061061e610619610610886106cb565b60075490610ca6565b610d06565b90610d16565b610d49565b8161063057fe5b0490505b919050565b601290565b600061054361064b610b1f565b846105cb856001600061065c610b1f565b6001600160a01b03908116825260208083019390935260409182016000908120918c168152925290205490610d5c565b6006546001600160a01b031681565b7f000000000000000000000000000000000000000000000000000000000000000081565b6106c833610db6565b50565b6001600160a01b031660009081526020819052604090205490565b6106ee610b1f565b6005546001600160a01b03908116911614610750576040805162461bcd60e51b815260206004820181905260248201527f4f776e61626c653a2063616c6c6572206973206e6f7420746865206f776e6572604482015290519081900360640190fd5b6005546040516000916001600160a01b0316907f8be0079c531659141344cd1fd0a4f28419497f9722a3daafe3b4186f6b6457e0908390a3600580546001600160a01b0319169055565b600a5481565b6005546001600160a01b031690565b600061054782610883565b60048054604080516020601f60026000196101006001881615020190951694909404938401819004810282018101909252828152606093909290918301828280156105255780601f106104fa57610100808354040283529160200191610525565b6000610543610828610b1f565b846105cb856040518060600160405280602581526020016111586025913960016000610852610b1f565b6001600160a01b03908116825260208083019390935260409182016000908120918d16815292529020549190610c0f565b6001600160a01b038116600090815260096020526040812054610547906108a9846105da565b90611060565b60006105436108bc610b1f565b8484610158565b6001600160a01b031660009081526009602052604090205490565b6108e6610b1f565b6005546001600160a01b03908116911614610948576040805162461bcd60e51b815260206004820181905260248201527f4f776e61626c653a2063616c6c6572206973206e6f7420746865206f776e6572604482015290519081900360640190fd5b600061095261054d565b1161095c57600080fd5b80156106c85761098d61096d61054d565b61097b83600160801b610ca6565b8161098257fe5b600754919004610d5c565b60075560408051828152905133917fa493a9229478c3fcd73f66d2cdeb7f94fd0f341da924d1054236d78454116511919081900360200190a2600a546109d39082610d5c565b600a5550565b600654600160a01b900460ff1681565b6001600160a01b03918216600090815260016020908152604080832093909416825291909152205490565b610a1c610b1f565b6005546001600160a01b03908116911614610a7e576040805162461bcd60e51b815260206004820181905260248201527f4f776e61626c653a2063616c6c6572206973206e6f7420746865206f776e6572604482015290519081900360640190fd5b6001600160a01b038116610ac35760405162461bcd60e51b81526004018080602001828103825260268152602001806110a36026913960400191505060405180910390fd5b6005546040516001600160a01b038084169216907f8be0079c531659141344cd1fd0a4f28419497f9722a3daafe3b4186f6b6457e090600090a3600580546001600160a01b0319166001600160a01b0392909216919091179055565b3390565b6001600160a01b038316610b685760405162461bcd60e51b81526004018080602001828103825260248152602001806111346024913960400191505060405180910390fd5b6001600160a01b038216610bad5760405162461bcd60e51b81526004018080602001828103825260228152602001806110c96022913960400191505060405180910390fd5b6001600160a01b03808416600081815260016020908152604080832094871680845294825291829020859055815185815291517f8c5be1e5ebec7d5bd14f71427d1e84f3dd0314c0f7b2291e5b200ac8c7c3b9259281900390910190a3505050565b60008184841115610c9e5760405162461bcd60e51b81526004018080602001828103825283818151815260200191508051906020019080838360005b83811015610c63578181015183820152602001610c4b565b50505050905090810190601f168015610c905780820380516001836020036101000a031916815260200191505b509250505060405180910390fd5b505050900390565b600082610cb557506000610547565b82820282848281610cc257fe5b0414610cff5760405162461bcd60e51b81526004018080602001828103825260218152602001806110eb6021913960400191505060405180910390fd5b9392505050565b6000818181121561054757600080fd5b6000828201818312801590610d2b5750838112155b80610d405750600083128015610d4057508381125b610cff57600080fd5b600080821215610d5857600080fd5b5090565b600082820183811015610cff576040805162461bcd60e51b815260206004820152601b60248201527f536166654d6174683a206164646974696f6e206f766572666c6f770000000000604482015290519081900360640190fd5b600080610dc283610883565b90508015611057576001600160a01b038316600090815260096020526040902054610ded9082610d5c565b6001600160a01b038416600081815260096020908152604091829020939093558051848152905191927fee503bee2bb6a87e57bc57db795f98137327401a0e7b7ce42e37926cc1a9ca4d92918290030190a2600654600160a01b900460ff1615610f685760007f00000000000000000000000000000000000000000000000000000000000000006001600160a01b031663a9059cbb85846040518363ffffffff1660e01b815260040180836001600160a01b0316815260200182815260200192505050602060405180830381600087803b158015610eca57600080fd5b505af1158015610ede573d6000803e3d6000fd5b505050506040513d6020811015610ef457600080fd5b50516006805460ff60a01b19169055905080610f66576001600160a01b038416600090815260096020526040902054610f2d9083611060565b6001600160a01b0385166000908152600960205260408120919091556006805460ff60a01b1916600160a01b1790559250610634915050565b505b600654600160a01b900460ff16611050576006546040805163a9059cbb60e01b81526001600160a01b038681166004830152602482018590529151600093929092169163a9059cbb9160448082019260209290919082900301818787803b158015610fd257600080fd5b505af1158015610fe6573d6000803e3d6000fd5b505050506040513d6020811015610ffc57600080fd5b505190508061104e576001600160a01b0384166000908152600960205260409020546110289083611060565b6001600160a01b0385166000908152600960205260408120919091559250610634915050565b505b9050610634565b50600092915050565b6000610cff83836040518060400160405280601e81526020017f536166654d6174683a207375627472616374696f6e206f766572666c6f770000815250610c0f56fe4f776e61626c653a206e6577206f776e657220697320746865207a65726f206164647265737345524332303a20617070726f766520746f20746865207a65726f2061646472657373536166654d6174683a206d756c7469706c69636174696f6e206f766572666c6f7745524332303a207472616e7366657220616d6f756e74206578636565647320616c6c6f77616e636545524332303a20617070726f76652066726f6d20746865207a65726f206164647265737345524332303a2064656372656173656420616c6c6f77616e63652062656c6f77207a65726fa2646970667358221220b20b5f87942ef1bda2b7f393dddf9e0b55169053072fa8b601b41b2630e191b764736f6c634300060c0033",
    "sourcePath": "/home/null/Desktop/BABYCAKE/DividendPayingToken.sol",
    "compiler": {
        "name": "solc",
        "version": "0.6.12+commit.27d51765"
    },
    "functionHashes": {
        "CAKE()": "4ca6ef28",
        "Monsta()": "4aaa7f0b",
        "accumulativeDividendOf(address)": "27ce0147",
        "allowance(address,address)": "dd62ed3e",
        "approve(address,uint256)": "095ea7b3",
        "balanceOf(address)": "70a08231",
        "c()": "c3da42b8",
        "decimals()": "313ce567",
        "decreaseAllowance(address,uint256)": "a457c2d7",
        "distributeCAKEDividends(uint256)": "ba72a955",
        "dividendOf(address)": "91b89fba",
        "increaseAllowance(address,uint256)": "39509351",
        "name()": "06fdde03",
        "owner()": "8da5cb5b",
        "renounceOwnership()": "715018a6",
        "symbol()": "95d89b41",
        "totalDividendsDistributed()": "85a6b3ae",
        "totalSupply()": "18160ddd",
        "transfer(address,uint256)": "a9059cbb",
        "transferFrom(address,address,uint256)": "23b872dd",
        "transferOwnership(address)": "f2fde38b",
        "withdrawDividend()": "6a474002",
        "withdrawableDividendOf(address)": "a8b9d240",
        "withdrawnDividendOf(address)": "aafd847a"
    },
    "gasEstimates": {
        "creation": {
            "codeDepositCost": "906000",
            "executionCost": "infinite",
            "totalCost": "infinite"
        },
        "external": {
            "CAKE()": "infinite",
            "Monsta()": "1082",
            "accumulativeDividendOf(address)": "infinite",
            "allowance(address,address)": "1360",
            "approve(address,uint256)": "infinite",
            "balanceOf(address)": "1256",
            "c()": "1115",
            "decimals()": "341",
            "decreaseAllowance(address,uint256)": "infinite",
            "distributeCAKEDividends(uint256)": "infinite",
            "dividendOf(address)": "infinite",
            "increaseAllowance(address,uint256)": "infinite",
            "name()": "infinite",
            "owner()": "1082",
            "renounceOwnership()": "24334",
            "symbol()": "infinite",
            "totalDividendsDistributed()": "1021",
            "totalSupply()": "1066",
            "transfer(address,uint256)": "291",
            "transferFrom(address,address,uint256)": "360",
            "transferOwnership(address)": "infinite",
            "withdrawDividend()": "infinite",
            "withdrawableDividendOf(address)": "infinite",
            "withdrawnDividendOf(address)": "1186"
        },
        "internal": {
            "_burn(address,uint256)": "infinite",
            "_mint(address,uint256)": "infinite",
            "_setBalance(address,uint256)": "infinite",
            "_transfer(address,address,uint256)": "infinite",
            "_withdrawDividendOfUser(address payable)": "infinite"
        }
    }
}