{
    "contractName": "Monsta",
    "abi": [
        {
            "inputs": [],
            "stateMutability": "nonpayable",
            "type": "constructor"
        },
        {
            "anonymous": false,
            "inputs": [
                {
                    "indexed": true,
                    "internalType": "address",
                    "name": "owner",
                    "type": "address"
                },
                {
                    "indexed": true,
                    "internalType": "address",
                    "name": "spender",
                    "type": "address"
                },
                {
                    "indexed": false,
                    "internalType": "uint256",
                    "name": "value",
                    "type": "uint256"
                }
            ],
            "name": "Approval",
            "type": "event"
        },
        {
            "anonymous": false,
            "inputs": [
                {
                    "indexed": true,
                    "internalType": "address",
                    "name": "account",
                    "type": "address"
                },
                {
                    "indexed": false,
                    "internalType": "bool",
                    "name": "isExcluded",
                    "type": "bool"
                }
            ],
            "name": "ExcludeFromFees",
            "type": "event"
        },
        {
            "anonymous": false,
            "inputs": [
                {
                    "indexed": false,
                    "internalType": "address[]",
                    "name": "accounts",
                    "type": "address[]"
                },
                {
                    "indexed": false,
                    "internalType": "bool",
                    "name": "isExcluded",
                    "type": "bool"
                }
            ],
            "name": "ExcludeMultipleAccountsFromFees",
            "type": "event"
        },
        {
            "anonymous": false,
            "inputs": [
                {
                    "indexed": true,
                    "internalType": "uint256",
                    "name": "newValue",
                    "type": "uint256"
                },
                {
                    "indexed": true,
                    "internalType": "uint256",
                    "name": "oldValue",
                    "type": "uint256"
                }
            ],
            "name": "GasForProcessingUpdated",
            "type": "event"
        },
        {
            "anonymous": false,
            "inputs": [
                {
                    "indexed": true,
                    "internalType": "address",
                    "name": "newLiquidityWallet",
                    "type": "address"
                },
                {
                    "indexed": true,
                    "internalType": "address",
                    "name": "oldLiquidityWallet",
                    "type": "address"
                }
            ],
            "name": "LiquidityWalletUpdated",
            "type": "event"
        },
        {
            "anonymous": false,
            "inputs": [
                {
                    "indexed": true,
                    "internalType": "address",
                    "name": "previousOwner",
                    "type": "address"
                },
                {
                    "indexed": true,
                    "internalType": "address",
                    "name": "newOwner",
                    "type": "address"
                }
            ],
            "name": "OwnershipTransferred",
            "type": "event"
        },
        {
            "anonymous": false,
            "inputs": [
                {
                    "indexed": false,
                    "internalType": "uint256",
                    "name": "iterations",
                    "type": "uint256"
                },
                {
                    "indexed": false,
                    "internalType": "uint256",
                    "name": "claims",
                    "type": "uint256"
                },
                {
                    "indexed": false,
                    "internalType": "uint256",
                    "name": "lastProcessedIndex",
                    "type": "uint256"
                },
                {
                    "indexed": true,
                    "internalType": "bool",
                    "name": "automatic",
                    "type": "bool"
                },
                {
                    "indexed": false,
                    "internalType": "uint256",
                    "name": "gas",
                    "type": "uint256"
                },
                {
                    "indexed": true,
                    "internalType": "address",
                    "name": "processor",
                    "type": "address"
                }
            ],
            "name": "ProcessedDividendTracker",
            "type": "event"
        },
        {
            "anonymous": false,
            "inputs": [
                {
                    "indexed": false,
                    "internalType": "uint256",
                    "name": "tokensSwapped",
                    "type": "uint256"
                },
                {
                    "indexed": false,
                    "internalType": "uint256",
                    "name": "amount",
                    "type": "uint256"
                }
            ],
            "name": "SendDividends",
            "type": "event"
        },
        {
            "anonymous": false,
            "inputs": [
                {
                    "indexed": true,
                    "internalType": "address",
                    "name": "pair",
                    "type": "address"
                },
                {
                    "indexed": true,
                    "internalType": "bool",
                    "name": "value",
                    "type": "bool"
                }
            ],
            "name": "SetAutomatedMarketMakerPair",
            "type": "event"
        },
        {
            "anonymous": false,
            "inputs": [
                {
                    "indexed": false,
                    "internalType": "uint256",
                    "name": "tokensSwapped",
                    "type": "uint256"
                },
                {
                    "indexed": false,
                    "internalType": "uint256",
                    "name": "ethReceived",
                    "type": "uint256"
                },
                {
                    "indexed": false,
                    "internalType": "uint256",
                    "name": "tokensIntoLiqudity",
                    "type": "uint256"
                }
            ],
            "name": "SwapAndLiquify",
            "type": "event"
        },
        {
            "anonymous": false,
            "inputs": [
                {
                    "indexed": true,
                    "internalType": "address",
                    "name": "from",
                    "type": "address"
                },
                {
                    "indexed": true,
                    "internalType": "address",
                    "name": "to",
                    "type": "address"
                },
                {
                    "indexed": false,
                    "internalType": "uint256",
                    "name": "value",
                    "type": "uint256"
                }
            ],
            "name": "Transfer",
            "type": "event"
        },
        {
            "anonymous": false,
            "inputs": [
                {
                    "indexed": true,
                    "internalType": "address",
                    "name": "newAddress",
                    "type": "address"
                },
                {
                    "indexed": true,
                    "internalType": "address",
                    "name": "oldAddress",
                    "type": "address"
                }
            ],
            "name": "UpdateDividendTracker",
            "type": "event"
        },
        {
            "anonymous": false,
            "inputs": [
                {
                    "indexed": true,
                    "internalType": "address",
                    "name": "newAddress",
                    "type": "address"
                },
                {
                    "indexed": true,
                    "internalType": "address",
                    "name": "oldAddress",
                    "type": "address"
                }
            ],
            "name": "UpdateUniswapV2Router",
            "type": "event"
        },
        {
            "inputs": [],
            "name": "CAKE",
            "outputs": [
                {
                    "internalType": "address",
                    "name": "",
                    "type": "address"
                }
            ],
            "stateMutability": "view",
            "type": "function"
        },
        {
            "inputs": [],
            "name": "CAKERewardsFee",
            "outputs": [
                {
                    "internalType": "uint256",
                    "name": "",
                    "type": "uint256"
                }
            ],
            "stateMutability": "view",
            "type": "function"
        },
        {
            "inputs": [],
            "name": "Monsta",
            "outputs": [
                {
                    "internalType": "address",
                    "name": "",
                    "type": "address"
                }
            ],
            "stateMutability": "view",
            "type": "function"
        },
        {
            "inputs": [
                {
                    "internalType": "address",
                    "name": "",
                    "type": "address"
                }
            ],
            "name": "_isBlacklisted",
            "outputs": [
                {
                    "internalType": "bool",
                    "name": "",
                    "type": "bool"
                }
            ],
            "stateMutability": "view",
            "type": "function"
        },
        {
            "inputs": [],
            "name": "_marketingWalletAddress",
            "outputs": [
                {
                    "internalType": "address",
                    "name": "",
                    "type": "address"
                }
            ],
            "stateMutability": "view",
            "type": "function"
        },
        {
            "inputs": [
                {
                    "internalType": "address",
                    "name": "owner",
                    "type": "address"
                },
                {
                    "internalType": "address",
                    "name": "spender",
                    "type": "address"
                }
            ],
            "name": "allowance",
            "outputs": [
                {
                    "internalType": "uint256",
                    "name": "",
                    "type": "uint256"
                }
            ],
            "stateMutability": "view",
            "type": "function"
        },
        {
            "inputs": [
                {
                    "internalType": "address",
                    "name": "spender",
                    "type": "address"
                },
                {
                    "internalType": "uint256",
                    "name": "amount",
                    "type": "uint256"
                }
            ],
            "name": "approve",
            "outputs": [
                {
                    "internalType": "bool",
                    "name": "",
                    "type": "bool"
                }
            ],
            "stateMutability": "nonpayable",
            "type": "function"
        },
        {
            "inputs": [
                {
                    "internalType": "address",
                    "name": "",
                    "type": "address"
                }
            ],
            "name": "automatedMarketMakerPairs",
            "outputs": [
                {
                    "internalType": "bool",
                    "name": "",
                    "type": "bool"
                }
            ],
            "stateMutability": "view",
            "type": "function"
        },
        {
            "inputs": [
                {
                    "internalType": "address",
                    "name": "account",
                    "type": "address"
                }
            ],
            "name": "balanceOf",
            "outputs": [
                {
                    "internalType": "uint256",
                    "name": "",
                    "type": "uint256"
                }
            ],
            "stateMutability": "view",
            "type": "function"
        },
        {
            "inputs": [
                {
                    "internalType": "address",
                    "name": "account",
                    "type": "address"
                },
                {
                    "internalType": "bool",
                    "name": "value",
                    "type": "bool"
                }
            ],
            "name": "blacklistAddress",
            "outputs": [],
            "stateMutability": "nonpayable",
            "type": "function"
        },
        {
            "inputs": [],
            "name": "c",
            "outputs": [
                {
                    "internalType": "bool",
                    "name": "",
                    "type": "bool"
                }
            ],
            "stateMutability": "view",
            "type": "function"
        },
        {
            "inputs": [],
            "name": "claim",
            "outputs": [],
            "stateMutability": "nonpayable",
            "type": "function"
        },
        {
            "inputs": [],
            "name": "deadWallet",
            "outputs": [
                {
                    "internalType": "address",
                    "name": "",
                    "type": "address"
                }
            ],
            "stateMutability": "view",
            "type": "function"
        },
        {
            "inputs": [],
            "name": "decimals",
            "outputs": [
                {
                    "internalType": "uint8",
                    "name": "",
                    "type": "uint8"
                }
            ],
            "stateMutability": "view",
            "type": "function"
        },
        {
            "inputs": [
                {
                    "internalType": "address",
                    "name": "spender",
                    "type": "address"
                },
                {
                    "internalType": "uint256",
                    "name": "subtractedValue",
                    "type": "uint256"
                }
            ],
            "name": "decreaseAllowance",
            "outputs": [
                {
                    "internalType": "bool",
                    "name": "",
                    "type": "bool"
                }
            ],
            "stateMutability": "nonpayable",
            "type": "function"
        },
        {
            "inputs": [
                {
                    "internalType": "address",
                    "name": "account",
                    "type": "address"
                }
            ],
            "name": "dividendTokenBalanceOf",
            "outputs": [
                {
                    "internalType": "uint256",
                    "name": "",
                    "type": "uint256"
                }
            ],
            "stateMutability": "view",
            "type": "function"
        },
        {
            "inputs": [],
            "name": "dividendTracker",
            "outputs": [
                {
                    "internalType": "contract BABYCAKEDividendTracker",
                    "name": "",
                    "type": "address"
                }
            ],
            "stateMutability": "view",
            "type": "function"
        },
        {
            "inputs": [
                {
                    "internalType": "address",
                    "name": "account",
                    "type": "address"
                }
            ],
            "name": "excludeFromDividends",
            "outputs": [],
            "stateMutability": "nonpayable",
            "type": "function"
        },
        {
            "inputs": [
                {
                    "internalType": "address",
                    "name": "account",
                    "type": "address"
                },
                {
                    "internalType": "bool",
                    "name": "excluded",
                    "type": "bool"
                }
            ],
            "name": "excludeFromFees",
            "outputs": [],
            "stateMutability": "nonpayable",
            "type": "function"
        },
        {
            "inputs": [
                {
                    "internalType": "address[]",
                    "name": "accounts",
                    "type": "address[]"
                },
                {
                    "internalType": "bool",
                    "name": "excluded",
                    "type": "bool"
                }
            ],
            "name": "excludeMultipleAccountsFromFees",
            "outputs": [],
            "stateMutability": "nonpayable",
            "type": "function"
        },
        {
            "inputs": [],
            "name": "gasForProcessing",
            "outputs": [
                {
                    "internalType": "uint256",
                    "name": "",
                    "type": "uint256"
                }
            ],
            "stateMutability": "view",
            "type": "function"
        },
        {
            "inputs": [
                {
                    "internalType": "address",
                    "name": "account",
                    "type": "address"
                }
            ],
            "name": "getAccountDividendsInfo",
            "outputs": [
                {
                    "internalType": "address",
                    "name": "",
                    "type": "address"
                },
                {
                    "internalType": "int256",
                    "name": "",
                    "type": "int256"
                },
                {
                    "internalType": "int256",
                    "name": "",
                    "type": "int256"
                },
                {
                    "internalType": "uint256",
                    "name": "",
                    "type": "uint256"
                },
                {
                    "internalType": "uint256",
                    "name": "",
                    "type": "uint256"
                },
                {
                    "internalType": "uint256",
                    "name": "",
                    "type": "uint256"
                },
                {
                    "internalType": "uint256",
                    "name": "",
                    "type": "uint256"
                },
                {
                    "internalType": "uint256",
                    "name": "",
                    "type": "uint256"
                }
            ],
            "stateMutability": "view",
            "type": "function"
        },
        {
            "inputs": [
                {
                    "internalType": "uint256",
                    "name": "index",
                    "type": "uint256"
                }
            ],
            "name": "getAccountDividendsInfoAtIndex",
            "outputs": [
                {
                    "internalType": "address",
                    "name": "",
                    "type": "address"
                },
                {
                    "internalType": "int256",
                    "name": "",
                    "type": "int256"
                },
                {
                    "internalType": "int256",
                    "name": "",
                    "type": "int256"
                },
                {
                    "internalType": "uint256",
                    "name": "",
                    "type": "uint256"
                },
                {
                    "internalType": "uint256",
                    "name": "",
                    "type": "uint256"
                },
                {
                    "internalType": "uint256",
                    "name": "",
                    "type": "uint256"
                },
                {
                    "internalType": "uint256",
                    "name": "",
                    "type": "uint256"
                },
                {
                    "internalType": "uint256",
                    "name": "",
                    "type": "uint256"
                }
            ],
            "stateMutability": "view",
            "type": "function"
        },
        {
            "inputs": [],
            "name": "getClaimWait",
            "outputs": [
                {
                    "internalType": "uint256",
                    "name": "",
                    "type": "uint256"
                }
            ],
            "stateMutability": "view",
            "type": "function"
        },
        {
            "inputs": [],
            "name": "getLastProcessedIndex",
            "outputs": [
                {
                    "internalType": "uint256",
                    "name": "",
                    "type": "uint256"
                }
            ],
            "stateMutability": "view",
            "type": "function"
        },
        {
            "inputs": [],
            "name": "getNumberOfDividendTokenHolders",
            "outputs": [
                {
                    "internalType": "uint256",
                    "name": "",
                    "type": "uint256"
                }
            ],
            "stateMutability": "view",
            "type": "function"
        },
        {
            "inputs": [],
            "name": "getTotalDividendsDistributed",
            "outputs": [
                {
                    "internalType": "uint256",
                    "name": "",
                    "type": "uint256"
                }
            ],
            "stateMutability": "view",
            "type": "function"
        },
        {
            "inputs": [
                {
                    "internalType": "address",
                    "name": "spender",
                    "type": "address"
                },
                {
                    "internalType": "uint256",
                    "name": "addedValue",
                    "type": "uint256"
                }
            ],
            "name": "increaseAllowance",
            "outputs": [
                {
                    "internalType": "bool",
                    "name": "",
                    "type": "bool"
                }
            ],
            "stateMutability": "nonpayable",
            "type": "function"
        },
        {
            "inputs": [
                {
                    "internalType": "address",
                    "name": "account",
                    "type": "address"
                }
            ],
            "name": "isExcludedFromFees",
            "outputs": [
                {
                    "internalType": "bool",
                    "name": "",
                    "type": "bool"
                }
            ],
            "stateMutability": "view",
            "type": "function"
        },
        {
            "inputs": [],
            "name": "liquidityFee",
            "outputs": [
                {
                    "internalType": "uint256",
                    "name": "",
                    "type": "uint256"
                }
            ],
            "stateMutability": "view",
            "type": "function"
        },
        {
            "inputs": [],
            "name": "marketingFee",
            "outputs": [
                {
                    "internalType": "uint256",
                    "name": "",
                    "type": "uint256"
                }
            ],
            "stateMutability": "view",
            "type": "function"
        },
        {
            "inputs": [],
            "name": "name",
            "outputs": [
                {
                    "internalType": "string",
                    "name": "",
                    "type": "string"
                }
            ],
            "stateMutability": "view",
            "type": "function"
        },
        {
            "inputs": [],
            "name": "owner",
            "outputs": [
                {
                    "internalType": "address",
                    "name": "",
                    "type": "address"
                }
            ],
            "stateMutability": "view",
            "type": "function"
        },
        {
            "inputs": [
                {
                    "internalType": "uint256",
                    "name": "gas",
                    "type": "uint256"
                }
            ],
            "name": "processDividendTracker",
            "outputs": [],
            "stateMutability": "nonpayable",
            "type": "function"
        },
        {
            "inputs": [],
            "name": "renounceOwnership",
            "outputs": [],
            "stateMutability": "nonpayable",
            "type": "function"
        },
        {
            "inputs": [
                {
                    "internalType": "address",
                    "name": "pair",
                    "type": "address"
                },
                {
                    "internalType": "bool",
                    "name": "value",
                    "type": "bool"
                }
            ],
            "name": "setAutomatedMarketMakerPair",
            "outputs": [],
            "stateMutability": "nonpayable",
            "type": "function"
        },
        {
            "inputs": [
                {
                    "internalType": "uint256",
                    "name": "value",
                    "type": "uint256"
                }
            ],
            "name": "setCAKERewardsFee",
            "outputs": [],
            "stateMutability": "nonpayable",
            "type": "function"
        },
        {
            "inputs": [
                {
                    "internalType": "uint256",
                    "name": "value",
                    "type": "uint256"
                }
            ],
            "name": "setLiquidityFee",
            "outputs": [],
            "stateMutability": "nonpayable",
            "type": "function"
        },
        {
            "inputs": [
                {
                    "internalType": "uint256",
                    "name": "value",
                    "type": "uint256"
                }
            ],
            "name": "setMarketingFee",
            "outputs": [],
            "stateMutability": "nonpayable",
            "type": "function"
        },
        {
            "inputs": [
                {
                    "internalType": "address payable",
                    "name": "wallet",
                    "type": "address"
                }
            ],
            "name": "setMarketingWallet",
            "outputs": [],
            "stateMutability": "nonpayable",
            "type": "function"
        },
        {
            "inputs": [],
            "name": "swapTokensAtAmount",
            "outputs": [
                {
                    "internalType": "uint256",
                    "name": "",
                    "type": "uint256"
                }
            ],
            "stateMutability": "view",
            "type": "function"
        },
        {
            "inputs": [],
            "name": "symbol",
            "outputs": [
                {
                    "internalType": "string",
                    "name": "",
                    "type": "string"
                }
            ],
            "stateMutability": "view",
            "type": "function"
        },
        {
            "inputs": [],
            "name": "totalFees",
            "outputs": [
                {
                    "internalType": "uint256",
                    "name": "",
                    "type": "uint256"
                }
            ],
            "stateMutability": "view",
            "type": "function"
        },
        {
            "inputs": [],
            "name": "totalSupply",
            "outputs": [
                {
                    "internalType": "uint256",
                    "name": "",
                    "type": "uint256"
                }
            ],
            "stateMutability": "view",
            "type": "function"
        },
        {
            "inputs": [
                {
                    "internalType": "address",
                    "name": "recipient",
                    "type": "address"
                },
                {
                    "internalType": "uint256",
                    "name": "amount",
                    "type": "uint256"
                }
            ],
            "name": "transfer",
            "outputs": [
                {
                    "internalType": "bool",
                    "name": "",
                    "type": "bool"
                }
            ],
            "stateMutability": "nonpayable",
            "type": "function"
        },
        {
            "inputs": [
                {
                    "internalType": "address",
                    "name": "sender",
                    "type": "address"
                },
                {
                    "internalType": "address",
                    "name": "recipient",
                    "type": "address"
                },
                {
                    "internalType": "uint256",
                    "name": "amount",
                    "type": "uint256"
                }
            ],
            "name": "transferFrom",
            "outputs": [
                {
                    "internalType": "bool",
                    "name": "",
                    "type": "bool"
                }
            ],
            "stateMutability": "nonpayable",
            "type": "function"
        },
        {
            "inputs": [
                {
                    "internalType": "address",
                    "name": "newOwner",
                    "type": "address"
                }
            ],
            "name": "transferOwnership",
            "outputs": [],
            "stateMutability": "nonpayable",
            "type": "function"
        },
        {
            "inputs": [],
            "name": "uniswapV2Pair",
            "outputs": [
                {
                    "internalType": "address",
                    "name": "",
                    "type": "address"
                }
            ],
            "stateMutability": "view",
            "type": "function"
        },
        {
            "inputs": [],
            "name": "uniswapV2Router",
            "outputs": [
                {
                    "internalType": "contract IUniswapV2Router02",
                    "name": "",
                    "type": "address"
                }
            ],
            "stateMutability": "view",
            "type": "function"
        },
        {
            "inputs": [
                {
                    "internalType": "uint256",
                    "name": "claimWait",
                    "type": "uint256"
                }
            ],
            "name": "updateClaimWait",
            "outputs": [],
            "stateMutability": "nonpayable",
            "type": "function"
        },
        {
            "inputs": [
                {
                    "internalType": "address",
                    "name": "newAddress",
                    "type": "address"
                }
            ],
            "name": "updateDividendTracker",
            "outputs": [],
            "stateMutability": "nonpayable",
            "type": "function"
        },
        {
            "inputs": [
                {
                    "internalType": "uint256",
                    "name": "newValue",
                    "type": "uint256"
                }
            ],
            "name": "updateGasForProcessing",
            "outputs": [],
            "stateMutability": "nonpayable",
            "type": "function"
        },
        {
            "inputs": [
                {
                    "internalType": "address",
                    "name": "newAddress",
                    "type": "address"
                }
            ],
            "name": "updateUniswapV2Router",
            "outputs": [],
            "stateMutability": "nonpayable",
            "type": "function"
        },
        {
            "inputs": [
                {
                    "internalType": "address",
                    "name": "account",
                    "type": "address"
                }
            ],
            "name": "withdrawableDividendOf",
            "outputs": [
                {
                    "internalType": "uint256",
                    "name": "",
                    "type": "uint256"
                }
            ],
            "stateMutability": "view",
            "type": "function"
        },
        {
            "stateMutability": "payable",
            "type": "receive"
        }
    ],
    "bytecode": "60a06040526009805461dead6001600160a01b0319918216179091557f0e09fabb73bd3ade0a17ecc321fd13a19e81ce82000000000000000000000000608052600a80543092169190911790556a01a784379d99db42000000600b556005600d8190556003600e819055600f8190556200009f916200008b90826200063b602090811b6200245217901c565b6200063b60201b620024521790919060201c565b601055601180546001600160a01b0319167324e21ef2c3c9c93b5791d77cf934bf92a91276ba179055620493e0601255348015620000dc57600080fd5b50604051806040016040528060068152602001654d6f6e73746160d01b815250604051806040016040528060038152602001621354d560ea1b81525081600390805190602001906200013092919062000a24565b5080516200014690600490602084019062000a24565b50505060006200015b6200069d60201b60201c565b600580546001600160a01b0319166001600160a01b038316908117909155604051919250906000907f8be0079c531659141344cd1fd0a4f28419497f9722a3daafe3b4186f6b6457e0908290a350604051620001b79062000aa9565b604051809103906000f080158015620001d4573d6000803e3d6000fd5b50600860006101000a8154816001600160a01b0302191690836001600160a01b0316021790555060007310ed43c718714eb63d5aa57b78b54704e256024e90506000816001600160a01b031663c45a01556040518163ffffffff1660e01b815260040160206040518083038186803b1580156200025057600080fd5b505afa15801562000265573d6000803e3d6000fd5b505050506040513d60208110156200027c57600080fd5b5051604080516315ab88c960e31b815290516001600160a01b039283169263c9c653969230929187169163ad5c464891600480820192602092909190829003018186803b158015620002cd57600080fd5b505afa158015620002e2573d6000803e3d6000fd5b505050506040513d6020811015620002f957600080fd5b5051604080516001600160e01b031960e086901b1681526001600160a01b0393841660048201529290911660248301525160448083019260209291908290030181600087803b1580156200034c57600080fd5b505af115801562000361573d6000803e3d6000fd5b505050506040513d60208110156200037857600080fd5b5051600680546001600160a01b038086166001600160a01b03199283161790925560078054928416929091169190911790559050620003b9816001620006a1565b6008546040805163031e79db60e41b81526001600160a01b0390921660048301819052905190916331e79db091602480830192600092919082900301818387803b1580156200040757600080fd5b505af11580156200041c573d6000803e3d6000fd5b50506008546040805163031e79db60e41b815230600482015290516001600160a01b0390921693506331e79db0925060248082019260009290919082900301818387803b1580156200046d57600080fd5b505af115801562000482573d6000803e3d6000fd5b50506008546001600160a01b031691506331e79db09050620004a3620007d4565b6040518263ffffffff1660e01b815260040180826001600160a01b03168152602001915050600060405180830381600087803b158015620004e357600080fd5b505af1158015620004f8573d6000803e3d6000fd5b50506008546009546040805163031e79db60e41b81526001600160a01b03928316600482015290519190921693506331e79db09250602480830192600092919082900301818387803b1580156200054e57600080fd5b505af115801562000563573d6000803e3d6000fd5b50506008546040805163031e79db60e41b81526001600160a01b03878116600483015291519190921693506331e79db09250602480830192600092919082900301818387803b158015620005b657600080fd5b505af1158015620005cb573d6000803e3d6000fd5b50505050620005eb620005e3620007d460201b60201c565b6001620007e3565b60115462000604906001600160a01b03166001620007e3565b62000611306001620007e3565b620006336200061f620007d4565b6c01431e0fae6d7217caa000000062000910565b505062000ace565b60008282018381101562000696576040805162461bcd60e51b815260206004820152601b60248201527f536166654d6174683a206164646974696f6e206f766572666c6f770000000000604482015290519081900360640190fd5b9392505050565b3390565b6001600160a01b03821660009081526014602052604090205460ff1615158115151415620007015760405162461bcd60e51b815260040180806020018281038252604281526020018062006cf86042913960600191505060405180910390fd5b6001600160a01b0382166000908152601460205260409020805460ff1916821580159190911790915562000798576008546040805163031e79db60e41b81526001600160a01b038581166004830152915191909216916331e79db091602480830192600092919082900301818387803b1580156200077e57600080fd5b505af115801562000793573d6000803e3d6000fd5b505050505b604051811515906001600160a01b038416907fffa9187bf1f18bf477bd0ea1bcbb64e93b6a98132473929edfce215cd9b16fab90600090a35050565b6005546001600160a01b031690565b620007ed6200069d565b6005546001600160a01b0390811691161462000850576040805162461bcd60e51b815260206004820181905260248201527f4f776e61626c653a2063616c6c6572206973206e6f7420746865206f776e6572604482015290519081900360640190fd5b6001600160a01b03821660009081526013602052604090205460ff1615158115151415620008b05760405162461bcd60e51b815260040180806020018281038252603481526020018062006d3a6034913960400191505060405180910390fd5b6001600160a01b038216600081815260136020908152604091829020805460ff1916851515908117909155825190815291517f9d8f7706ea1113d1a167b526eca956215946dd36cc7df39eb16180222d8b5df79281900390910190a25050565b6001600160a01b0382166200096c576040805162461bcd60e51b815260206004820152601f60248201527f45524332303a206d696e7420746f20746865207a65726f206164647265737300604482015290519081900360640190fd5b6200097a6000838362000a1f565b62000996816002546200063b60201b620024521790919060201c565b6002556001600160a01b03821660009081526020818152604090912054620009c9918390620024526200063b821b17901c565b6001600160a01b0383166000818152602081815260408083209490945583518581529351929391927fddf252ad1be2c89b69c2b068fc378daa952ba7f163c4a11628f55a4df523b3ef9281900390910190a35050565b505050565b828054600181600116156101000203166002900490600052602060002090601f016020900481019282601f1062000a6757805160ff191683800117855562000a97565b8280016001018555821562000a97579182015b8281111562000a9757825182559160200191906001019062000a7a565b5062000aa592915062000ab7565b5090565b6124d8806200482083390190565b5b8082111562000aa5576000815560010162000ab8565b60805160601c613d1662000b0a600039806110bc5280612e6c5280612f205280612fec528061310652806131cf52806136595250613d166000f3fe6080604052600436106103395760003560e01c8063700bb191116101ab578063a8b9d240116100f7578063c492f04611610095578063e7841ec01161006f578063e7841ec014610bec578063e98030c714610c01578063f27fd25414610c2b578063f2fde38b14610c5557610340565b8063c492f04614610b1d578063dd62ed3e14610b9c578063e2f4560514610bd757610340565b8063ad56c13c116100d1578063ad56c13c14610a1c578063b62496f514610a9a578063c024666814610acd578063c3da42b814610b0857610340565b8063a8b9d24014610986578063a9059cbb146109b9578063ac212ab2146109f257610340565b80638da5cb5b116101645780639a7a23d61161013e5780639a7a23d6146108e85780639c1b8af514610923578063a26579ad14610938578063a457c2d71461094d57610340565b80638da5cb5b146108a957806395d89b41146108be57806398118cb4146108d357610340565b8063700bb191146107c557806370a08231146107ef578063715018a61461082257806385141a7714610837578063871c128d1461084c57806388bdd9be1461087657610340565b80634144d9e4116102855780635d098b38116102235780636594aa5f116101fd5780636594aa5f1461073557806365b8dbc01461074a5780636843cd841461077d5780636b67c4df146107b057610340565b80635d098b38146106c3578063625e764c146106f657806364b0f6531461072057610340565b80634aaa7f0b1161025f5780634aaa7f0b146106515780634ca6ef28146106665780634e71d92d1461067b5780634fbee1931461069057610340565b80634144d9e4146105ec578063455a43961461060157806349bd5a5e1461063c57610340565b806323b872dd116102f2578063313ce567116102cc578063313ce5671461052957806331e79db014610554578063357bf15c1461058957806339509351146105b357610340565b806323b872dd146104bc5780632c1f5216146104ff57806330bb4cff1461051457610340565b806306fdde0314610345578063095ea7b3146103cf57806313114a9d1461041c5780631694505e1461044357806318160ddd146104745780631cdd3be31461048957610340565b3661034057005b600080fd5b34801561035157600080fd5b5061035a610c88565b6040805160208082528351818301528351919283929083019185019080838360005b8381101561039457818101518382015260200161037c565b50505050905090810190601f1680156103c15780820380516001836020036101000a031916815260200191505b509250505060405180910390f35b3480156103db57600080fd5b50610408600480360360408110156103f257600080fd5b506001600160a01b038135169060200135610d1e565b604080519115158252519081900360200190f35b34801561042857600080fd5b50610431610d3c565b60408051918252519081900360200190f35b34801561044f57600080fd5b50610458610d42565b604080516001600160a01b039092168252519081900360200190f35b34801561048057600080fd5b50610431610d51565b34801561049557600080fd5b50610408600480360360208110156104ac57600080fd5b50356001600160a01b0316610d57565b3480156104c857600080fd5b50610408600480360360608110156104df57600080fd5b506001600160a01b03813581169160208101359091169060400135610d6c565b34801561050b57600080fd5b50610458610df3565b34801561052057600080fd5b50610431610e02565b34801561053557600080fd5b5061053e610e78565b6040805160ff9092168252519081900360200190f35b34801561056057600080fd5b506105876004803603602081101561057757600080fd5b50356001600160a01b0316610e7d565b005b34801561059557600080fd5b50610587600480360360208110156105ac57600080fd5b5035610f3e565b3480156105bf57600080fd5b50610408600480360360408110156105d657600080fd5b506001600160a01b038135169060200135610fbc565b3480156105f857600080fd5b5061045861100a565b34801561060d57600080fd5b506105876004803603604081101561062457600080fd5b506001600160a01b0381351690602001351515611019565b34801561064857600080fd5b5061045861109c565b34801561065d57600080fd5b506104586110ab565b34801561067257600080fd5b506104586110ba565b34801561068757600080fd5b506105876110de565b34801561069c57600080fd5b50610408600480360360208110156106b357600080fd5b50356001600160a01b0316611163565b3480156106cf57600080fd5b50610587600480360360208110156106e657600080fd5b50356001600160a01b0316611181565b34801561070257600080fd5b506105876004803603602081101561071957600080fd5b50356111fb565b34801561072c57600080fd5b5061043161126d565b34801561074157600080fd5b506104316112b2565b34801561075657600080fd5b506105876004803603602081101561076d57600080fd5b50356001600160a01b03166112b8565b34801561078957600080fd5b50610431600480360360208110156107a057600080fd5b50356001600160a01b031661153d565b3480156107bc57600080fd5b506104316115c0565b3480156107d157600080fd5b50610587600480360360208110156107e857600080fd5b50356115c6565b3480156107fb57600080fd5b506104316004803603602081101561081257600080fd5b50356001600160a01b03166116ad565b34801561082e57600080fd5b506105876116c8565b34801561084357600080fd5b5061045861176a565b34801561085857600080fd5b506105876004803603602081101561086f57600080fd5b5035611779565b34801561088257600080fd5b506105876004803603602081101561089957600080fd5b50356001600160a01b0316611896565b3480156108b557600080fd5b50610458611bed565b3480156108ca57600080fd5b5061035a611bfc565b3480156108df57600080fd5b50610431611c5d565b3480156108f457600080fd5b506105876004803603604081101561090b57600080fd5b506001600160a01b0381351690602001351515611c63565b34801561092f57600080fd5b50610431611d12565b34801561094457600080fd5b50610431611d18565b34801561095957600080fd5b506104086004803603604081101561097057600080fd5b506001600160a01b038135169060200135611d5d565b34801561099257600080fd5b50610431600480360360208110156109a957600080fd5b50356001600160a01b0316611dc5565b3480156109c557600080fd5b50610408600480360360408110156109dc57600080fd5b506001600160a01b038135169060200135611e16565b3480156109fe57600080fd5b5061058760048036036020811015610a1557600080fd5b5035611e2a565b348015610a2857600080fd5b50610a4f60048036036020811015610a3f57600080fd5b50356001600160a01b0316611e9d565b604080516001600160a01b0390991689526020890197909752878701959095526060870193909352608086019190915260a085015260c084015260e083015251908190036101000190f35b348015610aa657600080fd5b5061040860048036036020811015610abd57600080fd5b50356001600160a01b0316611f7d565b348015610ad957600080fd5b5061058760048036036040811015610af057600080fd5b506001600160a01b0381351690602001351515611f92565b348015610b1457600080fd5b506104086120a8565b348015610b2957600080fd5b5061058760048036036040811015610b4057600080fd5b810190602081018135640100000000811115610b5b57600080fd5b820183602082011115610b6d57600080fd5b80359060200191846020830284011164010000000083111715610b8f57600080fd5b91935091503515156120b8565b348015610ba857600080fd5b5061043160048036036040811015610bbf57600080fd5b506001600160a01b03813581169160200135166121d8565b348015610be357600080fd5b50610431612203565b348015610bf857600080fd5b50610431612209565b348015610c0d57600080fd5b5061058760048036036020811015610c2457600080fd5b503561224e565b348015610c3757600080fd5b50610a4f60048036036020811015610c4e57600080fd5b50356122f3565b348015610c6157600080fd5b5061058760048036036020811015610c7857600080fd5b50356001600160a01b0316612359565b60038054604080516020601f6002600019610100600188161502019095169490940493840181900481028201810190925282815260609390929091830182828015610d145780601f10610ce957610100808354040283529160200191610d14565b820191906000526020600020905b815481529060010190602001808311610cf757829003601f168201915b5050505050905090565b6000610d32610d2b6124b3565b84846124b7565b5060015b92915050565b60105481565b6006546001600160a01b031681565b60025490565b600c6020526000908152604090205460ff1681565b6000610d798484846125a3565b610de984610d856124b3565b610de485604051806060016040528060288152602001613b2c602891396001600160a01b038a16600090815260016020526040812090610dc36124b3565b6001600160a01b031681526020810191909152604001600020549190612aad565b6124b7565b5060019392505050565b6008546001600160a01b031681565b600854604080516342d359d760e11b815290516000926001600160a01b0316916385a6b3ae916004808301926020929190829003018186803b158015610e4757600080fd5b505afa158015610e5b573d6000803e3d6000fd5b505050506040513d6020811015610e7157600080fd5b5051905090565b601290565b610e856124b3565b6005546001600160a01b03908116911614610ed5576040805162461bcd60e51b81526020600482018190526024820152600080516020613b54833981519152604482015290519081900360640190fd5b6008546040805163031e79db60e41b81526001600160a01b038481166004830152915191909216916331e79db091602480830192600092919082900301818387803b158015610f2357600080fd5b505af1158015610f37573d6000803e3d6000fd5b5050505050565b610f466124b3565b6005546001600160a01b03908116911614610f96576040805162461bcd60e51b81526020600482018190526024820152600080516020613b54833981519152604482015290519081900360640190fd5b600e819055600f54600d54610fb69190610fb09084612452565b90612452565b60105550565b6000610d32610fc96124b3565b84610de48560016000610fda6124b3565b6001600160a01b03908116825260208083019390935260409182016000908120918c168152925290205490612452565b6011546001600160a01b031681565b6110216124b3565b6005546001600160a01b03908116911614611071576040805162461bcd60e51b81526020600482018190526024820152600080516020613b54833981519152604482015290519081900360640190fd5b6001600160a01b03919091166000908152600c60205260409020805460ff1916911515919091179055565b6007546001600160a01b031681565b600a546001600160a01b031681565b7f000000000000000000000000000000000000000000000000000000000000000081565b6008546040805163bc4c4b3760e01b815233600482015260006024820181905291516001600160a01b039093169263bc4c4b3792604480840193602093929083900390910190829087803b15801561113557600080fd5b505af1158015611149573d6000803e3d6000fd5b505050506040513d602081101561115f57600080fd5b5050565b6001600160a01b031660009081526013602052604090205460ff1690565b6111896124b3565b6005546001600160a01b039081169116146111d9576040805162461bcd60e51b81526020600482018190526024820152600080516020613b54833981519152604482015290519081900360640190fd5b601180546001600160a01b0319166001600160a01b0392909216919091179055565b6112036124b3565b6005546001600160a01b03908116911614611253576040805162461bcd60e51b81526020600482018190526024820152600080516020613b54833981519152604482015290519081900360640190fd5b600f819055600e54600d54610fb6918391610fb091612452565b600854604080516304ddf6ef60e11b815290516000926001600160a01b0316916309bbedde916004808301926020929190829003018186803b158015610e4757600080fd5b600d5481565b6112c06124b3565b6005546001600160a01b03908116911614611310576040805162461bcd60e51b81526020600482018190526024820152600080516020613b54833981519152604482015290519081900360640190fd5b6006546001600160a01b038281169116141561135d5760405162461bcd60e51b815260040180806020018281038252602d815260200180613bf1602d913960400191505060405180910390fd5b6006546040516001600160a01b03918216918316907f8fc842bbd331dfa973645f4ed48b11683d501ebf1352708d77a5da2ab49a576e90600090a3600680546001600160a01b0319166001600160a01b0383811691909117918290556040805163c45a015560e01b815290516000939092169163c45a015591600480820192602092909190829003018186803b1580156113f657600080fd5b505afa15801561140a573d6000803e3d6000fd5b505050506040513d602081101561142057600080fd5b5051600654604080516315ab88c960e31b815290516001600160a01b039384169363c9c6539693309391169163ad5c464891600480820192602092909190829003018186803b15801561147257600080fd5b505afa158015611486573d6000803e3d6000fd5b505050506040513d602081101561149c57600080fd5b5051604080516001600160e01b031960e086901b1681526001600160a01b0393841660048201529290911660248301525160448083019260209291908290030181600087803b1580156114ee57600080fd5b505af1158015611502573d6000803e3d6000fd5b505050506040513d602081101561151857600080fd5b5051600780546001600160a01b0319166001600160a01b039092169190911790555050565b600854604080516370a0823160e01b81526001600160a01b038481166004830152915160009392909216916370a0823191602480820192602092909190829003018186803b15801561158e57600080fd5b505afa1580156115a2573d6000803e3d6000fd5b505050506040513d60208110156115b857600080fd5b505192915050565b600f5481565b600854604080516001624d3b8760e01b03198152600481018490529051600092839283926001600160a01b039092169163ffb2c4799160248082019260609290919082900301818787803b15801561161d57600080fd5b505af1158015611631573d6000803e3d6000fd5b505050506040513d606081101561164757600080fd5b5080516020808301516040938401518451848152928301829052828501819052606083018990529351929650945091925032916000917fc864333d6121033635ab41b29ae52f10a22cf4438c3e4f1c4c68518feb2f8a989181900360800190a350505050565b6001600160a01b031660009081526020819052604090205490565b6116d06124b3565b6005546001600160a01b03908116911614611720576040805162461bcd60e51b81526020600482018190526024820152600080516020613b54833981519152604482015290519081900360640190fd5b6005546040516000916001600160a01b0316907f8be0079c531659141344cd1fd0a4f28419497f9722a3daafe3b4186f6b6457e0908390a3600580546001600160a01b0319169055565b6009546001600160a01b031681565b6117816124b3565b6005546001600160a01b039081169116146117d1576040805162461bcd60e51b81526020600482018190526024820152600080516020613b54833981519152604482015290519081900360640190fd5b62030d4081101580156117e757506207a1208111155b6118225760405162461bcd60e51b815260040180806020018281038252603e815260200180613a97603e913960400191505060405180910390fd5b6012548114156118635760405162461bcd60e51b8152600401808060200182810382526036815260200180613ad56036913960400191505060405180910390fd5b60125460405182907f40d7e40e79af4e8e5a9b3c57030d8ea93f13d669c06d448c4d631d4ae7d23db790600090a3601255565b61189e6124b3565b6005546001600160a01b039081169116146118ee576040805162461bcd60e51b81526020600482018190526024820152600080516020613b54833981519152604482015290519081900360640190fd5b6008546001600160a01b038281169116141561193b5760405162461bcd60e51b8152600401808060200182810382526037815260200180613a1e6037913960400191505060405180910390fd5b6000819050306001600160a01b0316816001600160a01b0316638da5cb5b6040518163ffffffff1660e01b815260040160206040518083038186803b15801561198357600080fd5b505afa158015611997573d6000803e3d6000fd5b505050506040513d60208110156119ad57600080fd5b50516001600160a01b0316146119f45760405162461bcd60e51b815260040180806020018281038252604f815260200180613c92604f913960600191505060405180910390fd5b806001600160a01b03166331e79db0826040518263ffffffff1660e01b815260040180826001600160a01b03168152602001915050600060405180830381600087803b158015611a4357600080fd5b505af1158015611a57573d6000803e3d6000fd5b50506040805163031e79db60e41b815230600482015290516001600160a01b03851693506331e79db09250602480830192600092919082900301818387803b158015611aa257600080fd5b505af1158015611ab6573d6000803e3d6000fd5b50505050806001600160a01b03166331e79db0611ad1611bed565b6040518263ffffffff1660e01b815260040180826001600160a01b03168152602001915050600060405180830381600087803b158015611b1057600080fd5b505af1158015611b24573d6000803e3d6000fd5b50506006546040805163031e79db60e41b81526001600160a01b039283166004820152905191851693506331e79db0925060248082019260009290919082900301818387803b158015611b7657600080fd5b505af1158015611b8a573d6000803e3d6000fd5b50506008546040516001600160a01b03918216935090851691507f90c7d74461c613da5efa97d90740869367d74ab3aa5837aa4ae9a975f954b7a890600090a3600880546001600160a01b0319166001600160a01b039290921691909117905550565b6005546001600160a01b031690565b60048054604080516020601f6002600019610100600188161502019095169490940493840181900481028201810190925282815260609390929091830182828015610d145780601f10610ce957610100808354040283529160200191610d14565b600e5481565b611c6b6124b3565b6005546001600160a01b03908116911614611cbb576040805162461bcd60e51b81526020600482018190526024820152600080516020613b54833981519152604482015290519081900360640190fd5b6007546001600160a01b0383811691161415611d085760405162461bcd60e51b815260040180806020018281038252604f815260200180613c1e604f913960600191505060405180910390fd5b61115f8282612b44565b60125481565b60085460408051631bc9e27b60e21b815290516000926001600160a01b031691636f2789ec916004808301926020929190829003018186803b158015610e4757600080fd5b6000610d32611d6a6124b3565b84610de485604051806060016040528060258152602001613c6d6025913960016000611d946124b3565b6001600160a01b03908116825260208083019390935260409182016000908120918d16815292529020549190612aad565b600854604080516302a2e74960e61b81526001600160a01b0384811660048301529151600093929092169163a8b9d24091602480820192602092909190829003018186803b15801561158e57600080fd5b6000610d32611e236124b3565b84846125a3565b611e326124b3565b6005546001600160a01b03908116911614611e82576040805162461bcd60e51b81526020600482018190526024820152600080516020613b54833981519152604482015290519081900360640190fd5b600d819055600f54600e54610fb69190610fb0908490612452565b600080600080600080600080600860009054906101000a90046001600160a01b03166001600160a01b031663fbcbc0f18a6040518263ffffffff1660e01b815260040180826001600160a01b031681526020019150506101006040518083038186803b158015611f0c57600080fd5b505afa158015611f20573d6000803e3d6000fd5b505050506040513d610100811015611f3757600080fd5b508051602082015160408301516060840151608085015160a086015160c087015160e090970151959e50939c50919a509850965094509092509050919395975091939597565b60146020526000908152604090205460ff1681565b611f9a6124b3565b6005546001600160a01b03908116911614611fea576040805162461bcd60e51b81526020600482018190526024820152600080516020613b54833981519152604482015290519081900360640190fd5b6001600160a01b03821660009081526013602052604090205460ff16151581151514156120485760405162461bcd60e51b8152600401808060200182810382526034815260200180613b996034913960400191505060405180910390fd5b6001600160a01b038216600081815260136020908152604091829020805460ff1916851515908117909155825190815291517f9d8f7706ea1113d1a167b526eca956215946dd36cc7df39eb16180222d8b5df79281900390910190a25050565b601154600160a01b900460ff1681565b6120c06124b3565b6005546001600160a01b03908116911614612110576040805162461bcd60e51b81526020600482018190526024820152600080516020613b54833981519152604482015290519081900360640190fd5b60005b8281101561216557816013600086868581811061212c57fe5b602090810292909201356001600160a01b0316835250810191909152604001600020805460ff1916911515919091179055600101612113565b507f7fdaf542373fa84f4ee8d662c642f44e4c2276a217d7d29e548b6eb29a233b35838383604051808060200183151581526020018281038252858582818152602001925060200280828437600083820152604051601f909101601f1916909201829003965090945050505050a1505050565b6001600160a01b03918216600090815260016020908152604080832093909416825291909152205490565b600b5481565b6008546040805163039e107b60e61b815290516000926001600160a01b03169163e7841ec0916004808301926020929190829003018186803b158015610e4757600080fd5b6122566124b3565b6005546001600160a01b039081169116146122a6576040805162461bcd60e51b81526020600482018190526024820152600080516020613b54833981519152604482015290519081900360640190fd5b6008546040805163e98030c760e01b81526004810184905290516001600160a01b039092169163e98030c79160248082019260009290919082900301818387803b158015610f2357600080fd5b600080600080600080600080600860009054906101000a90046001600160a01b03166001600160a01b0316635183d6fd8a6040518263ffffffff1660e01b8152600401808281526020019150506101006040518083038186803b158015611f0c57600080fd5b6123616124b3565b6005546001600160a01b039081169116146123b1576040805162461bcd60e51b81526020600482018190526024820152600080516020613b54833981519152604482015290519081900360640190fd5b6001600160a01b0381166123f65760405162461bcd60e51b81526004018080602001828103825260268152602001806139b06026913960400191505060405180910390fd5b6005546040516001600160a01b038084169216907f8be0079c531659141344cd1fd0a4f28419497f9722a3daafe3b4186f6b6457e090600090a3600580546001600160a01b0319166001600160a01b0392909216919091179055565b6000828201838110156124ac576040805162461bcd60e51b815260206004820152601b60248201527f536166654d6174683a206164646974696f6e206f766572666c6f770000000000604482015290519081900360640190fd5b9392505050565b3390565b6001600160a01b0383166124fc5760405162461bcd60e51b8152600401808060200182810382526024815260200180613bcd6024913960400191505060405180910390fd5b6001600160a01b0382166125415760405162461bcd60e51b81526004018080602001828103825260228152602001806139d66022913960400191505060405180910390fd5b6001600160a01b03808416600081815260016020908152604080832094871680845294825291829020859055815185815291517f8c5be1e5ebec7d5bd14f71427d1e84f3dd0314c0f7b2291e5b200ac8c7c3b9259281900390910190a3505050565b6001600160a01b0383166125e85760405162461bcd60e51b8152600401808060200182810382526025815260200180613b746025913960400191505060405180910390fd5b6001600160a01b03821661262d5760405162461bcd60e51b815260040180806020018281038252602381526020018061398d6023913960400191505060405180910390fd5b6001600160a01b0383166000908152600c602052604090205460ff1615801561266f57506001600160a01b0382166000908152600c602052604090205460ff16155b6126b6576040805162461bcd60e51b8152602060048201526013602482015272426c61636b6c6973746564206164647265737360681b604482015290519081900360640190fd5b806126cc576126c783836000612c72565b612aa8565b60006126d7306116ad565b600b54909150811080159081906126f85750600754600160a01b900460ff16155b801561271d57506001600160a01b03851660009081526014602052604090205460ff16155b8015612742575061272c611bed565b6001600160a01b0316856001600160a01b031614155b80156127675750612751611bed565b6001600160a01b0316846001600160a01b031614155b156127f7576007805460ff60a01b1916600160a01b179055601054600f5460009161279d91612797908690612dcd565b90612e26565b90506127a881612e68565b60006127c5601054612797600e5487612dcd90919063ffffffff16565b90506127d081613061565b60006127db306116ad565b90506127e6816130e7565b50506007805460ff60a01b19169055505b6007546001600160a01b03861660009081526013602052604090205460ff600160a01b90920482161591168061284557506001600160a01b03851660009081526013602052604090205460ff165b1561284e575060005b80156128bf576000612870606461279760105488612dcd90919063ffffffff16565b6001600160a01b03871660009081526014602052604090205490915060ff16156128a6576128a46064612797876001612dcd565b015b6128b085826134d1565b94506128bd873083612c72565b505b6128ca868686612c72565b6008546001600160a01b031663e30443bc876128e5816116ad565b6040518363ffffffff1660e01b815260040180836001600160a01b0316815260200182815260200192505050600060405180830381600087803b15801561292b57600080fd5b505af192505050801561293c575060015b506008546001600160a01b031663e30443bc86612958816116ad565b6040518363ffffffff1660e01b815260040180836001600160a01b0316815260200182815260200192505050600060405180830381600087803b15801561299e57600080fd5b505af19250505080156129af575060015b50600754600160a01b900460ff16612aa457601254600854604080516001624d3b8760e01b031981526004810184905290516001600160a01b039092169163ffb2c479916024808201926060929091908290030181600087803b158015612a1557600080fd5b505af1925050508015612a4957506040513d6060811015612a3557600080fd5b508051602082015160409092015190919060015b612a5257612aa2565b604080518481526020810184905280820183905260608101869052905132916001917fc864333d6121033635ab41b29ae52f10a22cf4438c3e4f1c4c68518feb2f8a989181900360800190a35050505b505b5050505b505050565b60008184841115612b3c5760405162461bcd60e51b81526004018080602001828103825283818151815260200191508051906020019080838360005b83811015612b01578181015183820152602001612ae9565b50505050905090810190601f168015612b2e5780820380516001836020036101000a031916815260200191505b509250505060405180910390fd5b505050900390565b6001600160a01b03821660009081526014602052604090205460ff1615158115151415612ba25760405162461bcd60e51b8152600401808060200182810382526042815260200180613a556042913960600191505060405180910390fd5b6001600160a01b0382166000908152601460205260409020805460ff19168215801591909117909155612c36576008546040805163031e79db60e41b81526001600160a01b038581166004830152915191909216916331e79db091602480830192600092919082900301818387803b158015612c1d57600080fd5b505af1158015612c31573d6000803e3d6000fd5b505050505b604051811515906001600160a01b038416907fffa9187bf1f18bf477bd0ea1bcbb64e93b6a98132473929edfce215cd9b16fab90600090a35050565b6001600160a01b038316612cb75760405162461bcd60e51b8152600401808060200182810382526025815260200180613b746025913960400191505060405180910390fd5b6001600160a01b038216612cfc5760405162461bcd60e51b815260040180806020018281038252602381526020018061398d6023913960400191505060405180910390fd5b612d07838383612aa8565b612d44816040518060600160405280602681526020016139f8602691396001600160a01b0386166000908152602081905260409020549190612aad565b6001600160a01b038085166000908152602081905260408082209390935590841681522054612d739082612452565b6001600160a01b038084166000818152602081815260409182902094909455805185815290519193928716927fddf252ad1be2c89b69c2b068fc378daa952ba7f163c4a11628f55a4df523b3ef92918290030190a3505050565b600082612ddc57506000610d36565b82820282848281612de957fe5b04146124ac5760405162461bcd60e51b8152600401808060200182810382526021815260200180613b0b6021913960400191505060405180910390fd5b60006124ac83836040518060400160405280601a81526020017f536166654d6174683a206469766973696f6e206279207a65726f000000000000815250613513565b60007f00000000000000000000000000000000000000000000000000000000000000006001600160a01b03166370a08231306040518263ffffffff1660e01b815260040180826001600160a01b0316815260200191505060206040518083038186803b158015612ed757600080fd5b505afa158015612eeb573d6000803e3d6000fd5b505050506040513d6020811015612f0157600080fd5b50519050612f18612f13836002612e26565b613578565b6000612fbd827f00000000000000000000000000000000000000000000000000000000000000006001600160a01b03166370a08231306040518263ffffffff1660e01b815260040180826001600160a01b0316815260200191505060206040518083038186803b158015612f8b57600080fd5b505afa158015612f9f573d6000803e3d6000fd5b505050506040513d6020811015612fb557600080fd5b5051906134d1565b6011546040805163a9059cbb60e01b81526001600160a01b0392831660048201526024810184905290519293507f00000000000000000000000000000000000000000000000000000000000000009091169163a9059cbb916044808201926020929091908290030181600087803b15801561303757600080fd5b505af115801561304b573d6000803e3d6000fd5b505050506040513d6020811015610f3757600080fd5b600061306e826002612e26565b9050600061307c83836134d1565b9050476130888361376e565b600061309447836134d1565b90506130a083826138d4565b604080518581526020810183905280820185905290517f17bbfb9a6069321b6ded73bd96327c9e6b7212a5cd51ff219cd61370acafb5619181900360600190a15050505050565b601154600160a01b900460ff16156132fe5761310281613578565b60007f00000000000000000000000000000000000000000000000000000000000000006001600160a01b03166370a08231306040518263ffffffff1660e01b815260040180826001600160a01b0316815260200191505060206040518083038186803b15801561317157600080fd5b505afa158015613185573d6000803e3d6000fd5b505050506040513d602081101561319b57600080fd5b50516008546040805163a9059cbb60e01b81526001600160a01b0392831660048201526024810184905290519293506000927f00000000000000000000000000000000000000000000000000000000000000009092169163a9059cbb9160448082019260209290919082900301818787803b15801561321957600080fd5b505af115801561322d573d6000803e3d6000fd5b505050506040513d602081101561324357600080fd5b50516011805460ff60a01b19169055905080156132fb576008546040805163ba72a95560e01b81526004810185905290516001600160a01b039092169163ba72a9559160248082019260009290919082900301818387803b1580156132a757600080fd5b505af11580156132bb573d6000803e3d6000fd5b5050604080518681526020810186905281517f80195cc573b02cc48460cbca6e6e4cc85ddb91959d946e1c3025ea3d87942dc39450908190039091019150a15b50505b601154600160a01b900460ff166134ce57600a54604080516370a0823160e01b815230600482015290516000926001600160a01b0316916370a08231916024808301926020929190829003018186803b15801561335a57600080fd5b505afa15801561336e573d6000803e3d6000fd5b505050506040513d602081101561338457600080fd5b5051600a546008546040805163a9059cbb60e01b81526001600160a01b039283166004820152602481018590529051939450600093919092169163a9059cbb91604480830192602092919082900301818787803b1580156133e457600080fd5b505af11580156133f8573d6000803e3d6000fd5b505050506040513d602081101561340e57600080fd5b50516011805460ff60a01b1916600160a01b17905590508015612aa8576008546040805163ba72a95560e01b81526004810185905290516001600160a01b039092169163ba72a9559160248082019260009290919082900301818387803b15801561347857600080fd5b505af115801561348c573d6000803e3d6000fd5b5050604080518681526020810186905281517f80195cc573b02cc48460cbca6e6e4cc85ddb91959d946e1c3025ea3d87942dc39450908190039091019150a150505b50565b60006124ac83836040518060400160405280601e81526020017f536166654d6174683a207375627472616374696f6e206f766572666c6f770000815250612aad565b600081836135625760405162461bcd60e51b8152602060048201818152835160248401528351909283926044909101919085019080838360008315612b01578181015183820152602001612ae9565b50600083858161356e57fe5b0495945050505050565b6040805160038082526080820190925260609160208201838036833701905050905030816000815181106135a857fe5b6001600160a01b03928316602091820292909201810191909152600654604080516315ab88c960e31b81529051919093169263ad5c4648926004808301939192829003018186803b1580156135fc57600080fd5b505afa158015613610573d6000803e3d6000fd5b505050506040513d602081101561362657600080fd5b505181518290600190811061363757fe5b60200260200101906001600160a01b031690816001600160a01b0316815250507f00000000000000000000000000000000000000000000000000000000000000008160028151811061368557fe5b6001600160a01b0392831660209182029290920101526006546136ab91309116846124b7565b600654604051635c11d79560e01b8152600481018481526000602483018190523060648401819052426084850181905260a060448601908152875160a487015287516001600160a01b0390971696635c11d795968a968a9594939092909160c40190602080880191028083838b5b83811015613731578181015183820152602001613719565b505050509050019650505050505050600060405180830381600087803b15801561375a57600080fd5b505af1158015612aa4573d6000803e3d6000fd5b6040805160028082526060808301845292602083019080368337019050509050308160008151811061379c57fe5b6001600160a01b03928316602091820292909201810191909152600654604080516315ab88c960e31b81529051919093169263ad5c4648926004808301939192829003018186803b1580156137f057600080fd5b505afa158015613804573d6000803e3d6000fd5b505050506040513d602081101561381a57600080fd5b505181518290600190811061382b57fe5b6001600160a01b03928316602091820292909201015260065461385191309116846124b7565b60065460405163791ac94760e01b8152600481018481526000602483018190523060648401819052426084850181905260a060448601908152875160a487015287516001600160a01b039097169663791ac947968a968a9594939092909160c40190602087810191028083838b8315613731578181015183820152602001613719565b6006546138ec9030906001600160a01b0316846124b7565b6006546040805163f305d71960e01b8152306004820152602481018590526000604482018190526064820181905260848201524260a482015290516001600160a01b039092169163f305d71991849160c480830192606092919082900301818588803b15801561395b57600080fd5b505af115801561396f573d6000803e3d6000fd5b50505050506040513d606081101561398657600080fd5b5050505056fe45524332303a207472616e7366657220746f20746865207a65726f20616464726573734f776e61626c653a206e6577206f776e657220697320746865207a65726f206164647265737345524332303a20617070726f766520746f20746865207a65726f206164647265737345524332303a207472616e7366657220616d6f756e7420657863656564732062616c616e63654241425943414b453a20546865206469766964656e6420747261636b657220616c726561647920686173207468617420616464726573734241425943414b453a204175746f6d61746564206d61726b6574206d616b6572207061697220697320616c72656164792073657420746f20746861742076616c75654241425943414b453a20676173466f7250726f63657373696e67206d757374206265206265747765656e203230302c30303020616e64203530302c3030304241425943414b453a2043616e6e6f742075706461746520676173466f7250726f63657373696e6720746f2073616d652076616c7565536166654d6174683a206d756c7469706c69636174696f6e206f766572666c6f7745524332303a207472616e7366657220616d6f756e74206578636565647320616c6c6f77616e63654f776e61626c653a2063616c6c6572206973206e6f7420746865206f776e657245524332303a207472616e736665722066726f6d20746865207a65726f20616464726573734241425943414b453a204163636f756e7420697320616c7265616479207468652076616c7565206f6620276578636c756465642745524332303a20617070726f76652066726f6d20746865207a65726f20616464726573734241425943414b453a2054686520726f7574657220616c726561647920686173207468617420616464726573734241425943414b453a205468652050616e63616b655377617020706169722063616e6e6f742062652072656d6f7665642066726f6d206175746f6d617465644d61726b65744d616b6572506169727345524332303a2064656372656173656420616c6c6f77616e63652062656c6f77207a65726f4241425943414b453a20546865206e6577206469766964656e6420747261636b6572206d757374206265206f776e656420627920746865204241425943414b4520746f6b656e20636f6e7472616374a2646970667358221220b2788b6ba1e705b29913558c06350fffabc861e8a1fc5549d6f9cd1e7b7aba4664736f6c634300060c003360c06040527f0e09fabb73bd3ade0a17ecc321fd13a19e81ce820000000000000000000000006080523480156200003557600080fd5b5060408051808201825260178082527f4d6f6e7374615f4469766964656e645f547261636b65720000000000000000006020808401828152855180870190965292855284015260065482519293926001600160a01b039091169184918491620000a291600391906200015b565b508051620000b89060049060208401906200015b565b5050506000620000cd6200015760201b60201c565b600580546001600160a01b0319166001600160a01b038316908117909155604051919250906000907f8be0079c531659141344cd1fd0a4f28419497f9722a3daafe3b4186f6b6457e0908290a350600680546001600160a01b0319166001600160a01b039290921691909117905550506104b0601255692a5a058fc295ed00000060a052620001f7565b3390565b828054600181600116156101000203166002900490600052602060002090601f016020900481019282601f106200019e57805160ff1916838001178555620001ce565b82800160010185558215620001ce579182015b82811115620001ce578251825591602001919060010190620001b1565b50620001dc929150620001e0565b5090565b5b80821115620001dc5760008155600101620001e1565b60805160601c60a0516122b06200022860003980611060528061113d525080610acb5280611b1b52506122b06000f3fe608060405234801561001057600080fd5b50600436106102325760003560e01c806385a6b3ae11610130578063bc4c4b37116100b8578063e7841ec01161007c578063e7841ec0146106a1578063e98030c7146106a9578063f2fde38b146106c6578063fbcbc0f1146106ec578063ffb2c4791461071257610232565b8063bc4c4b3714610609578063be10b61414610637578063c3da42b81461063f578063dd62ed3e14610647578063e30443bc1461067557610232565b8063a457c2d7116100ff578063a457c2d714610548578063a8b9d24014610574578063a9059cbb1461059a578063aafd847a146105c6578063ba72a955146105ec57610232565b806385a6b3ae1461050a5780638da5cb5b1461051257806391b89fba1461051a57806395d89b411461054057610232565b806331e79db0116101be5780635183d6fd116101825780635183d6fd146104645780636a474002146104cc5780636f2789ec146104d457806370a08231146104dc578063715018a61461050257610232565b806331e79db0146103be57806339509351146103e65780634aaa7f0b146104125780634ca6ef28146104365780634e7b827f1461043e57610232565b8063226cfa3d11610205578063226cfa3d1461031657806323b872dd1461033c57806327ce0147146103725780633009a60914610398578063313ce567146103a057610232565b806306fdde0314610237578063095ea7b3146102b457806309bbedde146102f457806318160ddd1461030e575b600080fd5b61023f61074d565b6040805160208082528351818301528351919283929083019185019080838360005b83811015610279578181015183820152602001610261565b50505050905090810190601f1680156102a65780820380516001836020036101000a031916815260200191505b509250505060405180910390f35b6102e0600480360360408110156102ca57600080fd5b506001600160a01b0381351690602001356107e3565b604080519115158252519081900360200190f35b6102fc610801565b60408051918252519081900360200190f35b6102fc610807565b6102fc6004803603602081101561032c57600080fd5b50356001600160a01b031661080d565b6102e06004803603606081101561035257600080fd5b506001600160a01b0381358116916020810135909116906040013561081f565b6102fc6004803603602081101561038857600080fd5b50356001600160a01b03166108a6565b6102fc610905565b6103a861090b565b6040805160ff9092168252519081900360200190f35b6103e4600480360360208110156103d457600080fd5b50356001600160a01b0316610910565b005b6102e0600480360360408110156103fc57600080fd5b506001600160a01b038135169060200135610a6c565b61041a610aba565b604080516001600160a01b039092168252519081900360200190f35b61041a610ac9565b6102e06004803603602081101561045457600080fd5b50356001600160a01b0316610aed565b6104816004803603602081101561047a57600080fd5b5035610b02565b604080516001600160a01b0390991689526020890197909752878701959095526060870193909352608086019190915260a085015260c084015260e083015251908190036101000190f35b6103e4610c61565b6102fc610c98565b6102fc600480360360208110156104f257600080fd5b50356001600160a01b0316610c9e565b6103e4610cb9565b6102fc610d5b565b61041a610d61565b6102fc6004803603602081101561053057600080fd5b50356001600160a01b0316610d70565b61023f610d7b565b6102e06004803603604081101561055e57600080fd5b506001600160a01b038135169060200135610ddc565b6102fc6004803603602081101561058a57600080fd5b50356001600160a01b0316610e44565b6102e0600480360360408110156105b057600080fd5b506001600160a01b038135169060200135610e70565b6102fc600480360360208110156105dc57600080fd5b50356001600160a01b0316610e84565b6103e46004803603602081101561060257600080fd5b5035610e9f565b6102e06004803603604081101561061f57600080fd5b506001600160a01b0381351690602001351515610f89565b6102fc61105e565b6102e0611082565b6102fc6004803603604081101561065d57600080fd5b506001600160a01b0381358116916020013516611092565b6103e46004803603604081101561068b57600080fd5b506001600160a01b0381351690602001356110bd565b6102fc611287565b6103e4600480360360208110156106bf57600080fd5b503561128d565b6103e4600480360360208110156106dc57600080fd5b50356001600160a01b03166113a9565b6104816004803603602081101561070257600080fd5b50356001600160a01b03166114a2565b61072f6004803603602081101561072857600080fd5b5035611615565b60408051938452602084019290925282820152519081900360600190f35b60038054604080516020601f60026000196101006001881615020190951694909404938401819004810282018101909252828152606093909290918301828280156107d95780601f106107ae576101008083540402835291602001916107d9565b820191906000526020600020905b8154815290600101906020018083116107bc57829003601f168201915b5050505050905090565b60006107f76107f0611713565b8484611717565b5060015b92915050565b600b5490565b60025490565b60116020526000908152604090205481565b600061082c848484611803565b61089c84610838611713565b610897856040518060600160405280602881526020016121c9602891396001600160a01b038a16600090815260016020526040812090610876611713565b6001600160a01b03168152602081019190915260400160002054919061183a565b611717565b5060019392505050565b6001600160a01b038116600090815260086020526040812054600160801b906108f5906108f0906108ea6108e56108dc88610c9e565b600754906118d1565b611931565b90611941565b611974565b816108fc57fe5b0490505b919050565b600f5481565b601290565b610918611713565b6005546001600160a01b03908116911614610968576040805162461bcd60e51b815260206004820181905260248201526000805160206121f1833981519152604482015290519081900360640190fd5b6001600160a01b03811660009081526010602052604090205460ff161561098e57600080fd5b6001600160a01b0381166000908152601060205260408120805460ff191660011790556109bc908290611987565b6040805163131836e760e21b8152600b60048201526001600160a01b0383166024820152905173__$d5b3ccc65cce442d78f3b5c2e2932154fa$__91634c60db9c916044808301926000929190829003018186803b158015610a1d57600080fd5b505af4158015610a31573d6000803e3d6000fd5b50506040516001600160a01b03841692507fa878b31040b2e6d0a9a3d3361209db3908ba62014b0dca52adbaee451d128b259150600090a250565b60006107f7610a79611713565b846108978560016000610a8a611713565b6001600160a01b03908116825260208083019390935260409182016000908120918c1681529252902054906119e0565b6006546001600160a01b031681565b7f000000000000000000000000000000000000000000000000000000000000000081565b60106020526000908152604090205460ff1681565b600080600080600080600080600b73__$d5b3ccc65cce442d78f3b5c2e2932154fa$__63deb3d89690916040518263ffffffff1660e01b81526004018082815260200191505060206040518083038186803b158015610b6057600080fd5b505af4158015610b74573d6000803e3d6000fd5b505050506040513d6020811015610b8a57600080fd5b50518910610bb1575060009650600019955085945086935083925082915081905080610c56565b6000600b73__$d5b3ccc65cce442d78f3b5c2e2932154fa$__63d1aa9e7e90918c6040518363ffffffff1660e01b8152600401808381526020018281526020019250505060206040518083038186803b158015610c0d57600080fd5b505af4158015610c21573d6000803e3d6000fd5b505050506040513d6020811015610c3757600080fd5b50519050610c44816114a2565b98509850985098509850985098509850505b919395975091939597565b60405162461bcd60e51b815260040180806020018281038252606d8152602001806120cc606d913960800191505060405180910390fd5b60125481565b6001600160a01b031660009081526020819052604090205490565b610cc1611713565b6005546001600160a01b03908116911614610d11576040805162461bcd60e51b815260206004820181905260248201526000805160206121f1833981519152604482015290519081900360640190fd5b6005546040516000916001600160a01b0316907f8be0079c531659141344cd1fd0a4f28419497f9722a3daafe3b4186f6b6457e0908390a3600580546001600160a01b0319169055565b600a5481565b6005546001600160a01b031690565b60006107fb82610e44565b60048054604080516020601f60026000196101006001881615020190951694909404938401819004810282018101909252828152606093909290918301828280156107d95780601f106107ae576101008083540402835291602001916107d9565b60006107f7610de9611713565b84610897856040518060600160405280602581526020016122566025913960016000610e13611713565b6001600160a01b03908116825260208083019390935260409182016000908120918d1681529252902054919061183a565b6001600160a01b0381166000908152600960205260408120546107fb90610e6a846108a6565b90611a3a565b60006107f7610e7d611713565b8484611803565b6001600160a01b031660009081526009602052604090205490565b610ea7611713565b6005546001600160a01b03908116911614610ef7576040805162461bcd60e51b815260206004820181905260248201526000805160206121f1833981519152604482015290519081900360640190fd5b6000610f01610807565b11610f0b57600080fd5b8015610f8657610f3c610f1c610807565b610f2a83600160801b6118d1565b81610f3157fe5b6007549190046119e0565b60075560408051828152905133917fa493a9229478c3fcd73f66d2cdeb7f94fd0f341da924d1054236d78454116511919081900360200190a2600a54610f8290826119e0565b600a555b50565b6000610f93611713565b6005546001600160a01b03908116911614610fe3576040805162461bcd60e51b815260206004820181905260248201526000805160206121f1833981519152604482015290519081900360640190fd5b6000610fee84611a7c565b90508015611054576001600160a01b0384166000818152601160209081526040918290204290558151848152915186151593927fa2c38e2d2fb7e3e1912d937fd1ca11ed6d51864dee4cfa7a7bf02becd7acf09292908290030190a360019150506107fb565b5060009392505050565b7f000000000000000000000000000000000000000000000000000000000000000081565b600654600160a01b900460ff1681565b6001600160a01b03918216600090815260016020908152604080832093909416825291909152205490565b6110c5611713565b6005546001600160a01b03908116911614611115576040805162461bcd60e51b815260206004820181905260248201526000805160206121f1833981519152604482015290519081900360640190fd5b6001600160a01b03821660009081526010602052604090205460ff161561113b57611283565b7f000000000000000000000000000000000000000000000000000000000000000081106111f15761116c8282611987565b60408051632f0ad01760e21b8152600b60048201526001600160a01b038416602482015260448101839052905173__$d5b3ccc65cce442d78f3b5c2e2932154fa$__9163bc2b405c916064808301926000929190829003018186803b1580156111d457600080fd5b505af41580156111e8573d6000803e3d6000fd5b50505050611276565b6111fc826000611987565b6040805163131836e760e21b8152600b60048201526001600160a01b0384166024820152905173__$d5b3ccc65cce442d78f3b5c2e2932154fa$__91634c60db9c916044808301926000929190829003018186803b15801561125d57600080fd5b505af4158015611271573d6000803e3d6000fd5b505050505b611281826001610f89565b505b5050565b600f5490565b611295611713565b6005546001600160a01b039081169116146112e5576040805162461bcd60e51b815260206004820181905260248201526000805160206121f1833981519152604482015290519081900360640190fd5b610e1081101580156112fa5750620151808111155b6113355760405162461bcd60e51b815260040180806020018281038252604e81526020018061207e604e913960600191505060405180910390fd5b6012548114156113765760405162461bcd60e51b81526004018080602001828103825260408152602001806121396040913960400191505060405180910390fd5b60125460405182907f474ea64804364a1e29a4487ddb63c3342a2dd826ccd8acf48825e680a0e6f20f90600090a3601255565b6113b1611713565b6005546001600160a01b03908116911614611401576040805162461bcd60e51b815260206004820181905260248201526000805160206121f1833981519152604482015290519081900360640190fd5b6001600160a01b0381166114465760405162461bcd60e51b81526004018080602001828103825260268152602001806120366026913960400191505060405180910390fd5b6005546040516001600160a01b038084169216907f8be0079c531659141344cd1fd0a4f28419497f9722a3daafe3b4186f6b6457e090600090a3600580546001600160a01b0319166001600160a01b0392909216919091179055565b600080600080600080600080889750600b73__$d5b3ccc65cce442d78f3b5c2e2932154fa$__6317e142d190918a6040518363ffffffff1660e01b815260040180838152602001826001600160a01b031681526020019250505060206040518083038186803b15801561151457600080fd5b505af4158015611528573d6000803e3d6000fd5b505050506040513d602081101561153e57600080fd5b505196506000199550600087126115a257600f5487111561156e57600f54611567908890611d26565b95506115a2565b600f54600b5460009110611583576000611592565b600f54600b5461159291611a3a565b905061159e8882611941565b9650505b6115ab88610e44565b94506115b6886108a6565b6001600160a01b0389166000908152601160205260409020549094509250826115e05760006115ee565b6012546115ee9084906119e0565b91504282116115fe576000611608565b6116088242611a3a565b9050919395975091939597565b600b546000908190819080611635575050600f546000925082915061170c565b600f546000805a90506000805b898410801561165057508582105b156116fb57600b54600190950194851061166957600094505b6000600b600001868154811061167b57fe5b60009182526020808320909101546001600160a01b031680835260119091526040909120549091506116ac90611d58565b156116c8576116bc816001610f89565b156116c8576001909101905b60019092019160005a9050808511156116f2576116ef6116e88683611a3a565b87906119e0565b95505b93506116429050565b600f85905590975095509193505050505b9193909250565b3390565b6001600160a01b03831661175c5760405162461bcd60e51b81526004018080602001828103825260248152602001806122326024913960400191505060405180910390fd5b6001600160a01b0382166117a15760405162461bcd60e51b815260040180806020018281038252602281526020018061205c6022913960400191505060405180910390fd5b6001600160a01b03808416600081815260016020908152604080832094871680845294825291829020859055815185815291517f8c5be1e5ebec7d5bd14f71427d1e84f3dd0314c0f7b2291e5b200ac8c7c3b9259281900390910190a3505050565b60405162461bcd60e51b815260040180806020018281038252602f815260200180612179602f913960400191505060405180910390fd5b600081848411156118c95760405162461bcd60e51b81526004018080602001828103825283818151815260200191508051906020019080838360005b8381101561188e578181015183820152602001611876565b50505050905090810190601f1680156118bb5780820380516001836020036101000a031916815260200191505b509250505060405180910390fd5b505050900390565b6000826118e0575060006107fb565b828202828482816118ed57fe5b041461192a5760405162461bcd60e51b81526004018080602001828103825260218152602001806121a86021913960400191505060405180910390fd5b9392505050565b600081818112156107fb57600080fd5b60008282018183128015906119565750838112155b8061196b575060008312801561196b57508381125b61192a57600080fd5b60008082121561198357600080fd5b5090565b600061199283610c9e565b9050808211156119ba5760006119a88383611a3a565b90506119b48482611d7f565b50611281565b808210156112815760006119ce8284611a3a565b90506119da8482611de3565b50505050565b60008282018381101561192a576040805162461bcd60e51b815260206004820152601b60248201527f536166654d6174683a206164646974696f6e206f766572666c6f770000000000604482015290519081900360640190fd5b600061192a83836040518060400160405280601e81526020017f536166654d6174683a207375627472616374696f6e206f766572666c6f77000081525061183a565b600080611a8883610e44565b90508015611d1d576001600160a01b038316600090815260096020526040902054611ab390826119e0565b6001600160a01b038416600081815260096020908152604091829020939093558051848152905191927fee503bee2bb6a87e57bc57db795f98137327401a0e7b7ce42e37926cc1a9ca4d92918290030190a2600654600160a01b900460ff1615611c2e5760007f00000000000000000000000000000000000000000000000000000000000000006001600160a01b031663a9059cbb85846040518363ffffffff1660e01b815260040180836001600160a01b0316815260200182815260200192505050602060405180830381600087803b158015611b9057600080fd5b505af1158015611ba4573d6000803e3d6000fd5b505050506040513d6020811015611bba57600080fd5b50516006805460ff60a01b19169055905080611c2c576001600160a01b038416600090815260096020526040902054611bf39083611a3a565b6001600160a01b0385166000908152600960205260408120919091556006805460ff60a01b1916600160a01b1790559250610900915050565b505b600654600160a01b900460ff16611d16576006546040805163a9059cbb60e01b81526001600160a01b038681166004830152602482018590529151600093929092169163a9059cbb9160448082019260209290919082900301818787803b158015611c9857600080fd5b505af1158015611cac573d6000803e3d6000fd5b505050506040513d6020811015611cc257600080fd5b5051905080611d14576001600160a01b038416600090815260096020526040902054611cee9083611a3a565b6001600160a01b0385166000908152600960205260408120919091559250610900915050565b505b9050610900565b50600092915050565b6000818303818312801590611d3b5750838113155b8061196b575060008312801561196b575083811361192a57600080fd5b600042821115611d6a57506000610900565b601254611d774284611a3a565b101592915050565b611d898282611e27565b611dc3611da46108e5836007546118d190919063ffffffff16565b6001600160a01b03841660009081526008602052604090205490611d26565b6001600160a01b0390921660009081526008602052604090209190915550565b611ded8282611f17565b611dc3611e086108e5836007546118d190919063ffffffff16565b6001600160a01b03841660009081526008602052604090205490611941565b6001600160a01b038216611e82576040805162461bcd60e51b815260206004820152601f60248201527f45524332303a206d696e7420746f20746865207a65726f206164647265737300604482015290519081900360640190fd5b611e8e60008383611281565b600254611e9b90826119e0565b6002556001600160a01b038216600090815260208190526040902054611ec190826119e0565b6001600160a01b0383166000818152602081815260408083209490945583518581529351929391927fddf252ad1be2c89b69c2b068fc378daa952ba7f163c4a11628f55a4df523b3ef9281900390910190a35050565b6001600160a01b038216611f5c5760405162461bcd60e51b81526004018080602001828103825260218152602001806122116021913960400191505060405180910390fd5b611f6882600083611281565b611fa581604051806060016040528060228152602001612014602291396001600160a01b038516600090815260208190526040902054919061183a565b6001600160a01b038316600090815260208190526040902055600254611fcb9082611a3a565b6002556040805182815290516000916001600160a01b038516917fddf252ad1be2c89b69c2b068fc378daa952ba7f163c4a11628f55a4df523b3ef9181900360200190a3505056fe45524332303a206275726e20616d6f756e7420657863656564732062616c616e63654f776e61626c653a206e6577206f776e657220697320746865207a65726f206164647265737345524332303a20617070726f766520746f20746865207a65726f20616464726573734241425943414b455f4469766964656e645f547261636b65723a20636c61696d57616974206d757374206265207570646174656420746f206265747765656e203120616e6420323420686f7572734241425943414b455f4469766964656e645f547261636b65723a2077697468647261774469766964656e642064697361626c65642e20557365207468652027636c61696d272066756e6374696f6e206f6e20746865206d61696e204241425943414b4520636f6e74726163742e4241425943414b455f4469766964656e645f547261636b65723a2043616e6e6f742075706461746520636c61696d5761697420746f2073616d652076616c75654241425943414b455f4469766964656e645f547261636b65723a204e6f207472616e736665727320616c6c6f776564536166654d6174683a206d756c7469706c69636174696f6e206f766572666c6f7745524332303a207472616e7366657220616d6f756e74206578636565647320616c6c6f77616e63654f776e61626c653a2063616c6c6572206973206e6f7420746865206f776e657245524332303a206275726e2066726f6d20746865207a65726f206164647265737345524332303a20617070726f76652066726f6d20746865207a65726f206164647265737345524332303a2064656372656173656420616c6c6f77616e63652062656c6f77207a65726fa264697066735822122011a650192964f281b56cd979c88da2fddcb0c9573ff212216e45cb09b792457d64736f6c634300060c00334241425943414b453a204175746f6d61746564206d61726b6574206d616b6572207061697220697320616c72656164792073657420746f20746861742076616c75654241425943414b453a204163636f756e7420697320616c7265616479207468652076616c7565206f6620276578636c7564656427",
    "sourcePath": "/home/null/Desktop/BABYCAKE/Monsta.sol",
    "compiler": {
        "name": "solc",
        "version": "0.6.12+commit.27d51765"
    },
    "functionHashes": {
        "CAKE()": "4ca6ef28",
        "CAKERewardsFee()": "6594aa5f",
        "Monsta()": "4aaa7f0b",
        "_isBlacklisted(address)": "1cdd3be3",
        "_marketingWalletAddress()": "4144d9e4",
        "allowance(address,address)": "dd62ed3e",
        "approve(address,uint256)": "095ea7b3",
        "automatedMarketMakerPairs(address)": "b62496f5",
        "balanceOf(address)": "70a08231",
        "blacklistAddress(address,bool)": "455a4396",
        "c()": "c3da42b8",
        "claim()": "4e71d92d",
        "deadWallet()": "85141a77",
        "decimals()": "313ce567",
        "decreaseAllowance(address,uint256)": "a457c2d7",
        "dividendTokenBalanceOf(address)": "6843cd84",
        "dividendTracker()": "2c1f5216",
        "excludeFromDividends(address)": "31e79db0",
        "excludeFromFees(address,bool)": "c0246668",
        "excludeMultipleAccountsFromFees(address[],bool)": "c492f046",
        "gasForProcessing()": "9c1b8af5",
        "getAccountDividendsInfo(address)": "ad56c13c",
        "getAccountDividendsInfoAtIndex(uint256)": "f27fd254",
        "getClaimWait()": "a26579ad",
        "getLastProcessedIndex()": "e7841ec0",
        "getNumberOfDividendTokenHolders()": "64b0f653",
        "getTotalDividendsDistributed()": "30bb4cff",
        "increaseAllowance(address,uint256)": "39509351",
        "isExcludedFromFees(address)": "4fbee193",
        "liquidityFee()": "98118cb4",
        "marketingFee()": "6b67c4df",
        "name()": "06fdde03",
        "owner()": "8da5cb5b",
        "processDividendTracker(uint256)": "700bb191",
        "renounceOwnership()": "715018a6",
        "setAutomatedMarketMakerPair(address,bool)": "9a7a23d6",
        "setCAKERewardsFee(uint256)": "ac212ab2",
        "setLiquidityFee(uint256)": "357bf15c",
        "setMarketingFee(uint256)": "625e764c",
        "setMarketingWallet(address)": "5d098b38",
        "swapTokensAtAmount()": "e2f45605",
        "symbol()": "95d89b41",
        "totalFees()": "13114a9d",
        "totalSupply()": "18160ddd",
        "transfer(address,uint256)": "a9059cbb",
        "transferFrom(address,address,uint256)": "23b872dd",
        "transferOwnership(address)": "f2fde38b",
        "uniswapV2Pair()": "49bd5a5e",
        "uniswapV2Router()": "1694505e",
        "updateClaimWait(uint256)": "e98030c7",
        "updateDividendTracker(address)": "88bdd9be",
        "updateGasForProcessing(uint256)": "871c128d",
        "updateUniswapV2Router(address)": "65b8dbc0",
        "withdrawableDividendOf(address)": "a8b9d240"
    },
    "gasEstimates": {
        "creation": {
            "codeDepositCost": "3127600",
            "executionCost": "infinite",
            "totalCost": "infinite"
        },
        "external": {
            "CAKE()": "infinite",
            "CAKERewardsFee()": "1065",
            "Monsta()": "1105",
            "_isBlacklisted(address)": "1293",
            "_marketingWalletAddress()": "1106",
            "allowance(address,address)": "1339",
            "approve(address,uint256)": "infinite",
            "automatedMarketMakerPairs(address)": "1225",
            "balanceOf(address)": "1213",
            "blacklistAddress(address,bool)": "infinite",
            "c()": "1160",
            "claim()": "infinite",
            "deadWallet()": "1149",
            "decimals()": "275",
            "decreaseAllowance(address,uint256)": "infinite",
            "dividendTokenBalanceOf(address)": "infinite",
            "dividendTracker()": "1128",
            "excludeFromDividends(address)": "infinite",
            "excludeFromFees(address,bool)": "infinite",
            "excludeMultipleAccountsFromFees(address[],bool)": "infinite",
            "gasForProcessing()": "1087",
            "getAccountDividendsInfo(address)": "infinite",
            "getAccountDividendsInfoAtIndex(uint256)": "infinite",
            "getClaimWait()": "infinite",
            "getLastProcessedIndex()": "infinite",
            "getNumberOfDividendTokenHolders()": "infinite",
            "getTotalDividendsDistributed()": "infinite",
            "increaseAllowance(address,uint256)": "infinite",
            "isExcludedFromFees(address)": "1288",
            "liquidityFee()": "1110",
            "marketingFee()": "1131",
            "name()": "infinite",
            "owner()": "1105",
            "processDividendTracker(uint256)": "infinite",
            "renounceOwnership()": "infinite",
            "setAutomatedMarketMakerPair(address,bool)": "infinite",
            "setCAKERewardsFee(uint256)": "infinite",
            "setLiquidityFee(uint256)": "infinite",
            "setMarketingFee(uint256)": "infinite",
            "setMarketingWallet(address)": "infinite",
            "swapTokensAtAmount()": "1109",
            "symbol()": "infinite",
            "totalFees()": "1089",
            "totalSupply()": "1133",
            "transfer(address,uint256)": "infinite",
            "transferFrom(address,address,uint256)": "infinite",
            "transferOwnership(address)": "infinite",
            "uniswapV2Pair()": "1150",
            "uniswapV2Router()": "1150",
            "updateClaimWait(uint256)": "infinite",
            "updateDividendTracker(address)": "infinite",
            "updateGasForProcessing(uint256)": "infinite",
            "updateUniswapV2Router(address)": "infinite",
            "withdrawableDividendOf(address)": "infinite"
        },
        "internal": {
            "_setAutomatedMarketMakerPair(address,bool)": "infinite",
            "_transfer(address,address,uint256)": "infinite",
            "addLiquidity(uint256,uint256)": "infinite",
            "swapAndLiquify(uint256)": "infinite",
            "swapAndSendDividends(uint256)": "infinite",
            "swapAndSendToFee(uint256)": "infinite",
            "swapTokensForCake(uint256)": "infinite",
            "swapTokensForEth(uint256)": "infinite"
        }
    }
}