{
    "contractName": "MonstaC",
    "abi": [
        {
            "inputs": [],
            "stateMutability": "nonpayable",
            "type": "constructor"
        },
        {
            "anonymous": false,
            "inputs": [
                {
                    "indexed": true,
                    "internalType": "address",
                    "name": "owner",
                    "type": "address"
                },
                {
                    "indexed": true,
                    "internalType": "address",
                    "name": "spender",
                    "type": "address"
                },
                {
                    "indexed": false,
                    "internalType": "uint256",
                    "name": "value",
                    "type": "uint256"
                }
            ],
            "name": "Approval",
            "type": "event"
        },
        {
            "anonymous": false,
            "inputs": [
                {
                    "indexed": true,
                    "internalType": "address",
                    "name": "account",
                    "type": "address"
                },
                {
                    "indexed": false,
                    "internalType": "bool",
                    "name": "isExcluded",
                    "type": "bool"
                }
            ],
            "name": "ExcludeFromFees",
            "type": "event"
        },
        {
            "anonymous": false,
            "inputs": [
                {
                    "indexed": false,
                    "internalType": "address[]",
                    "name": "accounts",
                    "type": "address[]"
                },
                {
                    "indexed": false,
                    "internalType": "bool",
                    "name": "isExcluded",
                    "type": "bool"
                }
            ],
            "name": "ExcludeMultipleAccountsFromFees",
            "type": "event"
        },
        {
            "anonymous": false,
            "inputs": [
                {
                    "indexed": true,
                    "internalType": "uint256",
                    "name": "newValue",
                    "type": "uint256"
                },
                {
                    "indexed": true,
                    "internalType": "uint256",
                    "name": "oldValue",
                    "type": "uint256"
                }
            ],
            "name": "GasForProcessingUpdated",
            "type": "event"
        },
        {
            "anonymous": false,
            "inputs": [
                {
                    "indexed": true,
                    "internalType": "address",
                    "name": "newLiquidityWallet",
                    "type": "address"
                },
                {
                    "indexed": true,
                    "internalType": "address",
                    "name": "oldLiquidityWallet",
                    "type": "address"
                }
            ],
            "name": "LiquidityWalletUpdated",
            "type": "event"
        },
        {
            "anonymous": false,
            "inputs": [
                {
                    "indexed": true,
                    "internalType": "address",
                    "name": "previousOwner",
                    "type": "address"
                },
                {
                    "indexed": true,
                    "internalType": "address",
                    "name": "newOwner",
                    "type": "address"
                }
            ],
            "name": "OwnershipTransferred",
            "type": "event"
        },
        {
            "anonymous": false,
            "inputs": [
                {
                    "indexed": false,
                    "internalType": "uint256",
                    "name": "iterations",
                    "type": "uint256"
                },
                {
                    "indexed": false,
                    "internalType": "uint256",
                    "name": "claims",
                    "type": "uint256"
                },
                {
                    "indexed": false,
                    "internalType": "uint256",
                    "name": "lastProcessedIndex",
                    "type": "uint256"
                },
                {
                    "indexed": true,
                    "internalType": "bool",
                    "name": "automatic",
                    "type": "bool"
                },
                {
                    "indexed": false,
                    "internalType": "uint256",
                    "name": "gas",
                    "type": "uint256"
                },
                {
                    "indexed": true,
                    "internalType": "address",
                    "name": "processor",
                    "type": "address"
                }
            ],
            "name": "ProcessedDividendTracker",
            "type": "event"
        },
        {
            "anonymous": false,
            "inputs": [
                {
                    "indexed": false,
                    "internalType": "uint256",
                    "name": "tokensSwapped",
                    "type": "uint256"
                },
                {
                    "indexed": false,
                    "internalType": "uint256",
                    "name": "amount",
                    "type": "uint256"
                }
            ],
            "name": "SendDividends",
            "type": "event"
        },
        {
            "anonymous": false,
            "inputs": [
                {
                    "indexed": true,
                    "internalType": "address",
                    "name": "pair",
                    "type": "address"
                },
                {
                    "indexed": true,
                    "internalType": "bool",
                    "name": "value",
                    "type": "bool"
                }
            ],
            "name": "SetAutomatedMarketMakerPair",
            "type": "event"
        },
        {
            "anonymous": false,
            "inputs": [
                {
                    "indexed": false,
                    "internalType": "uint256",
                    "name": "tokensSwapped",
                    "type": "uint256"
                },
                {
                    "indexed": false,
                    "internalType": "uint256",
                    "name": "ethReceived",
                    "type": "uint256"
                },
                {
                    "indexed": false,
                    "internalType": "uint256",
                    "name": "tokensIntoLiqudity",
                    "type": "uint256"
                }
            ],
            "name": "SwapAndLiquify",
            "type": "event"
        },
        {
            "anonymous": false,
            "inputs": [
                {
                    "indexed": true,
                    "internalType": "address",
                    "name": "from",
                    "type": "address"
                },
                {
                    "indexed": true,
                    "internalType": "address",
                    "name": "to",
                    "type": "address"
                },
                {
                    "indexed": false,
                    "internalType": "uint256",
                    "name": "value",
                    "type": "uint256"
                }
            ],
            "name": "Transfer",
            "type": "event"
        },
        {
            "anonymous": false,
            "inputs": [
                {
                    "indexed": true,
                    "internalType": "address",
                    "name": "newAddress",
                    "type": "address"
                },
                {
                    "indexed": true,
                    "internalType": "address",
                    "name": "oldAddress",
                    "type": "address"
                }
            ],
            "name": "UpdateDividendTracker",
            "type": "event"
        },
        {
            "anonymous": false,
            "inputs": [
                {
                    "indexed": true,
                    "internalType": "address",
                    "name": "newAddress",
                    "type": "address"
                },
                {
                    "indexed": true,
                    "internalType": "address",
                    "name": "oldAddress",
                    "type": "address"
                }
            ],
            "name": "UpdateUniswapV2Router",
            "type": "event"
        },
        {
            "inputs": [],
            "name": "CAKE",
            "outputs": [
                {
                    "internalType": "address",
                    "name": "",
                    "type": "address"
                }
            ],
            "stateMutability": "view",
            "type": "function"
        },
        {
            "inputs": [],
            "name": "CAKERewardsFee",
            "outputs": [
                {
                    "internalType": "uint256",
                    "name": "",
                    "type": "uint256"
                }
            ],
            "stateMutability": "view",
            "type": "function"
        },
        {
            "inputs": [],
            "name": "MONSTA",
            "outputs": [
                {
                    "internalType": "address",
                    "name": "",
                    "type": "address"
                }
            ],
            "stateMutability": "view",
            "type": "function"
        },
        {
            "inputs": [
                {
                    "internalType": "address",
                    "name": "",
                    "type": "address"
                }
            ],
            "name": "_isBlacklisted",
            "outputs": [
                {
                    "internalType": "bool",
                    "name": "",
                    "type": "bool"
                }
            ],
            "stateMutability": "view",
            "type": "function"
        },
        {
            "inputs": [],
            "name": "_marketingWalletAddress",
            "outputs": [
                {
                    "internalType": "address",
                    "name": "",
                    "type": "address"
                }
            ],
            "stateMutability": "view",
            "type": "function"
        },
        {
            "inputs": [
                {
                    "internalType": "address",
                    "name": "owner",
                    "type": "address"
                },
                {
                    "internalType": "address",
                    "name": "spender",
                    "type": "address"
                }
            ],
            "name": "allowance",
            "outputs": [
                {
                    "internalType": "uint256",
                    "name": "",
                    "type": "uint256"
                }
            ],
            "stateMutability": "view",
            "type": "function"
        },
        {
            "inputs": [
                {
                    "internalType": "address",
                    "name": "spender",
                    "type": "address"
                },
                {
                    "internalType": "uint256",
                    "name": "amount",
                    "type": "uint256"
                }
            ],
            "name": "approve",
            "outputs": [
                {
                    "internalType": "bool",
                    "name": "",
                    "type": "bool"
                }
            ],
            "stateMutability": "nonpayable",
            "type": "function"
        },
        {
            "inputs": [
                {
                    "internalType": "address",
                    "name": "",
                    "type": "address"
                }
            ],
            "name": "automatedMarketMakerPairs",
            "outputs": [
                {
                    "internalType": "bool",
                    "name": "",
                    "type": "bool"
                }
            ],
            "stateMutability": "view",
            "type": "function"
        },
        {
            "inputs": [
                {
                    "internalType": "address",
                    "name": "account",
                    "type": "address"
                }
            ],
            "name": "balanceOf",
            "outputs": [
                {
                    "internalType": "uint256",
                    "name": "",
                    "type": "uint256"
                }
            ],
            "stateMutability": "view",
            "type": "function"
        },
        {
            "inputs": [
                {
                    "internalType": "address",
                    "name": "account",
                    "type": "address"
                },
                {
                    "internalType": "bool",
                    "name": "value",
                    "type": "bool"
                }
            ],
            "name": "blacklistAddress",
            "outputs": [],
            "stateMutability": "nonpayable",
            "type": "function"
        },
        {
            "inputs": [],
            "name": "c",
            "outputs": [
                {
                    "internalType": "bool",
                    "name": "",
                    "type": "bool"
                }
            ],
            "stateMutability": "view",
            "type": "function"
        },
        {
            "inputs": [],
            "name": "claim",
            "outputs": [],
            "stateMutability": "nonpayable",
            "type": "function"
        },
        {
            "inputs": [],
            "name": "deadWallet",
            "outputs": [
                {
                    "internalType": "address",
                    "name": "",
                    "type": "address"
                }
            ],
            "stateMutability": "view",
            "type": "function"
        },
        {
            "inputs": [],
            "name": "decimals",
            "outputs": [
                {
                    "internalType": "uint8",
                    "name": "",
                    "type": "uint8"
                }
            ],
            "stateMutability": "view",
            "type": "function"
        },
        {
            "inputs": [
                {
                    "internalType": "address",
                    "name": "spender",
                    "type": "address"
                },
                {
                    "internalType": "uint256",
                    "name": "subtractedValue",
                    "type": "uint256"
                }
            ],
            "name": "decreaseAllowance",
            "outputs": [
                {
                    "internalType": "bool",
                    "name": "",
                    "type": "bool"
                }
            ],
            "stateMutability": "nonpayable",
            "type": "function"
        },
        {
            "inputs": [
                {
                    "internalType": "address",
                    "name": "account",
                    "type": "address"
                }
            ],
            "name": "dividendTokenBalanceOf",
            "outputs": [
                {
                    "internalType": "uint256",
                    "name": "",
                    "type": "uint256"
                }
            ],
            "stateMutability": "view",
            "type": "function"
        },
        {
            "inputs": [],
            "name": "dividendTracker",
            "outputs": [
                {
                    "internalType": "contract BABYCAKEDividendTracker",
                    "name": "",
                    "type": "address"
                }
            ],
            "stateMutability": "view",
            "type": "function"
        },
        {
            "inputs": [
                {
                    "internalType": "address",
                    "name": "account",
                    "type": "address"
                }
            ],
            "name": "excludeFromDividends",
            "outputs": [],
            "stateMutability": "nonpayable",
            "type": "function"
        },
        {
            "inputs": [
                {
                    "internalType": "address",
                    "name": "account",
                    "type": "address"
                },
                {
                    "internalType": "bool",
                    "name": "excluded",
                    "type": "bool"
                }
            ],
            "name": "excludeFromFees",
            "outputs": [],
            "stateMutability": "nonpayable",
            "type": "function"
        },
        {
            "inputs": [
                {
                    "internalType": "address[]",
                    "name": "accounts",
                    "type": "address[]"
                },
                {
                    "internalType": "bool",
                    "name": "excluded",
                    "type": "bool"
                }
            ],
            "name": "excludeMultipleAccountsFromFees",
            "outputs": [],
            "stateMutability": "nonpayable",
            "type": "function"
        },
        {
            "inputs": [],
            "name": "gasForProcessing",
            "outputs": [
                {
                    "internalType": "uint256",
                    "name": "",
                    "type": "uint256"
                }
            ],
            "stateMutability": "view",
            "type": "function"
        },
        {
            "inputs": [
                {
                    "internalType": "address",
                    "name": "account",
                    "type": "address"
                }
            ],
            "name": "getAccountDividendsInfo",
            "outputs": [
                {
                    "internalType": "address",
                    "name": "",
                    "type": "address"
                },
                {
                    "internalType": "int256",
                    "name": "",
                    "type": "int256"
                },
                {
                    "internalType": "int256",
                    "name": "",
                    "type": "int256"
                },
                {
                    "internalType": "uint256",
                    "name": "",
                    "type": "uint256"
                },
                {
                    "internalType": "uint256",
                    "name": "",
                    "type": "uint256"
                },
                {
                    "internalType": "uint256",
                    "name": "",
                    "type": "uint256"
                },
                {
                    "internalType": "uint256",
                    "name": "",
                    "type": "uint256"
                },
                {
                    "internalType": "uint256",
                    "name": "",
                    "type": "uint256"
                }
            ],
            "stateMutability": "view",
            "type": "function"
        },
        {
            "inputs": [
                {
                    "internalType": "uint256",
                    "name": "index",
                    "type": "uint256"
                }
            ],
            "name": "getAccountDividendsInfoAtIndex",
            "outputs": [
                {
                    "internalType": "address",
                    "name": "",
                    "type": "address"
                },
                {
                    "internalType": "int256",
                    "name": "",
                    "type": "int256"
                },
                {
                    "internalType": "int256",
                    "name": "",
                    "type": "int256"
                },
                {
                    "internalType": "uint256",
                    "name": "",
                    "type": "uint256"
                },
                {
                    "internalType": "uint256",
                    "name": "",
                    "type": "uint256"
                },
                {
                    "internalType": "uint256",
                    "name": "",
                    "type": "uint256"
                },
                {
                    "internalType": "uint256",
                    "name": "",
                    "type": "uint256"
                },
                {
                    "internalType": "uint256",
                    "name": "",
                    "type": "uint256"
                }
            ],
            "stateMutability": "view",
            "type": "function"
        },
        {
            "inputs": [],
            "name": "getClaimWait",
            "outputs": [
                {
                    "internalType": "uint256",
                    "name": "",
                    "type": "uint256"
                }
            ],
            "stateMutability": "view",
            "type": "function"
        },
        {
            "inputs": [],
            "name": "getLastProcessedIndex",
            "outputs": [
                {
                    "internalType": "uint256",
                    "name": "",
                    "type": "uint256"
                }
            ],
            "stateMutability": "view",
            "type": "function"
        },
        {
            "inputs": [],
            "name": "getNumberOfDividendTokenHolders",
            "outputs": [
                {
                    "internalType": "uint256",
                    "name": "",
                    "type": "uint256"
                }
            ],
            "stateMutability": "view",
            "type": "function"
        },
        {
            "inputs": [],
            "name": "getTotalDividendsDistributed",
            "outputs": [
                {
                    "internalType": "uint256",
                    "name": "",
                    "type": "uint256"
                }
            ],
            "stateMutability": "view",
            "type": "function"
        },
        {
            "inputs": [
                {
                    "internalType": "address",
                    "name": "spender",
                    "type": "address"
                },
                {
                    "internalType": "uint256",
                    "name": "addedValue",
                    "type": "uint256"
                }
            ],
            "name": "increaseAllowance",
            "outputs": [
                {
                    "internalType": "bool",
                    "name": "",
                    "type": "bool"
                }
            ],
            "stateMutability": "nonpayable",
            "type": "function"
        },
        {
            "inputs": [
                {
                    "internalType": "address",
                    "name": "account",
                    "type": "address"
                }
            ],
            "name": "isExcludedFromFees",
            "outputs": [
                {
                    "internalType": "bool",
                    "name": "",
                    "type": "bool"
                }
            ],
            "stateMutability": "view",
            "type": "function"
        },
        {
            "inputs": [],
            "name": "liquidityFee",
            "outputs": [
                {
                    "internalType": "uint256",
                    "name": "",
                    "type": "uint256"
                }
            ],
            "stateMutability": "view",
            "type": "function"
        },
        {
            "inputs": [],
            "name": "marketingFee",
            "outputs": [
                {
                    "internalType": "uint256",
                    "name": "",
                    "type": "uint256"
                }
            ],
            "stateMutability": "view",
            "type": "function"
        },
        {
            "inputs": [],
            "name": "name",
            "outputs": [
                {
                    "internalType": "string",
                    "name": "",
                    "type": "string"
                }
            ],
            "stateMutability": "view",
            "type": "function"
        },
        {
            "inputs": [],
            "name": "owner",
            "outputs": [
                {
                    "internalType": "address",
                    "name": "",
                    "type": "address"
                }
            ],
            "stateMutability": "view",
            "type": "function"
        },
        {
            "inputs": [
                {
                    "internalType": "uint256",
                    "name": "gas",
                    "type": "uint256"
                }
            ],
            "name": "processDividendTracker",
            "outputs": [],
            "stateMutability": "nonpayable",
            "type": "function"
        },
        {
            "inputs": [],
            "name": "renounceOwnership",
            "outputs": [],
            "stateMutability": "nonpayable",
            "type": "function"
        },
        {
            "inputs": [
                {
                    "internalType": "address",
                    "name": "pair",
                    "type": "address"
                },
                {
                    "internalType": "bool",
                    "name": "value",
                    "type": "bool"
                }
            ],
            "name": "setAutomatedMarketMakerPair",
            "outputs": [],
            "stateMutability": "nonpayable",
            "type": "function"
        },
        {
            "inputs": [
                {
                    "internalType": "uint256",
                    "name": "value",
                    "type": "uint256"
                }
            ],
            "name": "setCAKERewardsFee",
            "outputs": [],
            "stateMutability": "nonpayable",
            "type": "function"
        },
        {
            "inputs": [
                {
                    "internalType": "uint256",
                    "name": "value",
                    "type": "uint256"
                }
            ],
            "name": "setLiquidityFee",
            "outputs": [],
            "stateMutability": "nonpayable",
            "type": "function"
        },
        {
            "inputs": [
                {
                    "internalType": "uint256",
                    "name": "value",
                    "type": "uint256"
                }
            ],
            "name": "setMarketingFee",
            "outputs": [],
            "stateMutability": "nonpayable",
            "type": "function"
        },
        {
            "inputs": [
                {
                    "internalType": "address payable",
                    "name": "wallet",
                    "type": "address"
                }
            ],
            "name": "setMarketingWallet",
            "outputs": [],
            "stateMutability": "nonpayable",
            "type": "function"
        },
        {
            "inputs": [],
            "name": "swapTokensAtAmount",
            "outputs": [
                {
                    "internalType": "uint256",
                    "name": "",
                    "type": "uint256"
                }
            ],
            "stateMutability": "view",
            "type": "function"
        },
        {
            "inputs": [],
            "name": "symbol",
            "outputs": [
                {
                    "internalType": "string",
                    "name": "",
                    "type": "string"
                }
            ],
            "stateMutability": "view",
            "type": "function"
        },
        {
            "inputs": [],
            "name": "totalFees",
            "outputs": [
                {
                    "internalType": "uint256",
                    "name": "",
                    "type": "uint256"
                }
            ],
            "stateMutability": "view",
            "type": "function"
        },
        {
            "inputs": [],
            "name": "totalSupply",
            "outputs": [
                {
                    "internalType": "uint256",
                    "name": "",
                    "type": "uint256"
                }
            ],
            "stateMutability": "view",
            "type": "function"
        },
        {
            "inputs": [
                {
                    "internalType": "address",
                    "name": "recipient",
                    "type": "address"
                },
                {
                    "internalType": "uint256",
                    "name": "amount",
                    "type": "uint256"
                }
            ],
            "name": "transfer",
            "outputs": [
                {
                    "internalType": "bool",
                    "name": "",
                    "type": "bool"
                }
            ],
            "stateMutability": "nonpayable",
            "type": "function"
        },
        {
            "inputs": [
                {
                    "internalType": "address",
                    "name": "sender",
                    "type": "address"
                },
                {
                    "internalType": "address",
                    "name": "recipient",
                    "type": "address"
                },
                {
                    "internalType": "uint256",
                    "name": "amount",
                    "type": "uint256"
                }
            ],
            "name": "transferFrom",
            "outputs": [
                {
                    "internalType": "bool",
                    "name": "",
                    "type": "bool"
                }
            ],
            "stateMutability": "nonpayable",
            "type": "function"
        },
        {
            "inputs": [
                {
                    "internalType": "address",
                    "name": "newOwner",
                    "type": "address"
                }
            ],
            "name": "transferOwnership",
            "outputs": [],
            "stateMutability": "nonpayable",
            "type": "function"
        },
        {
            "inputs": [],
            "name": "uniswapV2Pair",
            "outputs": [
                {
                    "internalType": "address",
                    "name": "",
                    "type": "address"
                }
            ],
            "stateMutability": "view",
            "type": "function"
        },
        {
            "inputs": [],
            "name": "uniswapV2Router",
            "outputs": [
                {
                    "internalType": "contract IUniswapV2Router02",
                    "name": "",
                    "type": "address"
                }
            ],
            "stateMutability": "view",
            "type": "function"
        },
        {
            "inputs": [
                {
                    "internalType": "uint256",
                    "name": "claimWait",
                    "type": "uint256"
                }
            ],
            "name": "updateClaimWait",
            "outputs": [],
            "stateMutability": "nonpayable",
            "type": "function"
        },
        {
            "inputs": [
                {
                    "internalType": "address",
                    "name": "newAddress",
                    "type": "address"
                }
            ],
            "name": "updateDividendTracker",
            "outputs": [],
            "stateMutability": "nonpayable",
            "type": "function"
        },
        {
            "inputs": [
                {
                    "internalType": "uint256",
                    "name": "newValue",
                    "type": "uint256"
                }
            ],
            "name": "updateGasForProcessing",
            "outputs": [],
            "stateMutability": "nonpayable",
            "type": "function"
        },
        {
            "inputs": [
                {
                    "internalType": "address",
                    "name": "newAddress",
                    "type": "address"
                }
            ],
            "name": "updateUniswapV2Router",
            "outputs": [],
            "stateMutability": "nonpayable",
            "type": "function"
        },
        {
            "inputs": [
                {
                    "internalType": "address",
                    "name": "account",
                    "type": "address"
                }
            ],
            "name": "withdrawableDividendOf",
            "outputs": [
                {
                    "internalType": "uint256",
                    "name": "",
                    "type": "uint256"
                }
            ],
            "stateMutability": "view",
            "type": "function"
        },
        {
            "stateMutability": "payable",
            "type": "receive"
        }
    ],
    "bytecode": "60c06040526009805461dead6001600160a01b03199091161790557f0e09fabb73bd3ade0a17ecc321fd13a19e81ce820000000000000000000000006080527f8a5d7fcd4c90421d21d30fcc4435948ac3618b2f00000000000000000000000060a0526a01a784379d99db42000000600a556005600c8190556003600d819055600e819055620000b591620000a1908262000651602090811b6200246717901c565b6200065160201b620024671790919060201c565b600f55601080546001600160a01b0319167324e21ef2c3c9c93b5791d77cf934bf92a91276ba179055620493e0601155348015620000f257600080fd5b50604051806040016040528060068152602001654d4f4e53544160d01b815250604051806040016040528060038152602001621354d560ea1b81525081600390805190602001906200014692919062000a3a565b5080516200015c90600490602084019062000a3a565b505050600062000171620006b360201b60201c565b600580546001600160a01b0319166001600160a01b038316908117909155604051919250906000907f8be0079c531659141344cd1fd0a4f28419497f9722a3daafe3b4186f6b6457e0908290a350604051620001cd9062000abf565b604051809103906000f080158015620001ea573d6000803e3d6000fd5b50600860006101000a8154816001600160a01b0302191690836001600160a01b0316021790555060007310ed43c718714eb63d5aa57b78b54704e256024e90506000816001600160a01b031663c45a01556040518163ffffffff1660e01b815260040160206040518083038186803b1580156200026657600080fd5b505afa1580156200027b573d6000803e3d6000fd5b505050506040513d60208110156200029257600080fd5b5051604080516315ab88c960e31b815290516001600160a01b039283169263c9c653969230929187169163ad5c464891600480820192602092909190829003018186803b158015620002e357600080fd5b505afa158015620002f8573d6000803e3d6000fd5b505050506040513d60208110156200030f57600080fd5b5051604080516001600160e01b031960e086901b1681526001600160a01b0393841660048201529290911660248301525160448083019260209291908290030181600087803b1580156200036257600080fd5b505af115801562000377573d6000803e3d6000fd5b505050506040513d60208110156200038e57600080fd5b5051600680546001600160a01b038086166001600160a01b03199283161790925560078054928416929091169190911790559050620003cf816001620006b7565b6008546040805163031e79db60e41b81526001600160a01b0390921660048301819052905190916331e79db091602480830192600092919082900301818387803b1580156200041d57600080fd5b505af115801562000432573d6000803e3d6000fd5b50506008546040805163031e79db60e41b815230600482015290516001600160a01b0390921693506331e79db0925060248082019260009290919082900301818387803b1580156200048357600080fd5b505af115801562000498573d6000803e3d6000fd5b50506008546001600160a01b031691506331e79db09050620004b9620007ea565b6040518263ffffffff1660e01b815260040180826001600160a01b03168152602001915050600060405180830381600087803b158015620004f957600080fd5b505af11580156200050e573d6000803e3d6000fd5b50506008546009546040805163031e79db60e41b81526001600160a01b03928316600482015290519190921693506331e79db09250602480830192600092919082900301818387803b1580156200056457600080fd5b505af115801562000579573d6000803e3d6000fd5b50506008546040805163031e79db60e41b81526001600160a01b03878116600483015291519190921693506331e79db09250602480830192600092919082900301818387803b158015620005cc57600080fd5b505af1158015620005e1573d6000803e3d6000fd5b5050505062000601620005f9620007ea60201b60201c565b6001620007f9565b6010546200061a906001600160a01b03166001620007f9565b62000627306001620007f9565b6200064962000635620007ea565b6c01431e0fae6d7217caa000000062000926565b505062000ae4565b600082820183811015620006ac576040805162461bcd60e51b815260206004820152601b60248201527f536166654d6174683a206164646974696f6e206f766572666c6f770000000000604482015290519081900360640190fd5b9392505050565b3390565b6001600160a01b03821660009081526013602052604090205460ff1615158115151415620007175760405162461bcd60e51b8152600401808060200182810382526040815260200180620070626040913960400191505060405180910390fd5b6001600160a01b0382166000908152601360205260409020805460ff19168215801591909117909155620007ae576008546040805163031e79db60e41b81526001600160a01b038581166004830152915191909216916331e79db091602480830192600092919082900301818387803b1580156200079457600080fd5b505af1158015620007a9573d6000803e3d6000fd5b505050505b604051811515906001600160a01b038416907fffa9187bf1f18bf477bd0ea1bcbb64e93b6a98132473929edfce215cd9b16fab90600090a35050565b6005546001600160a01b031690565b62000803620006b3565b6005546001600160a01b0390811691161462000866576040805162461bcd60e51b815260206004820181905260248201527f4f776e61626c653a2063616c6c6572206973206e6f7420746865206f776e6572604482015290519081900360640190fd5b6001600160a01b03821660009081526012602052604090205460ff1615158115151415620008c65760405162461bcd60e51b8152600401808060200182810382526032815260200180620070a26032913960400191505060405180910390fd5b6001600160a01b038216600081815260126020908152604091829020805460ff1916851515908117909155825190815291517f9d8f7706ea1113d1a167b526eca956215946dd36cc7df39eb16180222d8b5df79281900390910190a25050565b6001600160a01b03821662000982576040805162461bcd60e51b815260206004820152601f60248201527f45524332303a206d696e7420746f20746865207a65726f206164647265737300604482015290519081900360640190fd5b620009906000838362000a35565b620009ac816002546200065160201b620024671790919060201c565b6002556001600160a01b03821660009081526020818152604090912054620009df9183906200246762000651821b17901c565b6001600160a01b0383166000818152602081815260408083209490945583518581529351929391927fddf252ad1be2c89b69c2b068fc378daa952ba7f163c4a11628f55a4df523b3ef9281900390910190a35050565b505050565b828054600181600116156101000203166002900490600052602060002090601f016020900481019282601f1062000a7d57805160ff191683800117855562000aad565b8280016001018555821562000aad579182015b8281111562000aad57825182559160200191906001019062000a90565b5062000abb92915062000acd565b5090565b6124c48062004b9e83390190565b5b8082111562000abb576000815560010162000ace565b60805160601c60a05160601c61405462000b4a600039806121f65280612f3e528061314a52806131e4528061351452806135dd5280613a925250806110ad5280612e815280612fd652806130a252806132fe52806133c7528061389c52506140546000f3fe6080604052600436106103395760003560e01c806370a08231116101ab578063a9059cbb116100f7578063dd62ed3e11610095578063e7841ec01161006f578063e7841ec014610bec578063e98030c714610c01578063f27fd25414610c2b578063f2fde38b14610c5557610340565b8063dd62ed3e14610b87578063ddffd01514610bc2578063e2f4560514610bd757610340565b8063b62496f5116100d1578063b62496f514610a85578063c024666814610ab8578063c3da42b814610af3578063c492f04614610b0857610340565b8063a9059cbb146109a4578063ac212ab2146109dd578063ad56c13c14610a0757610340565b806395d89b41116101645780639c1b8af51161013e5780639c1b8af51461090e578063a26579ad14610923578063a457c2d714610938578063a8b9d2401461097157610340565b806395d89b41146108a957806398118cb4146108be5780639a7a23d6146108d357610340565b806370a08231146107da578063715018a61461080d57806385141a7714610822578063871c128d1461083757806388bdd9be146108615780638da5cb5b1461089457610340565b80634144d9e411610285578063625e764c1161022357806365b8dbc0116101fd57806365b8dbc0146107355780636843cd84146107685780636b67c4df1461079b578063700bb191146107b057610340565b8063625e764c146106e157806364b0f6531461070b5780636594aa5f1461072057610340565b80634ca6ef281161025f5780634ca6ef28146106515780634e71d92d146106665780634fbee1931461067b5780635d098b38146106ae57610340565b80634144d9e4146105ec578063455a43961461060157806349bd5a5e1461063c57610340565b806323b872dd116102f2578063313ce567116102cc578063313ce5671461052957806331e79db014610554578063357bf15c1461058957806339509351146105b357610340565b806323b872dd146104bc5780632c1f5216146104ff57806330bb4cff1461051457610340565b806306fdde0314610345578063095ea7b3146103cf57806313114a9d1461041c5780631694505e1461044357806318160ddd146104745780631cdd3be31461048957610340565b3661034057005b600080fd5b34801561035157600080fd5b5061035a610c88565b6040805160208082528351818301528351919283929083019185019080838360005b8381101561039457818101518382015260200161037c565b50505050905090810190601f1680156103c15780820380516001836020036101000a031916815260200191505b509250505060405180910390f35b3480156103db57600080fd5b50610408600480360360408110156103f257600080fd5b506001600160a01b038135169060200135610d1e565b604080519115158252519081900360200190f35b34801561042857600080fd5b50610431610d3c565b60408051918252519081900360200190f35b34801561044f57600080fd5b50610458610d42565b604080516001600160a01b039092168252519081900360200190f35b34801561048057600080fd5b50610431610d51565b34801561049557600080fd5b50610408600480360360208110156104ac57600080fd5b50356001600160a01b0316610d57565b3480156104c857600080fd5b50610408600480360360608110156104df57600080fd5b506001600160a01b03813581169160208101359091169060400135610d6c565b34801561050b57600080fd5b50610458610df3565b34801561052057600080fd5b50610431610e02565b34801561053557600080fd5b5061053e610e78565b6040805160ff9092168252519081900360200190f35b34801561056057600080fd5b506105876004803603602081101561057757600080fd5b50356001600160a01b0316610e7d565b005b34801561059557600080fd5b50610587600480360360208110156105ac57600080fd5b5035610f3e565b3480156105bf57600080fd5b50610408600480360360408110156105d657600080fd5b506001600160a01b038135169060200135610fbc565b3480156105f857600080fd5b5061045861100a565b34801561060d57600080fd5b506105876004803603604081101561062457600080fd5b506001600160a01b0381351690602001351515611019565b34801561064857600080fd5b5061045861109c565b34801561065d57600080fd5b506104586110ab565b34801561067257600080fd5b506105876110cf565b34801561068757600080fd5b506104086004803603602081101561069e57600080fd5b50356001600160a01b0316611154565b3480156106ba57600080fd5b50610587600480360360208110156106d157600080fd5b50356001600160a01b0316611172565b3480156106ed57600080fd5b506105876004803603602081101561070457600080fd5b50356111ec565b34801561071757600080fd5b5061043161125e565b34801561072c57600080fd5b506104316112a3565b34801561074157600080fd5b506105876004803603602081101561075857600080fd5b50356001600160a01b03166112a9565b34801561077457600080fd5b506104316004803603602081101561078b57600080fd5b50356001600160a01b031661152e565b3480156107a757600080fd5b506104316115b1565b3480156107bc57600080fd5b50610587600480360360208110156107d357600080fd5b50356115b7565b3480156107e657600080fd5b50610431600480360360208110156107fd57600080fd5b50356001600160a01b031661169e565b34801561081957600080fd5b506105876116b9565b34801561082e57600080fd5b5061045861175b565b34801561084357600080fd5b506105876004803603602081101561085a57600080fd5b503561176a565b34801561086d57600080fd5b506105876004803603602081101561088457600080fd5b50356001600160a01b0316611887565b3480156108a057600080fd5b50610458611bde565b3480156108b557600080fd5b5061035a611bed565b3480156108ca57600080fd5b50610431611c4e565b3480156108df57600080fd5b50610587600480360360408110156108f657600080fd5b506001600160a01b0381351690602001351515611c54565b34801561091a57600080fd5b50610431611d03565b34801561092f57600080fd5b50610431611d09565b34801561094457600080fd5b506104086004803603604081101561095b57600080fd5b506001600160a01b038135169060200135611d4e565b34801561097d57600080fd5b506104316004803603602081101561099457600080fd5b50356001600160a01b0316611db6565b3480156109b057600080fd5b50610408600480360360408110156109c757600080fd5b506001600160a01b038135169060200135611e07565b3480156109e957600080fd5b5061058760048036036020811015610a0057600080fd5b5035611e1b565b348015610a1357600080fd5b50610a3a60048036036020811015610a2a57600080fd5b50356001600160a01b0316611e8e565b604080516001600160a01b0390991689526020890197909752878701959095526060870193909352608086019190915260a085015260c084015260e083015251908190036101000190f35b348015610a9157600080fd5b5061040860048036036020811015610aa857600080fd5b50356001600160a01b0316611f6e565b348015610ac457600080fd5b5061058760048036036040811015610adb57600080fd5b506001600160a01b0381351690602001351515611f83565b348015610aff57600080fd5b50610408612099565b348015610b1457600080fd5b5061058760048036036040811015610b2b57600080fd5b810190602081018135640100000000811115610b4657600080fd5b820183602082011115610b5857600080fd5b80359060200191846020830284011164010000000083111715610b7a57600080fd5b91935091503515156120a9565b348015610b9357600080fd5b5061043160048036036040811015610baa57600080fd5b506001600160a01b03813581169160200135166121c9565b348015610bce57600080fd5b506104586121f4565b348015610be357600080fd5b50610431612218565b348015610bf857600080fd5b5061043161221e565b348015610c0d57600080fd5b5061058760048036036020811015610c2457600080fd5b5035612263565b348015610c3757600080fd5b50610a3a60048036036020811015610c4e57600080fd5b5035612308565b348015610c6157600080fd5b5061058760048036036020811015610c7857600080fd5b50356001600160a01b031661236e565b60038054604080516020601f6002600019610100600188161502019095169490940493840181900481028201810190925282815260609390929091830182828015610d145780601f10610ce957610100808354040283529160200191610d14565b820191906000526020600020905b815481529060010190602001808311610cf757829003601f168201915b5050505050905090565b6000610d32610d2b6124c8565b84846124cc565b5060015b92915050565b600f5481565b6006546001600160a01b031681565b60025490565b600b6020526000908152604090205460ff1681565b6000610d798484846125b8565b610de984610d856124c8565b610de485604051806060016040528060288152602001613e97602891396001600160a01b038a16600090815260016020526040812090610dc36124c8565b6001600160a01b031681526020810191909152604001600020549190612ac2565b6124cc565b5060019392505050565b6008546001600160a01b031681565b600854604080516342d359d760e11b815290516000926001600160a01b0316916385a6b3ae916004808301926020929190829003018186803b158015610e4757600080fd5b505afa158015610e5b573d6000803e3d6000fd5b505050506040513d6020811015610e7157600080fd5b5051905090565b601290565b610e856124c8565b6005546001600160a01b03908116911614610ed5576040805162461bcd60e51b81526020600482018190526024820152600080516020613eff833981519152604482015290519081900360640190fd5b6008546040805163031e79db60e41b81526001600160a01b038481166004830152915191909216916331e79db091602480830192600092919082900301818387803b158015610f2357600080fd5b505af1158015610f37573d6000803e3d6000fd5b5050505050565b610f466124c8565b6005546001600160a01b03908116911614610f96576040805162461bcd60e51b81526020600482018190526024820152600080516020613eff833981519152604482015290519081900360640190fd5b600d819055600e54600c54610fb69190610fb09084612467565b90612467565b600f5550565b6000610d32610fc96124c8565b84610de48560016000610fda6124c8565b6001600160a01b03908116825260208083019390935260409182016000908120918c168152925290205490612467565b6010546001600160a01b031681565b6110216124c8565b6005546001600160a01b03908116911614611071576040805162461bcd60e51b81526020600482018190526024820152600080516020613eff833981519152604482015290519081900360640190fd5b6001600160a01b03919091166000908152600b60205260409020805460ff1916911515919091179055565b6007546001600160a01b031681565b7f000000000000000000000000000000000000000000000000000000000000000081565b6008546040805163bc4c4b3760e01b815233600482015260006024820181905291516001600160a01b039093169263bc4c4b3792604480840193602093929083900390910190829087803b15801561112657600080fd5b505af115801561113a573d6000803e3d6000fd5b505050506040513d602081101561115057600080fd5b5050565b6001600160a01b031660009081526012602052604090205460ff1690565b61117a6124c8565b6005546001600160a01b039081169116146111ca576040805162461bcd60e51b81526020600482018190526024820152600080516020613eff833981519152604482015290519081900360640190fd5b601080546001600160a01b0319166001600160a01b0392909216919091179055565b6111f46124c8565b6005546001600160a01b03908116911614611244576040805162461bcd60e51b81526020600482018190526024820152600080516020613eff833981519152604482015290519081900360640190fd5b600e819055600d54600c54610fb6918391610fb091612467565b600854604080516304ddf6ef60e11b815290516000926001600160a01b0316916309bbedde916004808301926020929190829003018186803b158015610e4757600080fd5b600c5481565b6112b16124c8565b6005546001600160a01b03908116911614611301576040805162461bcd60e51b81526020600482018190526024820152600080516020613eff833981519152604482015290519081900360640190fd5b6006546001600160a01b038281169116141561134e5760405162461bcd60e51b815260040180806020018281038252602b815260200180613f1f602b913960400191505060405180910390fd5b6006546040516001600160a01b03918216918316907f8fc842bbd331dfa973645f4ed48b11683d501ebf1352708d77a5da2ab49a576e90600090a3600680546001600160a01b0319166001600160a01b0383811691909117918290556040805163c45a015560e01b815290516000939092169163c45a015591600480820192602092909190829003018186803b1580156113e757600080fd5b505afa1580156113fb573d6000803e3d6000fd5b505050506040513d602081101561141157600080fd5b5051600654604080516315ab88c960e31b815290516001600160a01b039384169363c9c6539693309391169163ad5c464891600480820192602092909190829003018186803b15801561146357600080fd5b505afa158015611477573d6000803e3d6000fd5b505050506040513d602081101561148d57600080fd5b5051604080516001600160e01b031960e086901b1681526001600160a01b0393841660048201529290911660248301525160448083019260209291908290030181600087803b1580156114df57600080fd5b505af11580156114f3573d6000803e3d6000fd5b505050506040513d602081101561150957600080fd5b5051600780546001600160a01b0319166001600160a01b039092169190911790555050565b600854604080516370a0823160e01b81526001600160a01b038481166004830152915160009392909216916370a0823191602480820192602092909190829003018186803b15801561157f57600080fd5b505afa158015611593573d6000803e3d6000fd5b505050506040513d60208110156115a957600080fd5b505192915050565b600e5481565b600854604080516001624d3b8760e01b03198152600481018490529051600092839283926001600160a01b039092169163ffb2c4799160248082019260609290919082900301818787803b15801561160e57600080fd5b505af1158015611622573d6000803e3d6000fd5b505050506040513d606081101561163857600080fd5b5080516020808301516040938401518451848152928301829052828501819052606083018990529351929650945091925032916000917fc864333d6121033635ab41b29ae52f10a22cf4438c3e4f1c4c68518feb2f8a989181900360800190a350505050565b6001600160a01b031660009081526020819052604090205490565b6116c16124c8565b6005546001600160a01b03908116911614611711576040805162461bcd60e51b81526020600482018190526024820152600080516020613eff833981519152604482015290519081900360640190fd5b6005546040516000916001600160a01b0316907f8be0079c531659141344cd1fd0a4f28419497f9722a3daafe3b4186f6b6457e0908390a3600580546001600160a01b0319169055565b6009546001600160a01b031681565b6117726124c8565b6005546001600160a01b039081169116146117c2576040805162461bcd60e51b81526020600482018190526024820152600080516020613eff833981519152604482015290519081900360640190fd5b62030d4081101580156117d857506207a1208111155b6118135760405162461bcd60e51b815260040180806020018281038252603c815260200180613def603c913960400191505060405180910390fd5b6011548114156118545760405162461bcd60e51b8152600401808060200182810382526034815260200180613dbb6034913960400191505060405180910390fd5b60115460405182907f40d7e40e79af4e8e5a9b3c57030d8ea93f13d669c06d448c4d631d4ae7d23db790600090a3601155565b61188f6124c8565b6005546001600160a01b039081169116146118df576040805162461bcd60e51b81526020600482018190526024820152600080516020613eff833981519152604482015290519081900360640190fd5b6008546001600160a01b038281169116141561192c5760405162461bcd60e51b8152600401808060200182810382526035815260200180613f6f6035913960400191505060405180910390fd5b6000819050306001600160a01b0316816001600160a01b0316638da5cb5b6040518163ffffffff1660e01b815260040160206040518083038186803b15801561197457600080fd5b505afa158015611988573d6000803e3d6000fd5b505050506040513d602081101561199e57600080fd5b50516001600160a01b0316146119e55760405162461bcd60e51b815260040180806020018281038252604b815260200180613e2b604b913960600191505060405180910390fd5b806001600160a01b03166331e79db0826040518263ffffffff1660e01b815260040180826001600160a01b03168152602001915050600060405180830381600087803b158015611a3457600080fd5b505af1158015611a48573d6000803e3d6000fd5b50506040805163031e79db60e41b815230600482015290516001600160a01b03851693506331e79db09250602480830192600092919082900301818387803b158015611a9357600080fd5b505af1158015611aa7573d6000803e3d6000fd5b50505050806001600160a01b03166331e79db0611ac2611bde565b6040518263ffffffff1660e01b815260040180826001600160a01b03168152602001915050600060405180830381600087803b158015611b0157600080fd5b505af1158015611b15573d6000803e3d6000fd5b50506006546040805163031e79db60e41b81526001600160a01b039283166004820152905191851693506331e79db0925060248082019260009290919082900301818387803b158015611b6757600080fd5b505af1158015611b7b573d6000803e3d6000fd5b50506008546040516001600160a01b03918216935090851691507f90c7d74461c613da5efa97d90740869367d74ab3aa5837aa4ae9a975f954b7a890600090a3600880546001600160a01b0319166001600160a01b039290921691909117905550565b6005546001600160a01b031690565b60048054604080516020601f6002600019610100600188161502019095169490940493840181900481028201810190925282815260609390929091830182828015610d145780601f10610ce957610100808354040283529160200191610d14565b600d5481565b611c5c6124c8565b6005546001600160a01b03908116911614611cac576040805162461bcd60e51b81526020600482018190526024820152600080516020613eff833981519152604482015290519081900360640190fd5b6007546001600160a01b0383811691161415611cf95760405162461bcd60e51b815260040180806020018281038252604d815260200180613cdd604d913960600191505060405180910390fd5b6111508282612b59565b60115481565b60085460408051631bc9e27b60e21b815290516000926001600160a01b031691636f2789ec916004808301926020929190829003018186803b158015610e4757600080fd5b6000610d32611d5b6124c8565b84610de485604051806060016040528060258152602001613ffa6025913960016000611d856124c8565b6001600160a01b03908116825260208083019390935260409182016000908120918d16815292529020549190612ac2565b600854604080516302a2e74960e61b81526001600160a01b0384811660048301529151600093929092169163a8b9d24091602480820192602092909190829003018186803b15801561157f57600080fd5b6000610d32611e146124c8565b84846125b8565b611e236124c8565b6005546001600160a01b03908116911614611e73576040805162461bcd60e51b81526020600482018190526024820152600080516020613eff833981519152604482015290519081900360640190fd5b600c819055600e54600d54610fb69190610fb0908490612467565b600080600080600080600080600860009054906101000a90046001600160a01b03166001600160a01b031663fbcbc0f18a6040518263ffffffff1660e01b815260040180826001600160a01b031681526020019150506101006040518083038186803b158015611efd57600080fd5b505afa158015611f11573d6000803e3d6000fd5b505050506040513d610100811015611f2857600080fd5b508051602082015160408301516060840151608085015160a086015160c087015160e090970151959e50939c50919a509850965094509092509050919395975091939597565b60136020526000908152604090205460ff1681565b611f8b6124c8565b6005546001600160a01b03908116911614611fdb576040805162461bcd60e51b81526020600482018190526024820152600080516020613eff833981519152604482015290519081900360640190fd5b6001600160a01b03821660009081526012602052604090205460ff16151581151514156120395760405162461bcd60e51b8152600401808060200182810382526032815260200180613fc86032913960400191505060405180910390fd5b6001600160a01b038216600081815260126020908152604091829020805460ff1916851515908117909155825190815291517f9d8f7706ea1113d1a167b526eca956215946dd36cc7df39eb16180222d8b5df79281900390910190a25050565b601054600160a01b900460ff1681565b6120b16124c8565b6005546001600160a01b03908116911614612101576040805162461bcd60e51b81526020600482018190526024820152600080516020613eff833981519152604482015290519081900360640190fd5b60005b8281101561215657816012600086868581811061211d57fe5b602090810292909201356001600160a01b0316835250810191909152604001600020805460ff1916911515919091179055600101612104565b507f7fdaf542373fa84f4ee8d662c642f44e4c2276a217d7d29e548b6eb29a233b35838383604051808060200183151581526020018281038252858582818152602001925060200280828437600083820152604051601f909101601f1916909201829003965090945050505050a1505050565b6001600160a01b03918216600090815260016020908152604080832093909416825291909152205490565b7f000000000000000000000000000000000000000000000000000000000000000081565b600a5481565b6008546040805163039e107b60e61b815290516000926001600160a01b03169163e7841ec0916004808301926020929190829003018186803b158015610e4757600080fd5b61226b6124c8565b6005546001600160a01b039081169116146122bb576040805162461bcd60e51b81526020600482018190526024820152600080516020613eff833981519152604482015290519081900360640190fd5b6008546040805163e98030c760e01b81526004810184905290516001600160a01b039092169163e98030c79160248082019260009290919082900301818387803b158015610f2357600080fd5b600080600080600080600080600860009054906101000a90046001600160a01b03166001600160a01b0316635183d6fd8a6040518263ffffffff1660e01b8152600401808281526020019150506101006040518083038186803b158015611efd57600080fd5b6123766124c8565b6005546001600160a01b039081169116146123c6576040805162461bcd60e51b81526020600482018190526024820152600080516020613eff833981519152604482015290519081900360640190fd5b6001600160a01b03811661240b5760405162461bcd60e51b8152600401808060200182810382526026815260200180613d4d6026913960400191505060405180910390fd5b6005546040516001600160a01b038084169216907f8be0079c531659141344cd1fd0a4f28419497f9722a3daafe3b4186f6b6457e090600090a3600580546001600160a01b0319166001600160a01b0392909216919091179055565b6000828201838110156124c1576040805162461bcd60e51b815260206004820152601b60248201527f536166654d6174683a206164646974696f6e206f766572666c6f770000000000604482015290519081900360640190fd5b9392505050565b3390565b6001600160a01b0383166125115760405162461bcd60e51b8152600401808060200182810382526024815260200180613fa46024913960400191505060405180910390fd5b6001600160a01b0382166125565760405162461bcd60e51b8152600401808060200182810382526022815260200180613d736022913960400191505060405180910390fd5b6001600160a01b03808416600081815260016020908152604080832094871680845294825291829020859055815185815291517f8c5be1e5ebec7d5bd14f71427d1e84f3dd0314c0f7b2291e5b200ac8c7c3b9259281900390910190a3505050565b6001600160a01b0383166125fd5760405162461bcd60e51b8152600401808060200182810382526025815260200180613f4a6025913960400191505060405180910390fd5b6001600160a01b0382166126425760405162461bcd60e51b8152600401808060200182810382526023815260200180613d2a6023913960400191505060405180910390fd5b6001600160a01b0383166000908152600b602052604090205460ff1615801561268457506001600160a01b0382166000908152600b602052604090205460ff16155b6126cb576040805162461bcd60e51b8152602060048201526013602482015272426c61636b6c6973746564206164647265737360681b604482015290519081900360640190fd5b806126e1576126dc83836000612c87565b612abd565b60006126ec3061169e565b600a549091508110801590819061270d5750600754600160a01b900460ff16155b801561273257506001600160a01b03851660009081526013602052604090205460ff16155b80156127575750612741611bde565b6001600160a01b0316856001600160a01b031614155b801561277c5750612766611bde565b6001600160a01b0316846001600160a01b031614155b1561280c576007805460ff60a01b1916600160a01b179055600f54600e546000916127b2916127ac908690612de2565b90612e3b565b90506127bd81612e7d565b60006127da600f546127ac600d5487612de290919063ffffffff16565b90506127e581613259565b60006127f03061169e565b90506127fb816132df565b50506007805460ff60a01b19169055505b6007546001600160a01b03861660009081526012602052604090205460ff600160a01b90920482161591168061285a57506001600160a01b03851660009081526012602052604090205460ff165b15612863575060005b80156128d457600061288560646127ac600f5488612de290919063ffffffff16565b6001600160a01b03871660009081526013602052604090205490915060ff16156128bb576128b960646127ac876001612de2565b015b6128c58582613714565b94506128d2873083612c87565b505b6128df868686612c87565b6008546001600160a01b031663e30443bc876128fa8161169e565b6040518363ffffffff1660e01b815260040180836001600160a01b0316815260200182815260200192505050600060405180830381600087803b15801561294057600080fd5b505af1925050508015612951575060015b506008546001600160a01b031663e30443bc8661296d8161169e565b6040518363ffffffff1660e01b815260040180836001600160a01b0316815260200182815260200192505050600060405180830381600087803b1580156129b357600080fd5b505af19250505080156129c4575060015b50600754600160a01b900460ff16612ab957601154600854604080516001624d3b8760e01b031981526004810184905290516001600160a01b039092169163ffb2c479916024808201926060929091908290030181600087803b158015612a2a57600080fd5b505af1925050508015612a5e57506040513d6060811015612a4a57600080fd5b508051602082015160409092015190919060015b612a6757612ab7565b604080518481526020810184905280820183905260608101869052905132916001917fc864333d6121033635ab41b29ae52f10a22cf4438c3e4f1c4c68518feb2f8a989181900360800190a35050505b505b5050505b505050565b60008184841115612b515760405162461bcd60e51b81526004018080602001828103825283818151815260200191508051906020019080838360005b83811015612b16578181015183820152602001612afe565b50505050905090810190601f168015612b435780820380516001836020036101000a031916815260200191505b509250505060405180910390fd5b505050900390565b6001600160a01b03821660009081526013602052604090205460ff1615158115151415612bb75760405162461bcd60e51b8152600401808060200182810382526040815260200180613ebf6040913960400191505060405180910390fd5b6001600160a01b0382166000908152601360205260409020805460ff19168215801591909117909155612c4b576008546040805163031e79db60e41b81526001600160a01b038581166004830152915191909216916331e79db091602480830192600092919082900301818387803b158015612c3257600080fd5b505af1158015612c46573d6000803e3d6000fd5b505050505b604051811515906001600160a01b038416907fffa9187bf1f18bf477bd0ea1bcbb64e93b6a98132473929edfce215cd9b16fab90600090a35050565b6001600160a01b038316612ccc5760405162461bcd60e51b8152600401808060200182810382526025815260200180613f4a6025913960400191505060405180910390fd5b6001600160a01b038216612d115760405162461bcd60e51b8152600401808060200182810382526023815260200180613d2a6023913960400191505060405180910390fd5b612d1c838383612abd565b612d5981604051806060016040528060268152602001613d95602691396001600160a01b0386166000908152602081905260409020549190612ac2565b6001600160a01b038085166000908152602081905260408082209390935590841681522054612d889082612467565b6001600160a01b038084166000818152602081815260409182902094909455805185815290519193928716927fddf252ad1be2c89b69c2b068fc378daa952ba7f163c4a11628f55a4df523b3ef92918290030190a3505050565b600082612df157506000610d36565b82820282848281612dfe57fe5b04146124c15760405162461bcd60e51b8152600401808060200182810382526021815260200180613e766021913960400191505060405180910390fd5b60006124c183836040518060400160405280601a81526020017f536166654d6174683a206469766973696f6e206279207a65726f000000000000815250613756565b60007f00000000000000000000000000000000000000000000000000000000000000006001600160a01b03166370a08231306040518263ffffffff1660e01b815260040180826001600160a01b0316815260200191505060206040518083038186803b158015612eec57600080fd5b505afa158015612f00573d6000803e3d6000fd5b505050506040513d6020811015612f1657600080fd5b5051604080516370a0823160e01b815230600482015290519192506000916001600160a01b037f000000000000000000000000000000000000000000000000000000000000000016916370a08231916024808301926020929190829003018186803b158015612f8457600080fd5b505afa158015612f98573d6000803e3d6000fd5b505050506040513d6020811015612fae57600080fd5b5051601054909150600160a01b900460ff161561312857612fce836137bb565b6000613073837f00000000000000000000000000000000000000000000000000000000000000006001600160a01b03166370a08231306040518263ffffffff1660e01b815260040180826001600160a01b0316815260200191505060206040518083038186803b15801561304157600080fd5b505afa158015613055573d6000803e3d6000fd5b505050506040513d602081101561306b57600080fd5b505190613714565b6010546040805163a9059cbb60e01b81526001600160a01b0392831660048201526024810184905290519293507f00000000000000000000000000000000000000000000000000000000000000009091169163a9059cbb916044808201926020929091908290030181600087803b1580156130ed57600080fd5b505af1158015613101573d6000803e3d6000fd5b505050506040513d602081101561311757600080fd5b50506010805460ff60a01b19169055505b601054600160a01b900460ff16612abd57613142836139b1565b60006131b5827f00000000000000000000000000000000000000000000000000000000000000006001600160a01b03166370a08231306040518263ffffffff1660e01b815260040180826001600160a01b0316815260200191505060206040518083038186803b15801561304157600080fd5b6010546040805163a9059cbb60e01b81526001600160a01b0392831660048201526024810184905290519293507f00000000000000000000000000000000000000000000000000000000000000009091169163a9059cbb916044808201926020929091908290030181600087803b15801561322f57600080fd5b505af1158015613243573d6000803e3d6000fd5b505050506040513d6020811015612ab957600080fd5b6000613266826002612e3b565b905060006132748383613714565b90504761328083613abe565b600061328c4783613714565b90506132988382613c24565b604080518581526020810183905280820185905290517f17bbfb9a6069321b6ded73bd96327c9e6b7212a5cd51ff219cd61370acafb5619181900360600190a15050505050565b601054600160a01b900460ff16156134f6576132fa816137bb565b60007f00000000000000000000000000000000000000000000000000000000000000006001600160a01b03166370a08231306040518263ffffffff1660e01b815260040180826001600160a01b0316815260200191505060206040518083038186803b15801561336957600080fd5b505afa15801561337d573d6000803e3d6000fd5b505050506040513d602081101561339357600080fd5b50516008546040805163a9059cbb60e01b81526001600160a01b0392831660048201526024810184905290519293506000927f00000000000000000000000000000000000000000000000000000000000000009092169163a9059cbb9160448082019260209290919082900301818787803b15801561341157600080fd5b505af1158015613425573d6000803e3d6000fd5b505050506040513d602081101561343b57600080fd5b50516010805460ff60a01b19169055905080156134f3576008546040805163ba72a95560e01b81526004810185905290516001600160a01b039092169163ba72a9559160248082019260009290919082900301818387803b15801561349f57600080fd5b505af11580156134b3573d6000803e3d6000fd5b5050604080518681526020810186905281517f80195cc573b02cc48460cbca6e6e4cc85ddb91959d946e1c3025ea3d87942dc39450908190039091019150a15b50505b601054600160a01b900460ff1661371157613510816139b1565b60007f00000000000000000000000000000000000000000000000000000000000000006001600160a01b03166370a08231306040518263ffffffff1660e01b815260040180826001600160a01b0316815260200191505060206040518083038186803b15801561357f57600080fd5b505afa158015613593573d6000803e3d6000fd5b505050506040513d60208110156135a957600080fd5b50516008546040805163a9059cbb60e01b81526001600160a01b0392831660048201526024810184905290519293506000927f00000000000000000000000000000000000000000000000000000000000000009092169163a9059cbb9160448082019260209290919082900301818787803b15801561362757600080fd5b505af115801561363b573d6000803e3d6000fd5b505050506040513d602081101561365157600080fd5b50516010805460ff60a01b1916600160a01b17905590508015612abd576008546040805163ba72a95560e01b81526004810185905290516001600160a01b039092169163ba72a9559160248082019260009290919082900301818387803b1580156136bb57600080fd5b505af11580156136cf573d6000803e3d6000fd5b5050604080518681526020810186905281517f80195cc573b02cc48460cbca6e6e4cc85ddb91959d946e1c3025ea3d87942dc39450908190039091019150a150505b50565b60006124c183836040518060400160405280601e81526020017f536166654d6174683a207375627472616374696f6e206f766572666c6f770000815250612ac2565b600081836137a55760405162461bcd60e51b8152602060048201818152835160248401528351909283926044909101919085019080838360008315612b16578181015183820152602001612afe565b5060008385816137b157fe5b0495945050505050565b6040805160038082526080820190925260609160208201838036833701905050905030816000815181106137eb57fe5b6001600160a01b03928316602091820292909201810191909152600654604080516315ab88c960e31b81529051919093169263ad5c4648926004808301939192829003018186803b15801561383f57600080fd5b505afa158015613853573d6000803e3d6000fd5b505050506040513d602081101561386957600080fd5b505181518290600190811061387a57fe5b60200260200101906001600160a01b031690816001600160a01b0316815250507f0000000000000000000000000000000000000000000000000000000000000000816002815181106138c857fe5b6001600160a01b0392831660209182029290920101526006546138ee91309116846124cc565b600654604051635c11d79560e01b8152600481018481526000602483018190523060648401819052426084850181905260a060448601908152875160a487015287516001600160a01b0390971696635c11d795968a968a9594939092909160c40190602080880191028083838b5b8381101561397457818101518382015260200161395c565b505050509050019650505050505050600060405180830381600087803b15801561399d57600080fd5b505af1158015612ab9573d6000803e3d6000fd5b6040805160038082526080820190925260609160208201838036833701905050905030816000815181106139e157fe5b6001600160a01b03928316602091820292909201810191909152600654604080516315ab88c960e31b81529051919093169263ad5c4648926004808301939192829003018186803b158015613a3557600080fd5b505afa158015613a49573d6000803e3d6000fd5b505050506040513d6020811015613a5f57600080fd5b5051815182906001908110613a7057fe5b60200260200101906001600160a01b031690816001600160a01b0316815250507f0000000000000000000000000000000000000000000000000000000000000000816002815181106138c857fe5b60408051600280825260608083018452926020830190803683370190505090503081600081518110613aec57fe5b6001600160a01b03928316602091820292909201810191909152600654604080516315ab88c960e31b81529051919093169263ad5c4648926004808301939192829003018186803b158015613b4057600080fd5b505afa158015613b54573d6000803e3d6000fd5b505050506040513d6020811015613b6a57600080fd5b5051815182906001908110613b7b57fe5b6001600160a01b039283166020918202929092010152600654613ba191309116846124cc565b60065460405163791ac94760e01b8152600481018481526000602483018190523060648401819052426084850181905260a060448601908152875160a487015287516001600160a01b039097169663791ac947968a968a9594939092909160c40190602087810191028083838b831561397457818101518382015260200161395c565b600654613c3c9030906001600160a01b0316846124cc565b6006546040805163f305d71960e01b8152306004820152602481018590526000604482018190526064820181905260848201524260a482015290516001600160a01b039092169163f305d71991849160c480830192606092919082900301818588803b158015613cab57600080fd5b505af1158015613cbf573d6000803e3d6000fd5b50505050506040513d6060811015613cd657600080fd5b5050505056fe4d4f4e5354413a205468652050616e63616b655377617020706169722063616e6e6f742062652072656d6f7665642066726f6d206175746f6d617465644d61726b65744d616b6572506169727345524332303a207472616e7366657220746f20746865207a65726f20616464726573734f776e61626c653a206e6577206f776e657220697320746865207a65726f206164647265737345524332303a20617070726f766520746f20746865207a65726f206164647265737345524332303a207472616e7366657220616d6f756e7420657863656564732062616c616e63654d4f4e5354413a2043616e6e6f742075706461746520676173466f7250726f63657373696e6720746f2073616d652076616c75654d4f4e5354413a20676173466f7250726f63657373696e67206d757374206265206265747765656e203230302c30303020616e64203530302c3030304d4f4e5354413a20546865206e6577206469766964656e6420747261636b6572206d757374206265206f776e656420627920746865204d4f4e53544120746f6b656e20636f6e7472616374536166654d6174683a206d756c7469706c69636174696f6e206f766572666c6f7745524332303a207472616e7366657220616d6f756e74206578636565647320616c6c6f77616e63654d4f4e5354413a204175746f6d61746564206d61726b6574206d616b6572207061697220697320616c72656164792073657420746f20746861742076616c75654f776e61626c653a2063616c6c6572206973206e6f7420746865206f776e65724d4f4e5354413a2054686520726f7574657220616c7265616479206861732074686174206164647265737345524332303a207472616e736665722066726f6d20746865207a65726f20616464726573734d4f4e5354413a20546865206469766964656e6420747261636b657220616c7265616479206861732074686174206164647265737345524332303a20617070726f76652066726f6d20746865207a65726f20616464726573734d4f4e5354413a204163636f756e7420697320616c7265616479207468652076616c7565206f6620276578636c756465642745524332303a2064656372656173656420616c6c6f77616e63652062656c6f77207a65726fa264697066735822122096814863a884eea46a080230741ff54e2b8db6dc6b5fe9eda86a44286fd0cda364736f6c634300060c003360c06040527f0e09fabb73bd3ade0a17ecc321fd13a19e81ce82000000000000000000000000608052600680546001600160a01b031916738a5d7fcd4c90421d21d30fcc4435948ac3618b2f1790553480156200005b57600080fd5b5060408051808201825260178082527f4d6f6e7374615f4469766964656e645f547261636b657200000000000000000060208084018281528551808701909652928552840152815191929183918391620000b89160039162000151565b508051620000ce90600490602084019062000151565b5050506000620000e36200014d60201b60201c565b600580546001600160a01b0319166001600160a01b038316908117909155604051919250906000907f8be0079c531659141344cd1fd0a4f28419497f9722a3daafe3b4186f6b6457e0908290a350506104b060125550692a5a058fc295ed00000060a052620001ed565b3390565b828054600181600116156101000203166002900490600052602060002090601f016020900481019282601f106200019457805160ff1916838001178555620001c4565b82800160010185558215620001c4579182015b82811115620001c4578251825591602001919060010190620001a7565b50620001d2929150620001d6565b5090565b5b80821115620001d25760008155600101620001d7565b60805160601c60a0516122a66200021e60003980611060528061113d525080610acb5280611b1b52506122a66000f3fe608060405234801561001057600080fd5b50600436106102325760003560e01c806385a6b3ae11610130578063bc4c4b37116100b8578063e7841ec01161007c578063e7841ec0146106a1578063e98030c7146106a9578063f2fde38b146106c6578063fbcbc0f1146106ec578063ffb2c4791461071257610232565b8063bc4c4b3714610609578063be10b61414610637578063c3da42b81461063f578063dd62ed3e14610647578063e30443bc1461067557610232565b8063a457c2d7116100ff578063a457c2d714610548578063a8b9d24014610574578063a9059cbb1461059a578063aafd847a146105c6578063ba72a955146105ec57610232565b806385a6b3ae1461050a5780638da5cb5b1461051257806391b89fba1461051a57806395d89b411461054057610232565b806331e79db0116101be5780635183d6fd116101825780635183d6fd146104645780636a474002146104cc5780636f2789ec146104d457806370a08231146104dc578063715018a61461050257610232565b806331e79db0146103be57806339509351146103e65780634aaa7f0b146104125780634ca6ef28146104365780634e7b827f1461043e57610232565b8063226cfa3d11610205578063226cfa3d1461031657806323b872dd1461033c57806327ce0147146103725780633009a60914610398578063313ce567146103a057610232565b806306fdde0314610237578063095ea7b3146102b457806309bbedde146102f457806318160ddd1461030e575b600080fd5b61023f61074d565b6040805160208082528351818301528351919283929083019185019080838360005b83811015610279578181015183820152602001610261565b50505050905090810190601f1680156102a65780820380516001836020036101000a031916815260200191505b509250505060405180910390f35b6102e0600480360360408110156102ca57600080fd5b506001600160a01b0381351690602001356107e3565b604080519115158252519081900360200190f35b6102fc610801565b60408051918252519081900360200190f35b6102fc610807565b6102fc6004803603602081101561032c57600080fd5b50356001600160a01b031661080d565b6102e06004803603606081101561035257600080fd5b506001600160a01b0381358116916020810135909116906040013561081f565b6102fc6004803603602081101561038857600080fd5b50356001600160a01b03166108a6565b6102fc610905565b6103a861090b565b6040805160ff9092168252519081900360200190f35b6103e4600480360360208110156103d457600080fd5b50356001600160a01b0316610910565b005b6102e0600480360360408110156103fc57600080fd5b506001600160a01b038135169060200135610a6c565b61041a610aba565b604080516001600160a01b039092168252519081900360200190f35b61041a610ac9565b6102e06004803603602081101561045457600080fd5b50356001600160a01b0316610aed565b6104816004803603602081101561047a57600080fd5b5035610b02565b604080516001600160a01b0390991689526020890197909752878701959095526060870193909352608086019190915260a085015260c084015260e083015251908190036101000190f35b6103e4610c61565b6102fc610c98565b6102fc600480360360208110156104f257600080fd5b50356001600160a01b0316610c9e565b6103e4610cb9565b6102fc610d5b565b61041a610d61565b6102fc6004803603602081101561053057600080fd5b50356001600160a01b0316610d70565b61023f610d7b565b6102e06004803603604081101561055e57600080fd5b506001600160a01b038135169060200135610ddc565b6102fc6004803603602081101561058a57600080fd5b50356001600160a01b0316610e44565b6102e0600480360360408110156105b057600080fd5b506001600160a01b038135169060200135610e70565b6102fc600480360360208110156105dc57600080fd5b50356001600160a01b0316610e84565b6103e46004803603602081101561060257600080fd5b5035610e9f565b6102e06004803603604081101561061f57600080fd5b506001600160a01b0381351690602001351515610f89565b6102fc61105e565b6102e0611082565b6102fc6004803603604081101561065d57600080fd5b506001600160a01b0381358116916020013516611092565b6103e46004803603604081101561068b57600080fd5b506001600160a01b0381351690602001356110bd565b6102fc611287565b6103e4600480360360208110156106bf57600080fd5b503561128d565b6103e4600480360360208110156106dc57600080fd5b50356001600160a01b03166113a9565b6104816004803603602081101561070257600080fd5b50356001600160a01b03166114a2565b61072f6004803603602081101561072857600080fd5b5035611615565b60408051938452602084019290925282820152519081900360600190f35b60038054604080516020601f60026000196101006001881615020190951694909404938401819004810282018101909252828152606093909290918301828280156107d95780601f106107ae576101008083540402835291602001916107d9565b820191906000526020600020905b8154815290600101906020018083116107bc57829003601f168201915b5050505050905090565b60006107f76107f0611713565b8484611717565b5060015b92915050565b600b5490565b60025490565b60116020526000908152604090205481565b600061082c848484611803565b61089c84610838611713565b61089785604051806060016040528060288152602001612108602891396001600160a01b038a16600090815260016020526040812090610876611713565b6001600160a01b03168152602081019190915260400160002054919061183a565b611717565b5060019392505050565b6001600160a01b038116600090815260086020526040812054600160801b906108f5906108f0906108ea6108e56108dc88610c9e565b600754906118d1565b611931565b90611941565b611974565b816108fc57fe5b0490505b919050565b600f5481565b601290565b610918611713565b6005546001600160a01b03908116911614610968576040805162461bcd60e51b81526020600482018190526024820152600080516020612130833981519152604482015290519081900360640190fd5b6001600160a01b03811660009081526010602052604090205460ff161561098e57600080fd5b6001600160a01b0381166000908152601060205260408120805460ff191660011790556109bc908290611987565b6040805163131836e760e21b8152600b60048201526001600160a01b0383166024820152905173__$d5b3ccc65cce442d78f3b5c2e2932154fa$__91634c60db9c916044808301926000929190829003018186803b158015610a1d57600080fd5b505af4158015610a31573d6000803e3d6000fd5b50506040516001600160a01b03841692507fa878b31040b2e6d0a9a3d3361209db3908ba62014b0dca52adbaee451d128b259150600090a250565b60006107f7610a79611713565b846108978560016000610a8a611713565b6001600160a01b03908116825260208083019390935260409182016000908120918c1681529252902054906119e0565b6006546001600160a01b031681565b7f000000000000000000000000000000000000000000000000000000000000000081565b60106020526000908152604090205460ff1681565b600080600080600080600080600b73__$d5b3ccc65cce442d78f3b5c2e2932154fa$__63deb3d89690916040518263ffffffff1660e01b81526004018082815260200191505060206040518083038186803b158015610b6057600080fd5b505af4158015610b74573d6000803e3d6000fd5b505050506040513d6020811015610b8a57600080fd5b50518910610bb1575060009650600019955085945086935083925082915081905080610c56565b6000600b73__$d5b3ccc65cce442d78f3b5c2e2932154fa$__63d1aa9e7e90918c6040518363ffffffff1660e01b8152600401808381526020018281526020019250505060206040518083038186803b158015610c0d57600080fd5b505af4158015610c21573d6000803e3d6000fd5b505050506040513d6020811015610c3757600080fd5b50519050610c44816114a2565b98509850985098509850985098509850505b919395975091939597565b60405162461bcd60e51b815260040180806020018281038252606981526020018061207e6069913960800191505060405180910390fd5b60125481565b6001600160a01b031660009081526020819052604090205490565b610cc1611713565b6005546001600160a01b03908116911614610d11576040805162461bcd60e51b81526020600482018190526024820152600080516020612130833981519152604482015290519081900360640190fd5b6005546040516000916001600160a01b0316907f8be0079c531659141344cd1fd0a4f28419497f9722a3daafe3b4186f6b6457e0908390a3600580546001600160a01b0319169055565b600a5481565b6005546001600160a01b031690565b60006107fb82610e44565b60048054604080516020601f60026000196101006001881615020190951694909404938401819004810282018101909252828152606093909290918301828280156107d95780601f106107ae576101008083540402835291602001916107d9565b60006107f7610de9611713565b846108978560405180606001604052806025815260200161224c6025913960016000610e13611713565b6001600160a01b03908116825260208083019390935260409182016000908120918d1681529252902054919061183a565b6001600160a01b0381166000908152600960205260408120546107fb90610e6a846108a6565b90611a3a565b60006107f7610e7d611713565b8484611803565b6001600160a01b031660009081526009602052604090205490565b610ea7611713565b6005546001600160a01b03908116911614610ef7576040805162461bcd60e51b81526020600482018190526024820152600080516020612130833981519152604482015290519081900360640190fd5b6000610f01610807565b11610f0b57600080fd5b8015610f8657610f3c610f1c610807565b610f2a83600160801b6118d1565b81610f3157fe5b6007549190046119e0565b60075560408051828152905133917fa493a9229478c3fcd73f66d2cdeb7f94fd0f341da924d1054236d78454116511919081900360200190a2600a54610f8290826119e0565b600a555b50565b6000610f93611713565b6005546001600160a01b03908116911614610fe3576040805162461bcd60e51b81526020600482018190526024820152600080516020612130833981519152604482015290519081900360640190fd5b6000610fee84611a7c565b90508015611054576001600160a01b0384166000818152601160209081526040918290204290558151848152915186151593927fa2c38e2d2fb7e3e1912d937fd1ca11ed6d51864dee4cfa7a7bf02becd7acf09292908290030190a360019150506107fb565b5060009392505050565b7f000000000000000000000000000000000000000000000000000000000000000081565b600654600160a01b900460ff1681565b6001600160a01b03918216600090815260016020908152604080832093909416825291909152205490565b6110c5611713565b6005546001600160a01b03908116911614611115576040805162461bcd60e51b81526020600482018190526024820152600080516020612130833981519152604482015290519081900360640190fd5b6001600160a01b03821660009081526010602052604090205460ff161561113b57611283565b7f000000000000000000000000000000000000000000000000000000000000000081106111f15761116c8282611987565b60408051632f0ad01760e21b8152600b60048201526001600160a01b038416602482015260448101839052905173__$d5b3ccc65cce442d78f3b5c2e2932154fa$__9163bc2b405c916064808301926000929190829003018186803b1580156111d457600080fd5b505af41580156111e8573d6000803e3d6000fd5b50505050611276565b6111fc826000611987565b6040805163131836e760e21b8152600b60048201526001600160a01b0384166024820152905173__$d5b3ccc65cce442d78f3b5c2e2932154fa$__91634c60db9c916044808301926000929190829003018186803b15801561125d57600080fd5b505af4158015611271573d6000803e3d6000fd5b505050505b611281826001610f89565b505b5050565b600f5490565b611295611713565b6005546001600160a01b039081169116146112e5576040805162461bcd60e51b81526020600482018190526024820152600080516020612130833981519152604482015290519081900360640190fd5b610e1081101580156112fa5750620151808111155b6113355760405162461bcd60e51b815260040180806020018281038252604c8152602001806121d3604c913960600191505060405180910390fd5b6012548114156113765760405162461bcd60e51b815260040180806020018281038252603e815260200180612171603e913960400191505060405180910390fd5b60125460405182907f474ea64804364a1e29a4487ddb63c3342a2dd826ccd8acf48825e680a0e6f20f90600090a3601255565b6113b1611713565b6005546001600160a01b03908116911614611401576040805162461bcd60e51b81526020600482018190526024820152600080516020612130833981519152604482015290519081900360640190fd5b6001600160a01b0381166114465760405162461bcd60e51b81526004018080602001828103825260268152602001806120366026913960400191505060405180910390fd5b6005546040516001600160a01b038084169216907f8be0079c531659141344cd1fd0a4f28419497f9722a3daafe3b4186f6b6457e090600090a3600580546001600160a01b0319166001600160a01b0392909216919091179055565b600080600080600080600080889750600b73__$d5b3ccc65cce442d78f3b5c2e2932154fa$__6317e142d190918a6040518363ffffffff1660e01b815260040180838152602001826001600160a01b031681526020019250505060206040518083038186803b15801561151457600080fd5b505af4158015611528573d6000803e3d6000fd5b505050506040513d602081101561153e57600080fd5b505196506000199550600087126115a257600f5487111561156e57600f54611567908890611d26565b95506115a2565b600f54600b5460009110611583576000611592565b600f54600b5461159291611a3a565b905061159e8882611941565b9650505b6115ab88610e44565b94506115b6886108a6565b6001600160a01b0389166000908152601160205260409020549094509250826115e05760006115ee565b6012546115ee9084906119e0565b91504282116115fe576000611608565b6116088242611a3a565b9050919395975091939597565b600b546000908190819080611635575050600f546000925082915061170c565b600f546000805a90506000805b898410801561165057508582105b156116fb57600b54600190950194851061166957600094505b6000600b600001868154811061167b57fe5b60009182526020808320909101546001600160a01b031680835260119091526040909120549091506116ac90611d58565b156116c8576116bc816001610f89565b156116c8576001909101905b60019092019160005a9050808511156116f2576116ef6116e88683611a3a565b87906119e0565b95505b93506116429050565b600f85905590975095509193505050505b9193909250565b3390565b6001600160a01b03831661175c5760405162461bcd60e51b81526004018080602001828103825260248152602001806121af6024913960400191505060405180910390fd5b6001600160a01b0382166117a15760405162461bcd60e51b815260040180806020018281038252602281526020018061205c6022913960400191505060405180910390fd5b6001600160a01b03808416600081815260016020908152604080832094871680845294825291829020859055815185815291517f8c5be1e5ebec7d5bd14f71427d1e84f3dd0314c0f7b2291e5b200ac8c7c3b9259281900390910190a3505050565b60405162461bcd60e51b815260040180806020018281038252602d81526020018061221f602d913960400191505060405180910390fd5b600081848411156118c95760405162461bcd60e51b81526004018080602001828103825283818151815260200191508051906020019080838360005b8381101561188e578181015183820152602001611876565b50505050905090810190601f1680156118bb5780820380516001836020036101000a031916815260200191505b509250505060405180910390fd5b505050900390565b6000826118e0575060006107fb565b828202828482816118ed57fe5b041461192a5760405162461bcd60e51b81526004018080602001828103825260218152602001806120e76021913960400191505060405180910390fd5b9392505050565b600081818112156107fb57600080fd5b60008282018183128015906119565750838112155b8061196b575060008312801561196b57508381125b61192a57600080fd5b60008082121561198357600080fd5b5090565b600061199283610c9e565b9050808211156119ba5760006119a88383611a3a565b90506119b48482611d7f565b50611281565b808210156112815760006119ce8284611a3a565b90506119da8482611de3565b50505050565b60008282018381101561192a576040805162461bcd60e51b815260206004820152601b60248201527f536166654d6174683a206164646974696f6e206f766572666c6f770000000000604482015290519081900360640190fd5b600061192a83836040518060400160405280601e81526020017f536166654d6174683a207375627472616374696f6e206f766572666c6f77000081525061183a565b600080611a8883610e44565b90508015611d1d576001600160a01b038316600090815260096020526040902054611ab390826119e0565b6001600160a01b038416600081815260096020908152604091829020939093558051848152905191927fee503bee2bb6a87e57bc57db795f98137327401a0e7b7ce42e37926cc1a9ca4d92918290030190a2600654600160a01b900460ff1615611c2e5760007f00000000000000000000000000000000000000000000000000000000000000006001600160a01b031663a9059cbb85846040518363ffffffff1660e01b815260040180836001600160a01b0316815260200182815260200192505050602060405180830381600087803b158015611b9057600080fd5b505af1158015611ba4573d6000803e3d6000fd5b505050506040513d6020811015611bba57600080fd5b50516006805460ff60a01b19169055905080611c2c576001600160a01b038416600090815260096020526040902054611bf39083611a3a565b6001600160a01b0385166000908152600960205260408120919091556006805460ff60a01b1916600160a01b1790559250610900915050565b505b600654600160a01b900460ff16611d16576006546040805163a9059cbb60e01b81526001600160a01b038681166004830152602482018590529151600093929092169163a9059cbb9160448082019260209290919082900301818787803b158015611c9857600080fd5b505af1158015611cac573d6000803e3d6000fd5b505050506040513d6020811015611cc257600080fd5b5051905080611d14576001600160a01b038416600090815260096020526040902054611cee9083611a3a565b6001600160a01b0385166000908152600960205260408120919091559250610900915050565b505b9050610900565b50600092915050565b6000818303818312801590611d3b5750838113155b8061196b575060008312801561196b575083811361192a57600080fd5b600042821115611d6a57506000610900565b601254611d774284611a3a565b101592915050565b611d898282611e27565b611dc3611da46108e5836007546118d190919063ffffffff16565b6001600160a01b03841660009081526008602052604090205490611d26565b6001600160a01b0390921660009081526008602052604090209190915550565b611ded8282611f17565b611dc3611e086108e5836007546118d190919063ffffffff16565b6001600160a01b03841660009081526008602052604090205490611941565b6001600160a01b038216611e82576040805162461bcd60e51b815260206004820152601f60248201527f45524332303a206d696e7420746f20746865207a65726f206164647265737300604482015290519081900360640190fd5b611e8e60008383611281565b600254611e9b90826119e0565b6002556001600160a01b038216600090815260208190526040902054611ec190826119e0565b6001600160a01b0383166000818152602081815260408083209490945583518581529351929391927fddf252ad1be2c89b69c2b068fc378daa952ba7f163c4a11628f55a4df523b3ef9281900390910190a35050565b6001600160a01b038216611f5c5760405162461bcd60e51b81526004018080602001828103825260218152602001806121506021913960400191505060405180910390fd5b611f6882600083611281565b611fa581604051806060016040528060228152602001612014602291396001600160a01b038516600090815260208190526040902054919061183a565b6001600160a01b038316600090815260208190526040902055600254611fcb9082611a3a565b6002556040805182815290516000916001600160a01b038516917fddf252ad1be2c89b69c2b068fc378daa952ba7f163c4a11628f55a4df523b3ef9181900360200190a3505056fe45524332303a206275726e20616d6f756e7420657863656564732062616c616e63654f776e61626c653a206e6577206f776e657220697320746865207a65726f206164647265737345524332303a20617070726f766520746f20746865207a65726f20616464726573734d6f6e7374615f4469766964656e645f547261636b65723a2077697468647261774469766964656e642064697361626c65642e20557365207468652027636c61696d272066756e6374696f6e206f6e20746865206d61696e204d4f4e53544120636f6e74726163742e536166654d6174683a206d756c7469706c69636174696f6e206f766572666c6f7745524332303a207472616e7366657220616d6f756e74206578636565647320616c6c6f77616e63654f776e61626c653a2063616c6c6572206973206e6f7420746865206f776e657245524332303a206275726e2066726f6d20746865207a65726f20616464726573734d6f6e7374615f4469766964656e645f547261636b65723a2043616e6e6f742075706461746520636c61696d5761697420746f2073616d652076616c756545524332303a20617070726f76652066726f6d20746865207a65726f20616464726573734d6f6e7374615f4469766964656e645f547261636b65723a20636c61696d57616974206d757374206265207570646174656420746f206265747765656e203120616e6420323420686f7572734d6f6e7374615f4469766964656e645f547261636b65723a204e6f207472616e736665727320616c6c6f77656445524332303a2064656372656173656420616c6c6f77616e63652062656c6f77207a65726fa2646970667358221220786e59abf6b5960f1e8ae12be35fbf7e58247d07ddc7400f5105046d05a9829564736f6c634300060c00334d4f4e5354413a204175746f6d61746564206d61726b6574206d616b6572207061697220697320616c72656164792073657420746f20746861742076616c75654d4f4e5354413a204163636f756e7420697320616c7265616479207468652076616c7565206f6620276578636c7564656427",
    "sourcePath": "/home/null/Desktop/BABYCAKE/Monsta.sol",
    "compiler": {
        "name": "solc",
        "version": "0.6.12+commit.27d51765"
    },
    "functionHashes": {
        "CAKE()": "4ca6ef28",
        "CAKERewardsFee()": "6594aa5f",
        "MONSTA()": "ddffd015",
        "_isBlacklisted(address)": "1cdd3be3",
        "_marketingWalletAddress()": "4144d9e4",
        "allowance(address,address)": "dd62ed3e",
        "approve(address,uint256)": "095ea7b3",
        "automatedMarketMakerPairs(address)": "b62496f5",
        "balanceOf(address)": "70a08231",
        "blacklistAddress(address,bool)": "455a4396",
        "c()": "c3da42b8",
        "claim()": "4e71d92d",
        "deadWallet()": "85141a77",
        "decimals()": "313ce567",
        "decreaseAllowance(address,uint256)": "a457c2d7",
        "dividendTokenBalanceOf(address)": "6843cd84",
        "dividendTracker()": "2c1f5216",
        "excludeFromDividends(address)": "31e79db0",
        "excludeFromFees(address,bool)": "c0246668",
        "excludeMultipleAccountsFromFees(address[],bool)": "c492f046",
        "gasForProcessing()": "9c1b8af5",
        "getAccountDividendsInfo(address)": "ad56c13c",
        "getAccountDividendsInfoAtIndex(uint256)": "f27fd254",
        "getClaimWait()": "a26579ad",
        "getLastProcessedIndex()": "e7841ec0",
        "getNumberOfDividendTokenHolders()": "64b0f653",
        "getTotalDividendsDistributed()": "30bb4cff",
        "increaseAllowance(address,uint256)": "39509351",
        "isExcludedFromFees(address)": "4fbee193",
        "liquidityFee()": "98118cb4",
        "marketingFee()": "6b67c4df",
        "name()": "06fdde03",
        "owner()": "8da5cb5b",
        "processDividendTracker(uint256)": "700bb191",
        "renounceOwnership()": "715018a6",
        "setAutomatedMarketMakerPair(address,bool)": "9a7a23d6",
        "setCAKERewardsFee(uint256)": "ac212ab2",
        "setLiquidityFee(uint256)": "357bf15c",
        "setMarketingFee(uint256)": "625e764c",
        "setMarketingWallet(address)": "5d098b38",
        "swapTokensAtAmount()": "e2f45605",
        "symbol()": "95d89b41",
        "totalFees()": "13114a9d",
        "totalSupply()": "18160ddd",
        "transfer(address,uint256)": "a9059cbb",
        "transferFrom(address,address,uint256)": "23b872dd",
        "transferOwnership(address)": "f2fde38b",
        "uniswapV2Pair()": "49bd5a5e",
        "uniswapV2Router()": "1694505e",
        "updateClaimWait(uint256)": "e98030c7",
        "updateDividendTracker(address)": "88bdd9be",
        "updateGasForProcessing(uint256)": "871c128d",
        "updateUniswapV2Router(address)": "65b8dbc0",
        "withdrawableDividendOf(address)": "a8b9d240"
    },
    "gasEstimates": {
        "creation": {
            "codeDepositCost": "3293600",
            "executionCost": "infinite",
            "totalCost": "infinite"
        },
        "external": {
            "CAKE()": "infinite",
            "CAKERewardsFee()": "1110",
            "MONSTA()": "infinite",
            "_isBlacklisted(address)": "1293",
            "_marketingWalletAddress()": "1106",
            "allowance(address,address)": "1317",
            "approve(address,uint256)": "infinite",
            "automatedMarketMakerPairs(address)": "1203",
            "balanceOf(address)": "1191",
            "blacklistAddress(address,bool)": "infinite",
            "c()": "1138",
            "claim()": "infinite",
            "deadWallet()": "1127",
            "decimals()": "275",
            "decreaseAllowance(address,uint256)": "infinite",
            "dividendTokenBalanceOf(address)": "infinite",
            "dividendTracker()": "1128",
            "excludeFromDividends(address)": "infinite",
            "excludeFromFees(address,bool)": "infinite",
            "excludeMultipleAccountsFromFees(address[],bool)": "infinite",
            "gasForProcessing()": "1065",
            "getAccountDividendsInfo(address)": "infinite",
            "getAccountDividendsInfoAtIndex(uint256)": "infinite",
            "getClaimWait()": "infinite",
            "getLastProcessedIndex()": "infinite",
            "getNumberOfDividendTokenHolders()": "infinite",
            "getTotalDividendsDistributed()": "infinite",
            "increaseAllowance(address,uint256)": "infinite",
            "isExcludedFromFees(address)": "1266",
            "liquidityFee()": "1088",
            "marketingFee()": "1109",
            "name()": "infinite",
            "owner()": "1193",
            "processDividendTracker(uint256)": "infinite",
            "renounceOwnership()": "infinite",
            "setAutomatedMarketMakerPair(address,bool)": "infinite",
            "setCAKERewardsFee(uint256)": "infinite",
            "setLiquidityFee(uint256)": "infinite",
            "setMarketingFee(uint256)": "infinite",
            "setMarketingWallet(address)": "infinite",
            "swapTokensAtAmount()": "1109",
            "symbol()": "infinite",
            "totalFees()": "1089",
            "totalSupply()": "1133",
            "transfer(address,uint256)": "infinite",
            "transferFrom(address,address,uint256)": "infinite",
            "transferOwnership(address)": "infinite",
            "uniswapV2Pair()": "1150",
            "uniswapV2Router()": "1150",
            "updateClaimWait(uint256)": "infinite",
            "updateDividendTracker(address)": "infinite",
            "updateGasForProcessing(uint256)": "infinite",
            "updateUniswapV2Router(address)": "infinite",
            "withdrawableDividendOf(address)": "infinite"
        },
        "internal": {
            "_setAutomatedMarketMakerPair(address,bool)": "infinite",
            "_transfer(address,address,uint256)": "infinite",
            "addLiquidity(uint256,uint256)": "infinite",
            "swapAndLiquify(uint256)": "infinite",
            "swapAndSendDividends(uint256)": "infinite",
            "swapAndSendToFee(uint256)": "infinite",
            "swapTokensForCake(uint256)": "infinite",
            "swapTokensForEth(uint256)": "infinite",
            "swapTokensForMonsta(uint256)": "infinite"
        }
    }
}